{
  "contractName": "ContractSC",
  "abi": [
    {
      "constant": true,
      "inputs": [
        {
          "name": "",
          "type": "uint256"
        }
      ],
      "name": "contracts_details",
      "outputs": [
        {
          "name": "contract_id",
          "type": "uint256"
        },
        {
          "name": "currency",
          "type": "string"
        },
        {
          "name": "payment_rate",
          "type": "int256"
        },
        {
          "name": "payment_frequency",
          "type": "string"
        },
        {
          "name": "payment_due",
          "type": "string"
        },
        {
          "name": "employer_id",
          "type": "uint256"
        },
        {
          "name": "contractor_id",
          "type": "uint256"
        },
        {
          "name": "proposal_id",
          "type": "uint256"
        }
      ],
      "payable": false,
      "stateMutability": "view",
      "type": "function",
      "signature": "0x1c87fb21"
    },
    {
      "constant": true,
      "inputs": [
        {
          "name": "",
          "type": "uint256"
        }
      ],
      "name": "contracts",
      "outputs": [
        {
          "name": "contract_id",
          "type": "uint256"
        },
        {
          "name": "contract_type",
          "type": "string"
        },
        {
          "name": "contract_name",
          "type": "string"
        },
        {
          "name": "job_title",
          "type": "string"
        },
        {
          "name": "status",
          "type": "string"
        },
        {
          "name": "scope_of_work",
          "type": "string"
        },
        {
          "name": "start_date",
          "type": "string"
        },
        {
          "name": "end_date",
          "type": "string"
        }
      ],
      "payable": false,
      "stateMutability": "view",
      "type": "function",
      "signature": "0x474da79a"
    },
    {
      "constant": true,
      "inputs": [],
      "name": "contractCount",
      "outputs": [
        {
          "name": "",
          "type": "uint256"
        }
      ],
      "payable": false,
      "stateMutability": "view",
      "type": "function",
      "signature": "0x8736381a"
    },
    {
      "inputs": [],
      "payable": false,
      "stateMutability": "nonpayable",
      "type": "constructor",
      "signature": "constructor"
    },
    {
      "payable": true,
      "stateMutability": "payable",
      "type": "fallback"
    },
    {
      "anonymous": false,
      "inputs": [
        {
          "indexed": false,
          "name": "contract_id",
          "type": "uint256"
        },
        {
          "indexed": false,
          "name": "status",
          "type": "string"
        }
      ],
      "name": "ChangedContractStatus",
      "type": "event",
      "signature": "0x87e2651bc29355533cdeaebe57e6a5dc05b764bdd16e1010aef88e173edfdbc8"
    },
    {
      "anonymous": false,
      "inputs": [
        {
          "indexed": false,
          "name": "contract_id",
          "type": "uint256"
        },
        {
          "indexed": false,
          "name": "contract_type",
          "type": "string"
        },
        {
          "indexed": false,
          "name": "contract_name",
          "type": "string"
        },
        {
          "indexed": false,
          "name": "job_title",
          "type": "string"
        },
        {
          "indexed": false,
          "name": "status",
          "type": "string"
        },
        {
          "indexed": false,
          "name": "scope_of_work",
          "type": "string"
        },
        {
          "indexed": false,
          "name": "start_date",
          "type": "string"
        },
        {
          "indexed": false,
          "name": "end_date",
          "type": "string"
        }
      ],
      "name": "ContractCreated",
      "type": "event",
      "signature": "0x885fcc95c75581ffe21d0835a75217dbc27eeac68b459842550369ce95abae47"
    },
    {
      "anonymous": false,
      "inputs": [
        {
          "indexed": false,
          "name": "contract_id",
          "type": "uint256"
        },
        {
          "indexed": false,
          "name": "currency",
          "type": "string"
        },
        {
          "indexed": false,
          "name": "payment_rate",
          "type": "int256"
        },
        {
          "indexed": false,
          "name": "payment_frequency",
          "type": "string"
        },
        {
          "indexed": false,
          "name": "payment_due",
          "type": "string"
        },
        {
          "indexed": false,
          "name": "employer_id",
          "type": "uint256"
        },
        {
          "indexed": false,
          "name": "contractor_id",
          "type": "uint256"
        },
        {
          "indexed": false,
          "name": "proposal_id",
          "type": "uint256"
        }
      ],
      "name": "ContractDetailsCreated",
      "type": "event",
      "signature": "0x5ee338db78855874b54df61d10b711be7658a86fb1354b2a065dd122d9b1dce6"
    },
    {
      "anonymous": false,
      "inputs": [
        {
          "indexed": false,
          "name": "status",
          "type": "string"
        },
        {
          "indexed": false,
          "name": "contract_type",
          "type": "string"
        },
        {
          "indexed": false,
          "name": "scope_of_work",
          "type": "string"
        },
        {
          "indexed": false,
          "name": "start_date",
          "type": "string"
        },
        {
          "indexed": false,
          "name": "end_date",
          "type": "string"
        },
        {
          "indexed": false,
          "name": "currency",
          "type": "string"
        },
        {
          "indexed": false,
          "name": "payment_rate",
          "type": "int256"
        }
      ],
      "name": "ContractUpdated",
      "type": "event",
      "signature": "0x375787570f60317a305e9eb4d1d6a0301d08458e545c12ca0bd7cdd22370fa06"
    },
    {
      "constant": false,
      "inputs": [
        {
          "name": "contract_type",
          "type": "string"
        },
        {
          "name": "contract_name",
          "type": "string"
        },
        {
          "name": "job_title",
          "type": "string"
        },
        {
          "name": "status",
          "type": "string"
        },
        {
          "name": "scope_of_work",
          "type": "string"
        },
        {
          "name": "start_date",
          "type": "string"
        },
        {
          "name": "end_date",
          "type": "string"
        },
        {
          "name": "currency",
          "type": "string"
        },
        {
          "name": "payment_rate",
          "type": "int256"
        },
        {
          "name": "payment_frequency",
          "type": "string"
        },
        {
          "name": "payment_due",
          "type": "string"
        },
        {
          "name": "employer_id",
          "type": "uint256"
        },
        {
          "name": "contractor_id",
          "type": "uint256"
        },
        {
          "name": "proposal_id",
          "type": "uint256"
        }
      ],
      "name": "createContract",
      "outputs": [],
      "payable": false,
      "stateMutability": "nonpayable",
      "type": "function",
      "signature": "0xf971238c"
    },
    {
      "constant": false,
      "inputs": [
        {
          "name": "contract_type",
          "type": "string"
        },
        {
          "name": "contract_name",
          "type": "string"
        },
        {
          "name": "job_title",
          "type": "string"
        },
        {
          "name": "status",
          "type": "string"
        },
        {
          "name": "scope_of_work",
          "type": "string"
        },
        {
          "name": "start_date",
          "type": "string"
        },
        {
          "name": "end_date",
          "type": "string"
        }
      ],
      "name": "addContract",
      "outputs": [],
      "payable": false,
      "stateMutability": "nonpayable",
      "type": "function",
      "signature": "0x7239d6be"
    },
    {
      "constant": false,
      "inputs": [
        {
          "name": "currency",
          "type": "string"
        },
        {
          "name": "payment_rate",
          "type": "int256"
        },
        {
          "name": "payment_frequency",
          "type": "string"
        },
        {
          "name": "payment_due",
          "type": "string"
        },
        {
          "name": "employer_id",
          "type": "uint256"
        },
        {
          "name": "contractor_id",
          "type": "uint256"
        },
        {
          "name": "proposal_id",
          "type": "uint256"
        }
      ],
      "name": "addContractDetails",
      "outputs": [],
      "payable": false,
      "stateMutability": "nonpayable",
      "type": "function",
      "signature": "0xa1c36202"
    },
    {
      "constant": false,
      "inputs": [
        {
          "name": "_id",
          "type": "uint256"
        },
        {
          "name": "addr",
          "type": "address"
        },
        {
          "name": "withdrawal_date",
          "type": "string"
        },
        {
          "name": "estimated_arrival",
          "type": "string"
        },
        {
          "name": "recipient",
          "type": "address"
        },
        {
          "name": "money",
          "type": "uint256"
        }
      ],
      "name": "pay",
      "outputs": [],
      "payable": true,
      "stateMutability": "payable",
      "type": "function",
      "signature": "0x90f97afe"
    },
    {
      "constant": false,
      "inputs": [
        {
          "name": "_id",
          "type": "uint256"
        },
        {
          "name": "status",
          "type": "string"
        }
      ],
      "name": "setContractStatus",
      "outputs": [],
      "payable": false,
      "stateMutability": "nonpayable",
      "type": "function",
      "signature": "0x243b67fe"
    },
    {
      "constant": false,
      "inputs": [
        {
          "name": "_id",
          "type": "uint256"
        },
        {
          "name": "status",
          "type": "string"
        },
        {
          "name": "contract_type",
          "type": "string"
        },
        {
          "name": "scope_of_work",
          "type": "string"
        },
        {
          "name": "start_date",
          "type": "string"
        },
        {
          "name": "end_date",
          "type": "string"
        },
        {
          "name": "currency",
          "type": "string"
        },
        {
          "name": "payment_rate",
          "type": "int256"
        }
      ],
      "name": "updateContract",
      "outputs": [],
      "payable": false,
      "stateMutability": "nonpayable",
      "type": "function",
      "signature": "0xaea0496e"
    },
    {
      "constant": true,
      "inputs": [
        {
          "name": "index",
          "type": "uint256"
        }
      ],
      "name": "getContract",
      "outputs": [
        {
          "name": "",
          "type": "string"
        },
        {
          "name": "",
          "type": "string"
        },
        {
          "name": "",
          "type": "string"
        },
        {
          "name": "",
          "type": "string"
        },
        {
          "name": "",
          "type": "string"
        },
        {
          "name": "",
          "type": "string"
        },
        {
          "name": "",
          "type": "string"
        }
      ],
      "payable": false,
      "stateMutability": "view",
      "type": "function",
      "signature": "0x6ebc8c86"
    },
    {
      "constant": true,
      "inputs": [
        {
          "name": "index",
          "type": "uint256"
        }
      ],
      "name": "getContractDetails",
      "outputs": [
        {
          "name": "",
          "type": "string"
        },
        {
          "name": "",
          "type": "int256"
        },
        {
          "name": "",
          "type": "string"
        },
        {
          "name": "",
          "type": "string"
        },
        {
          "name": "",
          "type": "uint256"
        },
        {
          "name": "",
          "type": "uint256"
        },
        {
          "name": "",
          "type": "uint256"
        }
      ],
      "payable": false,
      "stateMutability": "view",
      "type": "function",
      "signature": "0x4d6d6a9c"
    },
    {
      "constant": true,
      "inputs": [],
      "name": "showBalance",
      "outputs": [
        {
          "name": "",
          "type": "uint256"
        }
      ],
      "payable": false,
      "stateMutability": "view",
      "type": "function",
      "signature": "0x81b2d07b"
    },
    {
      "constant": true,
      "inputs": [],
      "name": "getAddress",
      "outputs": [
        {
          "name": "",
          "type": "address"
        }
      ],
      "payable": false,
      "stateMutability": "view",
      "type": "function",
      "signature": "0x38cc4831"
    }
  ],
  "bytecode": "0x6080604052600080553480156200001557600080fd5b50604080518082018252600a8082527f436f6e74726163746f720000000000000000000000000000000000000000000060208084019190915283518085018552600d81527f5465737420436f6e7472616374000000000000000000000000000000000000008183015284518086018652601181527f4261636b656e6420446576656c6f7065720000000000000000000000000000008184015285518087018752601381527f426f7468207061727469657320616772656564000000000000000000000000008185015286518088018852600b81527f3520656e64706f696e747300000000000000000000000000000000000000000081860152875180890189528681527f31352f30352f3230323200000000000000000000000000000000000000000000818701528851808a018a529687527f32302f30352f3230323200000000000000000000000000000000000000000000878701528851808a018a52600381527f434f500000000000000000000000000000000000000000000000000000000000818801528951808b018b52600781527f4d6f6e74686c7900000000000000000000000000000000000000000000000000818901528a51808c01909b5260028b527f3330000000000000000000000000000000000000000000000000000000000000978b01979097526200022b999597949693959294919391929091621b7740916001808064010000000062000231810204565b62000a7a565b6200024b8e8e8e8e8e8e8e64010000000062000275810204565b6200026587878787878787640100000000620006d1810204565b5050505050505050505050505050565b6000805460010190556200028862000949565b6000805480835260208084018b815260408086018c9052606086018b9052608086018a905260a0860189905260c0860188905260e086018790529284526001808352929093208451815592518051859493620002ea939085019201906200098f565b5060408201518051620003089160028401916020909101906200098f565b5060608201518051620003269160038401916020909101906200098f565b5060808201518051620003449160048401916020909101906200098f565b5060a08201518051620003629160058401916020909101906200098f565b5060c08201518051620003809160068401916020909101906200098f565b5060e082015180516200039e9160078401916020909101906200098f565b509050507f885fcc95c75581ffe21d0835a75217dbc27eeac68b459842550369ce95abae4760005489898989898989604051808981526020018060200180602001806020018060200180602001806020018060200188810388528f818151815260200191508051906020019080838360005b838110156200042a57818101518382015260200162000410565b50505050905090810190601f168015620004585780820380516001836020036101000a031916815260200191505b5088810387528e818151815260200191508051906020019080838360005b838110156200049057818101518382015260200162000476565b50505050905090810190601f168015620004be5780820380516001836020036101000a031916815260200191505b5088810386528d5181528d516020918201918f019080838360005b83811015620004f3578181015183820152602001620004d9565b50505050905090810190601f168015620005215780820380516001836020036101000a031916815260200191505b5088810385528c5181528c516020918201918e019080838360005b83811015620005565781810151838201526020016200053c565b50505050905090810190601f168015620005845780820380516001836020036101000a031916815260200191505b5088810384528b5181528b516020918201918d019080838360005b83811015620005b95781810151838201526020016200059f565b50505050905090810190601f168015620005e75780820380516001836020036101000a031916815260200191505b5088810383528a5181528a516020918201918c019080838360005b838110156200061c57818101518382015260200162000602565b50505050905090810190601f1680156200064a5780820380516001836020036101000a031916815260200191505b5088810382528951815289516020918201918b019080838360005b838110156200067f57818101518382015260200162000665565b50505050905090810190601f168015620006ad5780820380516001836020036101000a031916815260200191505b509f5050505050505050505050505050505060405180910390a15050505050505050565b620006db62000a14565b6000805480835260208084018b815260408086018c9052606086018b9052608086018a905260a0860189905260c0860188905260e086018790529284526002825291909220835181559051805184936200073d9260018501929101906200098f565b506040820151600282015560608201518051620007659160038401916020909101906200098f565b5060808201518051620007839160048401916020909101906200098f565b5060a0820151816005015560c0820151816006015560e082015181600701559050507f5ee338db78855874b54df61d10b711be7658a86fb1354b2a065dd122d9b1dce6600054898989898989896040518089815260200180602001888152602001806020018060200187815260200186815260200185815260200184810384528b818151815260200191508051906020019080838360005b83811015620008355781810151838201526020016200081b565b50505050905090810190601f168015620008635780820380516001836020036101000a031916815260200191505b5084810383528951815289516020918201918b019080838360005b83811015620008985781810151838201526020016200087e565b50505050905090810190601f168015620008c65780820380516001836020036101000a031916815260200191505b5084810382528851815288516020918201918a019080838360005b83811015620008fb578181015183820152602001620008e1565b50505050905090810190601f168015620009295780820380516001836020036101000a031916815260200191505b509b50505050505050505050505060405180910390a15050505050505050565b6101006040519081016040528060008152602001606081526020016060815260200160608152602001606081526020016060815260200160608152602001606081525090565b828054600181600116156101000203166002900490600052602060002090601f016020900481019282601f10620009d257805160ff191683800117855562000a02565b8280016001018555821562000a02579182015b8281111562000a02578251825591602001919060010190620009e5565b5062000a1092915062000a5a565b5090565b6101006040519081016040528060008152602001606081526020016000815260200160608152602001606081526020016000815260200160008152602001600081525090565b62000a7791905b8082111562000a10576000815560010162000a61565b90565b61496d8062000a8a6000396000f3fe6080604052600436106100c45763ffffffff7c01000000000000000000000000000000000000000000000000000000006000350416631c87fb2181146100c6578063243b67fe1461025757806338cc483114610311578063474da79a1461034f5780634d6d6a9c1461065f5780636ebc8c86146107e95780637239d6be14610af257806381b2d07b14610ecf5780638736381a14610ef657806390f97afe14610f0b578063a1c3620214611075578063aea0496e14611249578063f971238c146115a9575b005b3480156100d257600080fd5b506100f0600480360360208110156100e957600080fd5b5035611b2f565b6040518089815260200180602001888152602001806020018060200187815260200186815260200185815260200184810384528b818151815260200191508051906020019080838360005b8381101561015357818101518382015260200161013b565b50505050905090810190601f1680156101805780820380516001836020036101000a031916815260200191505b5084810383528951815289516020918201918b019080838360005b838110156101b357818101518382015260200161019b565b50505050905090810190601f1680156101e05780820380516001836020036101000a031916815260200191505b5084810382528851815288516020918201918a019080838360005b838110156102135781810151838201526020016101fb565b50505050905090810190601f1680156102405780820380516001836020036101000a031916815260200191505b509b50505050505050505050505060405180910390f35b34801561026357600080fd5b506100c46004803603604081101561027a57600080fd5b8135919081019060408101602082013564010000000081111561029c57600080fd5b8201836020820111156102ae57600080fd5b803590602001918460018302840111640100000000831117156102d057600080fd5b91908080601f016020809104026020016040519081016040528093929190818152602001838380828437600092019190915250929550611d0e945050505050565b34801561031d57600080fd5b506103266122cd565b6040805173ffffffffffffffffffffffffffffffffffffffff9092168252519081900360200190f35b34801561035b57600080fd5b506103796004803603602081101561037257600080fd5b50356122d2565b604051808981526020018060200180602001806020018060200180602001806020018060200188810388528f818151815260200191508051906020019080838360005b838110156103d45781810151838201526020016103bc565b50505050905090810190601f1680156104015780820380516001836020036101000a031916815260200191505b5088810387528e818151815260200191508051906020019080838360005b8381101561043757818101518382015260200161041f565b50505050905090810190601f1680156104645780820380516001836020036101000a031916815260200191505b5088810386528d5181528d516020918201918f019080838360005b8381101561049757818101518382015260200161047f565b50505050905090810190601f1680156104c45780820380516001836020036101000a031916815260200191505b5088810385528c5181528c516020918201918e019080838360005b838110156104f75781810151838201526020016104df565b50505050905090810190601f1680156105245780820380516001836020036101000a031916815260200191505b5088810384528b5181528b516020918201918d019080838360005b8381101561055757818101518382015260200161053f565b50505050905090810190601f1680156105845780820380516001836020036101000a031916815260200191505b5088810383528a5181528a516020918201918c019080838360005b838110156105b757818101518382015260200161059f565b50505050905090810190601f1680156105e45780820380516001836020036101000a031916815260200191505b5088810382528951815289516020918201918b019080838360005b838110156106175781810151838201526020016105ff565b50505050905090810190601f1680156106445780820380516001836020036101000a031916815260200191505b509f5050505050505050505050505050505060405180910390f35b34801561066b57600080fd5b506106896004803603602081101561068257600080fd5b50356126da565b6040518080602001888152602001806020018060200187815260200186815260200185815260200184810384528b818151815260200191508051906020019080838360005b838110156106e65781810151838201526020016106ce565b50505050905090810190601f1680156107135780820380516001836020036101000a031916815260200191505b5084810383528951815289516020918201918b019080838360005b8381101561074657818101518382015260200161072e565b50505050905090810190601f1680156107735780820380516001836020036101000a031916815260200191505b5084810382528851815288516020918201918a019080838360005b838110156107a657818101518382015260200161078e565b50505050905090810190601f1680156107d35780820380516001836020036101000a031916815260200191505b509a505050505050505050505060405180910390f35b3480156107f557600080fd5b506108136004803603602081101561080c57600080fd5b50356128de565b604051808060200180602001806020018060200180602001806020018060200188810388528f818151815260200191508051906020019080838360005b83811015610868578181015183820152602001610850565b50505050905090810190601f1680156108955780820380516001836020036101000a031916815260200191505b5088810387528e818151815260200191508051906020019080838360005b838110156108cb5781810151838201526020016108b3565b50505050905090810190601f1680156108f85780820380516001836020036101000a031916815260200191505b5088810386528d5181528d516020918201918f019080838360005b8381101561092b578181015183820152602001610913565b50505050905090810190601f1680156109585780820380516001836020036101000a031916815260200191505b5088810385528c5181528c516020918201918e019080838360005b8381101561098b578181015183820152602001610973565b50505050905090810190601f1680156109b85780820380516001836020036101000a031916815260200191505b5088810384528b5181528b516020918201918d019080838360005b838110156109eb5781810151838201526020016109d3565b50505050905090810190601f168015610a185780820380516001836020036101000a031916815260200191505b5088810383528a5181528a516020918201918c019080838360005b83811015610a4b578181015183820152602001610a33565b50505050905090810190601f168015610a785780820380516001836020036101000a031916815260200191505b5088810382528951815289516020918201918b019080838360005b83811015610aab578181015183820152602001610a93565b50505050905090810190601f168015610ad85780820380516001836020036101000a031916815260200191505b509e50505050505050505050505050505060405180910390f35b348015610afe57600080fd5b506100c4600480360360e0811015610b1557600080fd5b810190602081018135640100000000811115610b3057600080fd5b820183602082011115610b4257600080fd5b80359060200191846001830284011164010000000083111715610b6457600080fd5b91908080601f0160208091040260200160405190810160405280939291908181526020018383808284376000920191909152509295949360208101935035915050640100000000811115610bb757600080fd5b820183602082011115610bc957600080fd5b80359060200191846001830284011164010000000083111715610beb57600080fd5b91908080601f0160208091040260200160405190810160405280939291908181526020018383808284376000920191909152509295949360208101935035915050640100000000811115610c3e57600080fd5b820183602082011115610c5057600080fd5b80359060200191846001830284011164010000000083111715610c7257600080fd5b91908080601f0160208091040260200160405190810160405280939291908181526020018383808284376000920191909152509295949360208101935035915050640100000000811115610cc557600080fd5b820183602082011115610cd757600080fd5b80359060200191846001830284011164010000000083111715610cf957600080fd5b91908080601f0160208091040260200160405190810160405280939291908181526020018383808284376000920191909152509295949360208101935035915050640100000000811115610d4c57600080fd5b820183602082011115610d5e57600080fd5b80359060200191846001830284011164010000000083111715610d8057600080fd5b91908080601f0160208091040260200160405190810160405280939291908181526020018383808284376000920191909152509295949360208101935035915050640100000000811115610dd357600080fd5b820183602082011115610de557600080fd5b80359060200191846001830284011164010000000083111715610e0757600080fd5b91908080601f0160208091040260200160405190810160405280939291908181526020018383808284376000920191909152509295949360208101935035915050640100000000811115610e5a57600080fd5b820183602082011115610e6c57600080fd5b80359060200191846001830284011164010000000083111715610e8e57600080fd5b91908080601f016020809104026020016040519081016040528093929190818152602001838380828437600092019190915250929550612d15945050505050565b348015610edb57600080fd5b50610ee461314c565b60408051918252519081900360200190f35b348015610f0257600080fd5b50610ee4613151565b6100c4600480360360c0811015610f2157600080fd5b81359173ffffffffffffffffffffffffffffffffffffffff60208201351691810190606081016040820135640100000000811115610f5e57600080fd5b820183602082011115610f7057600080fd5b80359060200191846001830284011164010000000083111715610f9257600080fd5b91908080601f0160208091040260200160405190810160405280939291908181526020018383808284376000920191909152509295949360208101935035915050640100000000811115610fe557600080fd5b820183602082011115610ff757600080fd5b8035906020019184600183028401116401000000008311171561101957600080fd5b91908080601f0160208091040260200160405190810160405280939291908181526020018383808284376000920191909152509295505073ffffffffffffffffffffffffffffffffffffffff8335169350505060200135613157565b34801561108157600080fd5b506100c4600480360360e081101561109857600080fd5b8101906020810181356401000000008111156110b357600080fd5b8201836020820111156110c557600080fd5b803590602001918460018302840111640100000000831117156110e757600080fd5b91908080601f0160208091040260200160405190810160405280939291908181526020018383808284376000920191909152509295843595909490935060408101925060200135905064010000000081111561114257600080fd5b82018360208201111561115457600080fd5b8035906020019184600183028401116401000000008311171561117657600080fd5b91908080601f01602080910402602001604051908101604052809392919081815260200183838082843760009201919091525092959493602081019350359150506401000000008111156111c957600080fd5b8201836020820111156111db57600080fd5b803590602001918460018302840111640100000000831117156111fd57600080fd5b91908080601f0160208091040260200160405190810160405280939291908181526020018383808284376000920191909152509295505082359350505060208101359060400135613ace565b34801561125557600080fd5b506100c4600480360361010081101561126d57600080fd5b8135919081019060408101602082013564010000000081111561128f57600080fd5b8201836020820111156112a157600080fd5b803590602001918460018302840111640100000000831117156112c357600080fd5b91908080601f016020809104026020016040519081016040528093929190818152602001838380828437600092019190915250929594936020810193503591505064010000000081111561131657600080fd5b82018360208201111561132857600080fd5b8035906020019184600183028401116401000000008311171561134a57600080fd5b91908080601f016020809104026020016040519081016040528093929190818152602001838380828437600092019190915250929594936020810193503591505064010000000081111561139d57600080fd5b8201836020820111156113af57600080fd5b803590602001918460018302840111640100000000831117156113d157600080fd5b91908080601f016020809104026020016040519081016040528093929190818152602001838380828437600092019190915250929594936020810193503591505064010000000081111561142457600080fd5b82018360208201111561143657600080fd5b8035906020019184600183028401116401000000008311171561145857600080fd5b91908080601f01602080910402602001604051908101604052809392919081815260200183838082843760009201919091525092959493602081019350359150506401000000008111156114ab57600080fd5b8201836020820111156114bd57600080fd5b803590602001918460018302840111640100000000831117156114df57600080fd5b91908080601f016020809104026020016040519081016040528093929190818152602001838380828437600092019190915250929594936020810193503591505064010000000081111561153257600080fd5b82018360208201111561154457600080fd5b8035906020019184600183028401116401000000008311171561156657600080fd5b91908080601f0160208091040260200160405190810160405280939291908181526020018383808284376000920191909152509295505091359250613d35915050565b3480156115b557600080fd5b506100c460048036036101c08110156115cd57600080fd5b8101906020810181356401000000008111156115e857600080fd5b8201836020820111156115fa57600080fd5b8035906020019184600183028401116401000000008311171561161c57600080fd5b91908080601f016020809104026020016040519081016040528093929190818152602001838380828437600092019190915250929594936020810193503591505064010000000081111561166f57600080fd5b82018360208201111561168157600080fd5b803590602001918460018302840111640100000000831117156116a357600080fd5b91908080601f01602080910402602001604051908101604052809392919081815260200183838082843760009201919091525092959493602081019350359150506401000000008111156116f657600080fd5b82018360208201111561170857600080fd5b8035906020019184600183028401116401000000008311171561172a57600080fd5b91908080601f016020809104026020016040519081016040528093929190818152602001838380828437600092019190915250929594936020810193503591505064010000000081111561177d57600080fd5b82018360208201111561178f57600080fd5b803590602001918460018302840111640100000000831117156117b157600080fd5b91908080601f016020809104026020016040519081016040528093929190818152602001838380828437600092019190915250929594936020810193503591505064010000000081111561180457600080fd5b82018360208201111561181657600080fd5b8035906020019184600183028401116401000000008311171561183857600080fd5b91908080601f016020809104026020016040519081016040528093929190818152602001838380828437600092019190915250929594936020810193503591505064010000000081111561188b57600080fd5b82018360208201111561189d57600080fd5b803590602001918460018302840111640100000000831117156118bf57600080fd5b91908080601f016020809104026020016040519081016040528093929190818152602001838380828437600092019190915250929594936020810193503591505064010000000081111561191257600080fd5b82018360208201111561192457600080fd5b8035906020019184600183028401116401000000008311171561194657600080fd5b91908080601f016020809104026020016040519081016040528093929190818152602001838380828437600092019190915250929594936020810193503591505064010000000081111561199957600080fd5b8201836020820111156119ab57600080fd5b803590602001918460018302840111640100000000831117156119cd57600080fd5b91908080601f01602080910402602001604051908101604052809392919081815260200183838082843760009201919091525092958435959094909350604081019250602001359050640100000000811115611a2857600080fd5b820183602082011115611a3a57600080fd5b80359060200191846001830284011164010000000083111715611a5c57600080fd5b91908080601f0160208091040260200160405190810160405280939291908181526020018383808284376000920191909152509295949360208101935035915050640100000000811115611aaf57600080fd5b820183602082011115611ac157600080fd5b80359060200191846001830284011164010000000083111715611ae357600080fd5b91908080601f01602080910402602001604051908101604052809392919081815260200183838082843760009201919091525092955050823593505050602081013590604001356147ef565b60026020818152600092835260409283902080546001808301805487519281161561010002600019011695909504601f8101859004850282018501909652858152909491939092909190830182828015611bca5780601f10611b9f57610100808354040283529160200191611bca565b820191906000526020600020905b815481529060010190602001808311611bad57829003601f168201915b505050506002838101546003850180546040805160206001841615610100026000190190931695909504601f810183900483028601830190915280855295969295929450909190830182828015611c625780601f10611c3757610100808354040283529160200191611c62565b820191906000526020600020905b815481529060010190602001808311611c4557829003601f168201915b5050505060048301805460408051602060026001851615610100026000190190941693909304601f8101849004840282018401909252818152949594935090830182828015611cf25780601f10611cc757610100808354040283529160200191611cf2565b820191906000526020600020905b815481529060010190602001808311611cd557829003601f168201915b5050505050908060050154908060060154908060070154905088565b611d1661481d565b600083815260016020818152604092839020835161010080820186528254825282850180548751600297821615909302600019011695909504601f8101859004850282018501909652858152909491938584019391929091830182828015611dbf5780601f10611d9457610100808354040283529160200191611dbf565b820191906000526020600020905b815481529060010190602001808311611da257829003601f168201915b5050509183525050600282810180546040805160206001841615610100026000190190931694909404601f81018390048302850183019091528084529381019390830182828015611e515780601f10611e2657610100808354040283529160200191611e51565b820191906000526020600020905b815481529060010190602001808311611e3457829003601f168201915b505050918352505060038201805460408051602060026001851615610100026000190190941693909304601f8101849004840282018401909252818152938201939291830182828015611ee55780601f10611eba57610100808354040283529160200191611ee5565b820191906000526020600020905b815481529060010190602001808311611ec857829003601f168201915b505050918352505060048201805460408051602060026001851615610100026000190190941693909304601f8101849004840282018401909252818152938201939291830182828015611f795780601f10611f4e57610100808354040283529160200191611f79565b820191906000526020600020905b815481529060010190602001808311611f5c57829003601f168201915b505050918352505060058201805460408051602060026001851615610100026000190190941693909304601f810184900484028201840190925281815293820193929183018282801561200d5780601f10611fe25761010080835404028352916020019161200d565b820191906000526020600020905b815481529060010190602001808311611ff057829003601f168201915b505050918352505060068201805460408051602060026001851615610100026000190190941693909304601f81018490048402820184019092528181529382019392918301828280156120a15780601f10612076576101008083540402835291602001916120a1565b820191906000526020600020905b81548152906001019060200180831161208457829003601f168201915b505050918352505060078201805460408051602060026001851615610100026000190190941693909304601f81018490048402820184019092528181529382019392918301828280156121355780601f1061210a57610100808354040283529160200191612135565b820191906000526020600020905b81548152906001019060200180831161211857829003601f168201915b50505091909252505050608081018390526000848152600160208181526040909220835181558284015180519495508594919361217793850192910190614863565b5060408201518051612193916002840191602090910190614863565b50606082015180516121af916003840191602090910190614863565b50608082015180516121cb916004840191602090910190614863565b5060a082015180516121e7916005840191602090910190614863565b5060c08201518051612203916006840191602090910190614863565b5060e0820151805161221f916007840191602090910190614863565b509050507f87e2651bc29355533cdeaebe57e6a5dc05b764bdd16e1010aef88e173edfdbc88382608001516040518083815260200180602001828103825283818151815260200191508051906020019080838360005b8381101561228d578181015183820152602001612275565b50505050905090810190601f1680156122ba5780820380516001836020036101000a031916815260200191505b50935050505060405180910390a1505050565b305b90565b600160208181526000928352604092839020805481840180548651600296821615610100026000190190911695909504601f8101859004850286018501909652858552909491939290919083018282801561236e5780601f106123435761010080835404028352916020019161236e565b820191906000526020600020905b81548152906001019060200180831161235157829003601f168201915b50505060028085018054604080516020601f60001961010060018716150201909416959095049283018590048502810185019091528181529596959450909250908301828280156124005780601f106123d557610100808354040283529160200191612400565b820191906000526020600020905b8154815290600101906020018083116123e357829003601f168201915b5050505060038301805460408051602060026001851615610100026000190190941693909304601f81018490048402820184019092528181529495949350908301828280156124905780601f1061246557610100808354040283529160200191612490565b820191906000526020600020905b81548152906001019060200180831161247357829003601f168201915b5050505060048301805460408051602060026001851615610100026000190190941693909304601f81018490048402820184019092528181529495949350908301828280156125205780601f106124f557610100808354040283529160200191612520565b820191906000526020600020905b81548152906001019060200180831161250357829003601f168201915b5050505060058301805460408051602060026001851615610100026000190190941693909304601f81018490048402820184019092528181529495949350908301828280156125b05780601f10612585576101008083540402835291602001916125b0565b820191906000526020600020905b81548152906001019060200180831161259357829003601f168201915b5050505060068301805460408051602060026001851615610100026000190190941693909304601f81018490048402820184019092528181529495949350908301828280156126405780601f1061261557610100808354040283529160200191612640565b820191906000526020600020905b81548152906001019060200180831161262357829003601f168201915b5050505060078301805460408051602060026001851615610100026000190190941693909304601f81018490048402820184019092528181529495949350908301828280156126d05780601f106126a5576101008083540402835291602001916126d0565b820191906000526020600020905b8154815290600101906020018083116126b357829003601f168201915b5050505050905088565b6000818152600260208181526040808420808401546005820154600683015460078401546001808601805488519281161561010002600019011699909904601f8101899004890282018901909752868152606099988a9889988b98899889989497909660038301966004909301959491939092918991908301828280156127a25780601f10612777576101008083540402835291602001916127a2565b820191906000526020600020905b81548152906001019060200180831161278557829003601f168201915b5050885460408051602060026001851615610100026000190190941693909304601f8101849004840282018401909252818152959c508a9450925084019050828280156128305780601f1061280557610100808354040283529160200191612830565b820191906000526020600020905b81548152906001019060200180831161281357829003601f168201915b5050875460408051602060026001851615610100026000190190941693909304601f8101849004840282018401909252818152959a50899450925084019050828280156128be5780601f10612893576101008083540402835291602001916128be565b820191906000526020600020905b8154815290600101906020018083116128a157829003601f168201915b505050505093509650965096509650965096509650919395979092949650565b600081815260016020818152604092839020808301805485516002958216156101000260001901909116859004601f810185900485028201850190965285815260609586958695869586958695869591948301936003840193600481019360058201936006830193600790930192909189918301828280156129a15780601f10612976576101008083540402835291602001916129a1565b820191906000526020600020905b81548152906001019060200180831161298457829003601f168201915b5050895460408051602060026001851615610100026000190190941693909304601f8101849004840282018401909252818152959c508b945092508401905082828015612a2f5780601f10612a0457610100808354040283529160200191612a2f565b820191906000526020600020905b815481529060010190602001808311612a1257829003601f168201915b5050885460408051602060026001851615610100026000190190941693909304601f8101849004840282018401909252818152959b508a945092508401905082828015612abd5780601f10612a9257610100808354040283529160200191612abd565b820191906000526020600020905b815481529060010190602001808311612aa057829003601f168201915b5050875460408051602060026001851615610100026000190190941693909304601f8101849004840282018401909252818152959a5089945092508401905082828015612b4b5780601f10612b2057610100808354040283529160200191612b4b565b820191906000526020600020905b815481529060010190602001808311612b2e57829003601f168201915b5050865460408051602060026001851615610100026000190190941693909304601f810184900484028201840190925281815295995088945092508401905082828015612bd95780601f10612bae57610100808354040283529160200191612bd9565b820191906000526020600020905b815481529060010190602001808311612bbc57829003601f168201915b5050855460408051602060026001851615610100026000190190941693909304601f810184900484028201840190925281815295985087945092508401905082828015612c675780601f10612c3c57610100808354040283529160200191612c67565b820191906000526020600020905b815481529060010190602001808311612c4a57829003601f168201915b5050845460408051602060026001851615610100026000190190941693909304601f810184900484028201840190925281815295975086945092508401905082828015612cf55780601f10612cca57610100808354040283529160200191612cf5565b820191906000526020600020905b815481529060010190602001808311612cd857829003601f168201915b505050505090509650965096509650965096509650919395979092949650565b600080546001019055612d2661481d565b6000805480835260208084018b815260408086018c9052606086018b9052608086018a905260a0860189905260c0860188905260e086018790529284526001808352929093208451815592518051859493612d8693908501920190614863565b5060408201518051612da2916002840191602090910190614863565b5060608201518051612dbe916003840191602090910190614863565b5060808201518051612dda916004840191602090910190614863565b5060a08201518051612df6916005840191602090910190614863565b5060c08201518051612e12916006840191602090910190614863565b5060e08201518051612e2e916007840191602090910190614863565b509050507f885fcc95c75581ffe21d0835a75217dbc27eeac68b459842550369ce95abae4760005489898989898989604051808981526020018060200180602001806020018060200180602001806020018060200188810388528f818151815260200191508051906020019080838360005b83811015612eb8578181015183820152602001612ea0565b50505050905090810190601f168015612ee55780820380516001836020036101000a031916815260200191505b5088810387528e818151815260200191508051906020019080838360005b83811015612f1b578181015183820152602001612f03565b50505050905090810190601f168015612f485780820380516001836020036101000a031916815260200191505b5088810386528d5181528d516020918201918f019080838360005b83811015612f7b578181015183820152602001612f63565b50505050905090810190601f168015612fa85780820380516001836020036101000a031916815260200191505b5088810385528c5181528c516020918201918e019080838360005b83811015612fdb578181015183820152602001612fc3565b50505050905090810190601f1680156130085780820380516001836020036101000a031916815260200191505b5088810384528b5181528b516020918201918d019080838360005b8381101561303b578181015183820152602001613023565b50505050905090810190601f1680156130685780820380516001836020036101000a031916815260200191505b5088810383528a5181528a516020918201918c019080838360005b8381101561309b578181015183820152602001613083565b50505050905090810190601f1680156130c85780820380516001836020036101000a031916815260200191505b5088810382528951815289516020918201918b019080838360005b838110156130fb5781810151838201526020016130e3565b50505050905090810190601f1680156131285780820380516001836020036101000a031916815260200191505b509f5050505050505050505050505050505060405180910390a15050505050505050565b303190565b60005481565b61315f61481d565b600087815260016020818152604092839020835161010080820186528254825282850180548751600297821615909302600019011695909504601f81018590048502820185019096528581529094919385840193919290918301828280156132085780601f106131dd57610100808354040283529160200191613208565b820191906000526020600020905b8154815290600101906020018083116131eb57829003601f168201915b5050509183525050600282810180546040805160206001841615610100026000190190931694909404601f8101839004830285018301909152808452938101939083018282801561329a5780601f1061326f5761010080835404028352916020019161329a565b820191906000526020600020905b81548152906001019060200180831161327d57829003601f168201915b505050918352505060038201805460408051602060026001851615610100026000190190941693909304601f810184900484028201840190925281815293820193929183018282801561332e5780601f106133035761010080835404028352916020019161332e565b820191906000526020600020905b81548152906001019060200180831161331157829003601f168201915b505050918352505060048201805460408051602060026001851615610100026000190190941693909304601f81018490048402820184019092528181529382019392918301828280156133c25780601f10613397576101008083540402835291602001916133c2565b820191906000526020600020905b8154815290600101906020018083116133a557829003601f168201915b505050918352505060058201805460408051602060026001851615610100026000190190941693909304601f81018490048402820184019092528181529382019392918301828280156134565780601f1061342b57610100808354040283529160200191613456565b820191906000526020600020905b81548152906001019060200180831161343957829003601f168201915b505050918352505060068201805460408051602060026001851615610100026000190190941693909304601f81018490048402820184019092528181529382019392918301828280156134ea5780601f106134bf576101008083540402835291602001916134ea565b820191906000526020600020905b8154815290600101906020018083116134cd57829003601f168201915b505050918352505060078201805460408051602060026001851615610100026000190190941693909304601f810184900484028201840190925281815293820193929183018282801561357e5780601f106135535761010080835404028352916020019161357e565b820191906000526020600020905b81548152906001019060200180831161356157829003601f168201915b50505050508152505090506135916148e1565b6000888152600260208181526040928390208351610100808201865282548252600180840180548851928116159093026000190190921695909504601f8101859004850286018501909652858552909491938584019390929083018282801561363b5780601f106136105761010080835404028352916020019161363b565b820191906000526020600020905b81548152906001019060200180831161361e57829003601f168201915b505050918352505060028281015460208084019190915260038401805460408051601f600019610100600186161502019093169590950491820184900484028501840181528185529094019390918301828280156136da5780601f106136af576101008083540402835291602001916136da565b820191906000526020600020905b8154815290600101906020018083116136bd57829003601f168201915b505050918352505060048201805460408051602060026001851615610100026000190190941693909304601f810184900484028201840190925281815293820193929183018282801561376e5780601f106137435761010080835404028352916020019161376e565b820191906000526020600020905b81548152906001019060200180831161375157829003601f168201915b50505050508152602001600582015481526020016006820154815260200160078201548152505090508673ffffffffffffffffffffffffffffffffffffffff16636f4436a6878784604001518c6040518563ffffffff167c01000000000000000000000000000000000000000000000000000000000281526004018080602001806020018060200186815260200185815260200180602001858103855289818151815260200191508051906020019080838360005b8381101561383b578181015183820152602001613823565b50505050905090810190601f1680156138685780820380516001836020036101000a031916815260200191505b5085810384528851815288516020918201918a019080838360005b8381101561389b578181015183820152602001613883565b50505050905090810190601f1680156138c85780820380516001836020036101000a031916815260200191505b50858103835260068152602001807f43727970746f0000000000000000000000000000000000000000000000000000815250602001858103825260048152602001807f506169640000000000000000000000000000000000000000000000000000000081525060200198505050505050505050600060405180830381600087803b15801561395557600080fd5b505af1158015613969573d6000803e3d6000fd5b505060405173ffffffffffffffffffffffffffffffffffffffff8716925085156108fc02915085906000818181858888f193505050501580156139b0573d6000803e3d6000fd5b50604080518082018252600681527f4143544956450000000000000000000000000000000000000000000000000000602080830191909152608085019190915260008a815260018083529290208451815584820151805186949293613a19938501920190614863565b5060408201518051613a35916002840191602090910190614863565b5060608201518051613a51916003840191602090910190614863565b5060808201518051613a6d916004840191602090910190614863565b5060a08201518051613a89916005840191602090910190614863565b5060c08201518051613aa5916006840191602090910190614863565b5060e08201518051613ac1916007840191602090910190614863565b5050505050505050505050565b613ad66148e1565b6000805480835260208084018b815260408086018c9052606086018b9052608086018a905260a0860189905260c0860188905260e08601879052928452600282529190922083518155905180518493613b36926001850192910190614863565b506040820151600282015560608201518051613b5c916003840191602090910190614863565b5060808201518051613b78916004840191602090910190614863565b5060a0820151816005015560c0820151816006015560e082015181600701559050507f5ee338db78855874b54df61d10b711be7658a86fb1354b2a065dd122d9b1dce6600054898989898989896040518089815260200180602001888152602001806020018060200187815260200186815260200185815260200184810384528b818151815260200191508051906020019080838360005b83811015613c28578181015183820152602001613c10565b50505050905090810190601f168015613c555780820380516001836020036101000a031916815260200191505b5084810383528951815289516020918201918b019080838360005b83811015613c88578181015183820152602001613c70565b50505050905090810190601f168015613cb55780820380516001836020036101000a031916815260200191505b5084810382528851815288516020918201918a019080838360005b83811015613ce8578181015183820152602001613cd0565b50505050905090810190601f168015613d155780820380516001836020036101000a031916815260200191505b509b50505050505050505050505060405180910390a15050505050505050565b613d3d61481d565b600089815260016020818152604092839020835161010080820186528254825282850180548751600297821615909302600019011695909504601f8101859004850282018501909652858152909491938584019391929091830182828015613de65780601f10613dbb57610100808354040283529160200191613de6565b820191906000526020600020905b815481529060010190602001808311613dc957829003601f168201915b5050509183525050600282810180546040805160206001841615610100026000190190931694909404601f81018390048302850183019091528084529381019390830182828015613e785780601f10613e4d57610100808354040283529160200191613e78565b820191906000526020600020905b815481529060010190602001808311613e5b57829003601f168201915b505050918352505060038201805460408051602060026001851615610100026000190190941693909304601f8101849004840282018401909252818152938201939291830182828015613f0c5780601f10613ee157610100808354040283529160200191613f0c565b820191906000526020600020905b815481529060010190602001808311613eef57829003601f168201915b505050918352505060048201805460408051602060026001851615610100026000190190941693909304601f8101849004840282018401909252818152938201939291830182828015613fa05780601f10613f7557610100808354040283529160200191613fa0565b820191906000526020600020905b815481529060010190602001808311613f8357829003601f168201915b505050918352505060058201805460408051602060026001851615610100026000190190941693909304601f81018490048402820184019092528181529382019392918301828280156140345780601f1061400957610100808354040283529160200191614034565b820191906000526020600020905b81548152906001019060200180831161401757829003601f168201915b505050918352505060068201805460408051602060026001851615610100026000190190941693909304601f81018490048402820184019092528181529382019392918301828280156140c85780601f1061409d576101008083540402835291602001916140c8565b820191906000526020600020905b8154815290600101906020018083116140ab57829003601f168201915b505050918352505060078201805460408051602060026001851615610100026000190190941693909304601f810184900484028201840190925281815293820193929183018282801561415c5780601f106141315761010080835404028352916020019161415c565b820191906000526020600020905b81548152906001019060200180831161413f57829003601f168201915b50505091909252505050608081018990526020810188905260a0810187905260c0810186905260e0810185905290506141936148e1565b60008a8152600260208181526040928390208351610100808201865282548252600180840180548851928116159093026000190190921695909504601f8101859004850286018501909652858552909491938584019390929083018282801561423d5780601f106142125761010080835404028352916020019161423d565b820191906000526020600020905b81548152906001019060200180831161422057829003601f168201915b505050918352505060028281015460208084019190915260038401805460408051601f600019610100600186161502019093169590950491820184900484028501840181528185529094019390918301828280156142dc5780601f106142b1576101008083540402835291602001916142dc565b820191906000526020600020905b8154815290600101906020018083116142bf57829003601f168201915b505050918352505060048201805460408051602060026001851615610100026000190190941693909304601f81018490048402820184019092528181529382019392918301828280156143705780601f1061434557610100808354040283529160200191614370565b820191906000526020600020905b81548152906001019060200180831161435357829003601f168201915b50505050508152602001600582015481526020016006820154815260200160078201548152505090508381602001819052508281604001818152505081600160008c81526020019081526020016000206000820151816000015560208201518160010190805190602001906143e6929190614863565b5060408201518051614402916002840191602090910190614863565b506060820151805161441e916003840191602090910190614863565b506080820151805161443a916004840191602090910190614863565b5060a08201518051614456916005840191602090910190614863565b5060c08201518051614472916006840191602090910190614863565b5060e0820151805161448e916007840191602090910190614863565b50505060008a81526002602090815260409091208251815581830151805184936144bf926001850192910190614863565b5060408201516002820155606082015180516144e5916003840191602090910190614863565b5060808201518051614501916004840191602090910190614863565b5060a0820151816005015560c0820151816006015560e082015181600701559050507f375787570f60317a305e9eb4d1d6a0301d08458e545c12ca0bd7cdd22370fa06826080015183602001518460a001518560c001518660e00151866020015187604001516040518080602001806020018060200180602001806020018060200188815260200187810387528e818151815260200191508051906020019080838360005b838110156145be5781810151838201526020016145a6565b50505050905090810190601f1680156145eb5780820380516001836020036101000a031916815260200191505b5087810386528d5181528d516020918201918f019080838360005b8381101561461e578181015183820152602001614606565b50505050905090810190601f16801561464b5780820380516001836020036101000a031916815260200191505b5087810385528c5181528c516020918201918e019080838360005b8381101561467e578181015183820152602001614666565b50505050905090810190601f1680156146ab5780820380516001836020036101000a031916815260200191505b5087810384528b5181528b516020918201918d019080838360005b838110156146de5781810151838201526020016146c6565b50505050905090810190601f16801561470b5780820380516001836020036101000a031916815260200191505b5087810383528a5181528a516020918201918c019080838360005b8381101561473e578181015183820152602001614726565b50505050905090810190601f16801561476b5780820380516001836020036101000a031916815260200191505b5087810382528951815289516020918201918b019080838360005b8381101561479e578181015183820152602001614786565b50505050905090810190601f1680156147cb5780820380516001836020036101000a031916815260200191505b509d505050505050505050505050505060405180910390a150505050505050505050565b6147fe8e8e8e8e8e8e8e612d15565b61480d87878787878787613ace565b5050505050505050505050505050565b6101006040519081016040528060008152602001606081526020016060815260200160608152602001606081526020016060815260200160608152602001606081525090565b828054600181600116156101000203166002900490600052602060002090601f016020900481019282601f106148a457805160ff19168380011785556148d1565b828001600101855582156148d1579182015b828111156148d15782518255916020019190600101906148b6565b506148dd929150614927565b5090565b6101006040519081016040528060008152602001606081526020016000815260200160608152602001606081526020016000815260200160008152602001600081525090565b6122cf91905b808211156148dd576000815560010161492d56fea165627a7a7230582065d803332221440b92ae0bc9993ddf3703101db5d8d86905d96e19f2a58dfefc0029",
  "source": "// SPDX-License-Identifier: MIT\r\npragma solidity >=0.4.22 <0.9.0;\r\n\r\ninterface TransactionSC {\r\n    function createTransaction(\r\n        string calldata withdrawal_date,\r\n        string calldata estimated_arrival,\r\n        string calldata method,\r\n        int256 amount,\r\n        uint256 contract_id,\r\n        string calldata status\r\n    ) external;\r\n}\r\n\r\ncontract ContractSC {\r\n    uint256 public contractCount = 0;\r\n\r\n    struct Contract {\r\n        uint256 contract_id;\r\n        string contract_type;\r\n        string contract_name;\r\n        string job_title;\r\n        string status;\r\n        string scope_of_work;\r\n        string start_date;\r\n        string end_date;\r\n    }\r\n\r\n    struct ContractDetails {\r\n        uint256 contract_id;\r\n        string currency;\r\n        int256 payment_rate;\r\n        string payment_frequency;\r\n        string payment_due;\r\n        uint256 employer_id;\r\n        uint256 contractor_id;\r\n        uint256 proposal_id;\r\n    }\r\n\r\n    event ChangedContractStatus(uint256 contract_id, string status);\r\n\r\n    mapping(uint256 => Contract) public contracts;\r\n    mapping(uint256 => ContractDetails) public contracts_details;\r\n\r\n    event ContractCreated(\r\n        uint256 contract_id,\r\n        string contract_type,\r\n        string contract_name,\r\n        string job_title,\r\n        string status,\r\n        string scope_of_work,\r\n        string start_date,\r\n        string end_date\r\n    );\r\n\r\n    event ContractDetailsCreated(\r\n        uint256 contract_id,\r\n        string currency,\r\n        int256 payment_rate,\r\n        string payment_frequency,\r\n        string payment_due,\r\n        uint256 employer_id,\r\n        uint256 contractor_id,\r\n        uint256 proposal_id\r\n    );\r\n\r\n    event ContractUpdated(\r\n        string status,\r\n        string contract_type,\r\n        string scope_of_work,\r\n        string start_date,\r\n        string end_date,\r\n        string currency,\r\n        int256 payment_rate\r\n    );\r\n\r\n    constructor() public {\r\n        createContract(\r\n            \"Contractor\",\r\n            \"Test Contract\",\r\n            \"Backend Developer\",\r\n            \"Both parties agreed\",\r\n            \"5 endpoints\",\r\n            \"15/05/2022\",\r\n            \"20/05/2022\",\r\n            \"COP\",\r\n            1800000,\r\n            \"Monthly\",\r\n            \"30\",\r\n            1,\r\n            1,\r\n            1\r\n        );\r\n    }\r\n\r\n    function createContract(\r\n        string memory contract_type,\r\n        string memory contract_name,\r\n        string memory job_title,\r\n        string memory status,\r\n        string memory scope_of_work,\r\n        string memory start_date,\r\n        string memory end_date,\r\n        string memory currency,\r\n        int256 payment_rate,\r\n        string memory payment_frequency,\r\n        string memory payment_due,\r\n        uint256 employer_id,\r\n        uint256 contractor_id,\r\n        uint256 proposal_id\r\n    ) public {\r\n        addContract(\r\n            contract_type,\r\n            contract_name,\r\n            job_title,\r\n            status,\r\n            scope_of_work,\r\n            start_date,\r\n            end_date\r\n        );\r\n        addContractDetails(\r\n            currency,\r\n            payment_rate,\r\n            payment_frequency,\r\n            payment_due,\r\n            employer_id,\r\n            contractor_id,\r\n            proposal_id\r\n        );\r\n    }\r\n\r\n    function addContract(\r\n        string memory contract_type,\r\n        string memory contract_name,\r\n        string memory job_title,\r\n        string memory status,\r\n        string memory scope_of_work,\r\n        string memory start_date,\r\n        string memory end_date\r\n    ) public {\r\n        contractCount++;\r\n        Contract memory contractInfo;\r\n\r\n        contractInfo.contract_id = contractCount;\r\n        contractInfo.contract_type = contract_type;\r\n        contractInfo.contract_name = contract_name;\r\n        contractInfo.job_title = job_title;\r\n        contractInfo.status = status;\r\n        contractInfo.scope_of_work = scope_of_work;\r\n        contractInfo.start_date = start_date;\r\n        contractInfo.end_date = end_date;\r\n\r\n        contracts[contractCount] = contractInfo;\r\n        emit ContractCreated(\r\n            contractCount,\r\n            contract_type,\r\n            contract_name,\r\n            job_title,\r\n            status,\r\n            scope_of_work,\r\n            start_date,\r\n            end_date\r\n        );\r\n    }\r\n\r\n    function addContractDetails(\r\n        string memory currency,\r\n        int256 payment_rate,\r\n        string memory payment_frequency,\r\n        string memory payment_due,\r\n        uint256 employer_id,\r\n        uint256 contractor_id,\r\n        uint256 proposal_id\r\n    ) public {\r\n        ContractDetails memory contractDetails;\r\n\r\n        contractDetails.contract_id = contractCount;\r\n        contractDetails.currency = currency;\r\n        contractDetails.payment_rate = payment_rate;\r\n        contractDetails.payment_frequency = payment_frequency;\r\n        contractDetails.payment_due = payment_due;\r\n        contractDetails.employer_id = employer_id;\r\n        contractDetails.contractor_id = contractor_id;\r\n        contractDetails.proposal_id = proposal_id;\r\n\r\n        contracts_details[contractCount] = contractDetails;\r\n        emit ContractDetailsCreated(\r\n            contractCount,\r\n            currency,\r\n            payment_rate,\r\n            payment_frequency,\r\n            payment_due,\r\n            employer_id,\r\n            contractor_id,\r\n            proposal_id\r\n        );\r\n    }\r\n\r\n    function pay(\r\n        uint256 _id,\r\n        address addr,\r\n        string memory withdrawal_date,\r\n        string memory estimated_arrival,\r\n        address payable recipient,\r\n        uint256 money\r\n    ) public payable {\r\n        Contract memory _contract = contracts[_id];\r\n        ContractDetails memory _contract_detail = contracts_details[_id];\r\n\r\n        TransactionSC(addr).createTransaction(\r\n            withdrawal_date,\r\n            estimated_arrival,\r\n            \"Crypto\",\r\n            _contract_detail.payment_rate,\r\n            _id,\r\n            \"Paid\"\r\n        );\r\n\r\n        recipient.transfer(money);\r\n\r\n        _contract.status = \"ACTIVE\";\r\n        contracts[_id] = _contract;\r\n    }\r\n\r\n    function setContractStatus(uint256 _id, string memory status) public {\r\n        Contract memory _contract = contracts[_id];\r\n        _contract.status = status;\r\n        contracts[_id] = _contract;\r\n        emit ChangedContractStatus(_id, _contract.status);\r\n    }\r\n\r\n    function updateContract(\r\n        uint256 _id,\r\n        string memory status,\r\n        string memory contract_type,\r\n        string memory scope_of_work,\r\n        string memory start_date,\r\n        string memory end_date,\r\n        string memory currency,\r\n        int256 payment_rate\r\n    ) public {\r\n        Contract memory _contract = contracts[_id];\r\n\r\n        // Status Validation\r\n\r\n        _contract.status = status;\r\n        _contract.contract_type = contract_type;\r\n        _contract.scope_of_work = scope_of_work;\r\n        _contract.start_date = start_date;\r\n        _contract.end_date = end_date;\r\n\r\n        ContractDetails memory _contract_detail = contracts_details[_id];\r\n        _contract_detail.currency = currency;\r\n        _contract_detail.payment_rate = payment_rate;\r\n\r\n        contracts[_id] = _contract;\r\n        contracts_details[_id] = _contract_detail;\r\n\r\n        emit ContractUpdated(\r\n            _contract.status,\r\n            _contract.contract_type,\r\n            _contract.scope_of_work,\r\n            _contract.start_date,\r\n            _contract.end_date,\r\n            _contract_detail.currency,\r\n            _contract_detail.payment_rate\r\n        );\r\n    }\r\n\r\n    function getContract(uint256 index)\r\n        public\r\n        view\r\n        returns (\r\n            string memory,\r\n            string memory,\r\n            string memory,\r\n            string memory,\r\n            string memory,\r\n            string memory,\r\n            string memory\r\n        )\r\n    {\r\n        return (\r\n            contracts[index].contract_type,\r\n            contracts[index].contract_name,\r\n            contracts[index].job_title,\r\n            contracts[index].status,\r\n            contracts[index].scope_of_work,\r\n            contracts[index].start_date,\r\n            contracts[index].end_date\r\n        );\r\n    }\r\n\r\n    function getContractDetails(uint256 index)\r\n        public\r\n        view\r\n        returns (\r\n            string memory,\r\n            int256,\r\n            string memory,\r\n            string memory,\r\n            uint256,\r\n            uint256,\r\n            uint256\r\n        )\r\n    {\r\n        return (\r\n            contracts_details[index].currency,\r\n            contracts_details[index].payment_rate,\r\n            contracts_details[index].payment_frequency,\r\n            contracts_details[index].payment_due,\r\n            contracts_details[index].employer_id,\r\n            contracts_details[index].contractor_id,\r\n            contracts_details[index].proposal_id\r\n        );\r\n    }\r\n\r\n    // funcion para depositar ether en el smart contract\r\n    function() external payable {}\r\n\r\n    function showBalance() external view returns (uint256) {\r\n        return address(this).balance;\r\n    }\r\n\r\n    function getAddress() external view returns (address) {\r\n        return address(this);\r\n    }\r\n}\r\n",
  "sourcePath": "C:/Users/USER/Documents/2022PrimerSemestre/pf/SmartDeal/contracts/Contract.sol",
  "compiler": {
    "name": "solc",
    "version": "0.5.0+commit.1d4f565a.Emscripten.clang"
  },
  "schemaVersion": "3.0.1",
  "updatedAt": "2022-05-27T03:17:35.438Z",
  "devdoc": {
    "methods": {}
  },
  "userdoc": {
    "methods": {}
  }
}