{
  "contractName": "ContractSC",
  "abi": [
    {
      "constant": true,
      "inputs": [
        {
          "name": "",
          "type": "uint256"
        }
      ],
      "name": "contracts_details",
      "outputs": [
        {
          "name": "contract_id",
          "type": "uint256"
        },
        {
          "name": "currency",
          "type": "string"
        },
        {
          "name": "payment_rate",
          "type": "int256"
        },
        {
          "name": "payment_frequency",
          "type": "string"
        },
        {
          "name": "payment_due",
          "type": "string"
        },
        {
          "name": "employer_id",
          "type": "uint256"
        },
        {
          "name": "contractor_id",
          "type": "uint256"
        },
        {
          "name": "proposal_id",
          "type": "uint256"
        }
      ],
      "payable": false,
      "stateMutability": "view",
      "type": "function",
      "signature": "0x1c87fb21"
    },
    {
      "constant": true,
      "inputs": [
        {
          "name": "",
          "type": "uint256"
        }
      ],
      "name": "contracts",
      "outputs": [
        {
          "name": "contract_id",
          "type": "uint256"
        },
        {
          "name": "contract_type",
          "type": "string"
        },
        {
          "name": "contract_name",
          "type": "string"
        },
        {
          "name": "job_title",
          "type": "string"
        },
        {
          "name": "status",
          "type": "string"
        },
        {
          "name": "scope_of_work",
          "type": "string"
        },
        {
          "name": "start_date",
          "type": "string"
        },
        {
          "name": "end_date",
          "type": "string"
        }
      ],
      "payable": false,
      "stateMutability": "view",
      "type": "function",
      "signature": "0x474da79a"
    },
    {
      "constant": true,
      "inputs": [],
      "name": "contractCount",
      "outputs": [
        {
          "name": "",
          "type": "uint256"
        }
      ],
      "payable": false,
      "stateMutability": "view",
      "type": "function",
      "signature": "0x8736381a"
    },
    {
      "inputs": [],
      "payable": false,
      "stateMutability": "nonpayable",
      "type": "constructor",
      "signature": "constructor"
    },
    {
      "payable": true,
      "stateMutability": "payable",
      "type": "fallback"
    },
    {
      "anonymous": false,
      "inputs": [
        {
          "indexed": false,
          "name": "contract_id",
          "type": "uint256"
        },
        {
          "indexed": false,
          "name": "status",
          "type": "string"
        }
      ],
      "name": "ChangedContractStatus",
      "type": "event",
      "signature": "0x87e2651bc29355533cdeaebe57e6a5dc05b764bdd16e1010aef88e173edfdbc8"
    },
    {
      "anonymous": false,
      "inputs": [
        {
          "indexed": false,
          "name": "contract_id",
          "type": "uint256"
        },
        {
          "indexed": false,
          "name": "contract_type",
          "type": "string"
        },
        {
          "indexed": false,
          "name": "contract_name",
          "type": "string"
        },
        {
          "indexed": false,
          "name": "job_title",
          "type": "string"
        },
        {
          "indexed": false,
          "name": "status",
          "type": "string"
        },
        {
          "indexed": false,
          "name": "scope_of_work",
          "type": "string"
        },
        {
          "indexed": false,
          "name": "start_date",
          "type": "string"
        },
        {
          "indexed": false,
          "name": "end_date",
          "type": "string"
        }
      ],
      "name": "ContractCreated",
      "type": "event",
      "signature": "0x885fcc95c75581ffe21d0835a75217dbc27eeac68b459842550369ce95abae47"
    },
    {
      "anonymous": false,
      "inputs": [
        {
          "indexed": false,
          "name": "contract_id",
          "type": "uint256"
        },
        {
          "indexed": false,
          "name": "currency",
          "type": "string"
        },
        {
          "indexed": false,
          "name": "payment_rate",
          "type": "int256"
        },
        {
          "indexed": false,
          "name": "payment_frequency",
          "type": "string"
        },
        {
          "indexed": false,
          "name": "payment_due",
          "type": "string"
        },
        {
          "indexed": false,
          "name": "employer_id",
          "type": "uint256"
        },
        {
          "indexed": false,
          "name": "contractor_id",
          "type": "uint256"
        },
        {
          "indexed": false,
          "name": "proposal_id",
          "type": "uint256"
        }
      ],
      "name": "ContractDetailsCreated",
      "type": "event",
      "signature": "0x5ee338db78855874b54df61d10b711be7658a86fb1354b2a065dd122d9b1dce6"
    },
    {
      "anonymous": false,
      "inputs": [
        {
          "indexed": false,
          "name": "status",
          "type": "string"
        },
        {
          "indexed": false,
          "name": "contract_type",
          "type": "string"
        },
        {
          "indexed": false,
          "name": "scope_of_work",
          "type": "string"
        },
        {
          "indexed": false,
          "name": "start_date",
          "type": "string"
        },
        {
          "indexed": false,
          "name": "end_date",
          "type": "string"
        },
        {
          "indexed": false,
          "name": "currency",
          "type": "string"
        },
        {
          "indexed": false,
          "name": "payment_rate",
          "type": "int256"
        }
      ],
      "name": "ContractUpdated",
      "type": "event",
      "signature": "0x375787570f60317a305e9eb4d1d6a0301d08458e545c12ca0bd7cdd22370fa06"
    },
    {
      "constant": false,
      "inputs": [
        {
          "name": "contract_type",
          "type": "string"
        },
        {
          "name": "contract_name",
          "type": "string"
        },
        {
          "name": "job_title",
          "type": "string"
        },
        {
          "name": "status",
          "type": "string"
        },
        {
          "name": "scope_of_work",
          "type": "string"
        },
        {
          "name": "start_date",
          "type": "string"
        },
        {
          "name": "end_date",
          "type": "string"
        },
        {
          "name": "currency",
          "type": "string"
        },
        {
          "name": "payment_rate",
          "type": "int256"
        },
        {
          "name": "payment_frequency",
          "type": "string"
        },
        {
          "name": "payment_due",
          "type": "string"
        },
        {
          "name": "employer_id",
          "type": "uint256"
        },
        {
          "name": "contractor_id",
          "type": "uint256"
        },
        {
          "name": "proposal_id",
          "type": "uint256"
        }
      ],
      "name": "createContract",
      "outputs": [],
      "payable": false,
      "stateMutability": "nonpayable",
      "type": "function",
      "signature": "0xf971238c"
    },
    {
      "constant": false,
      "inputs": [
        {
          "name": "contract_type",
          "type": "string"
        },
        {
          "name": "contract_name",
          "type": "string"
        },
        {
          "name": "job_title",
          "type": "string"
        },
        {
          "name": "status",
          "type": "string"
        },
        {
          "name": "scope_of_work",
          "type": "string"
        },
        {
          "name": "start_date",
          "type": "string"
        },
        {
          "name": "end_date",
          "type": "string"
        }
      ],
      "name": "addContract",
      "outputs": [],
      "payable": false,
      "stateMutability": "nonpayable",
      "type": "function",
      "signature": "0x7239d6be"
    },
    {
      "constant": false,
      "inputs": [
        {
          "name": "currency",
          "type": "string"
        },
        {
          "name": "payment_rate",
          "type": "int256"
        },
        {
          "name": "payment_frequency",
          "type": "string"
        },
        {
          "name": "payment_due",
          "type": "string"
        },
        {
          "name": "employer_id",
          "type": "uint256"
        },
        {
          "name": "contractor_id",
          "type": "uint256"
        },
        {
          "name": "proposal_id",
          "type": "uint256"
        }
      ],
      "name": "addContractDetails",
      "outputs": [],
      "payable": false,
      "stateMutability": "nonpayable",
      "type": "function",
      "signature": "0xa1c36202"
    },
    {
      "constant": false,
      "inputs": [
        {
          "name": "_id",
          "type": "uint256"
        },
        {
          "name": "addr",
          "type": "address"
        },
        {
          "name": "withdrawal_date",
          "type": "string"
        },
        {
          "name": "estimated_arrival",
          "type": "string"
        },
        {
          "name": "recipient",
          "type": "address"
        },
        {
          "name": "money",
          "type": "uint256"
        }
      ],
      "name": "pay",
      "outputs": [],
      "payable": true,
      "stateMutability": "payable",
      "type": "function",
      "signature": "0x90f97afe"
    },
    {
      "constant": false,
      "inputs": [
        {
          "name": "_id",
          "type": "uint256"
        },
        {
          "name": "status",
          "type": "string"
        }
      ],
      "name": "setContractStatus",
      "outputs": [],
      "payable": false,
      "stateMutability": "nonpayable",
      "type": "function",
      "signature": "0x243b67fe"
    },
    {
      "constant": false,
      "inputs": [
        {
          "name": "_id",
          "type": "uint256"
        },
        {
          "name": "proposal_id",
          "type": "uint256"
        }
      ],
      "name": "updateContractProposal",
      "outputs": [],
      "payable": false,
      "stateMutability": "nonpayable",
      "type": "function",
      "signature": "0xfd6b026f"
    },
    {
      "constant": false,
      "inputs": [
        {
          "name": "_id",
          "type": "uint256"
        },
        {
          "name": "status",
          "type": "string"
        },
        {
          "name": "contract_type",
          "type": "string"
        },
        {
          "name": "scope_of_work",
          "type": "string"
        },
        {
          "name": "start_date",
          "type": "string"
        },
        {
          "name": "end_date",
          "type": "string"
        },
        {
          "name": "currency",
          "type": "string"
        },
        {
          "name": "payment_rate",
          "type": "int256"
        }
      ],
      "name": "updateContract",
      "outputs": [],
      "payable": false,
      "stateMutability": "nonpayable",
      "type": "function",
      "signature": "0xaea0496e"
    },
    {
      "constant": true,
      "inputs": [
        {
          "name": "index",
          "type": "uint256"
        }
      ],
      "name": "getContract",
      "outputs": [
        {
          "name": "",
          "type": "string"
        },
        {
          "name": "",
          "type": "string"
        },
        {
          "name": "",
          "type": "string"
        },
        {
          "name": "",
          "type": "string"
        },
        {
          "name": "",
          "type": "string"
        },
        {
          "name": "",
          "type": "string"
        },
        {
          "name": "",
          "type": "string"
        }
      ],
      "payable": false,
      "stateMutability": "view",
      "type": "function",
      "signature": "0x6ebc8c86"
    },
    {
      "constant": true,
      "inputs": [
        {
          "name": "index",
          "type": "uint256"
        }
      ],
      "name": "getContractDetails",
      "outputs": [
        {
          "name": "",
          "type": "string"
        },
        {
          "name": "",
          "type": "int256"
        },
        {
          "name": "",
          "type": "string"
        },
        {
          "name": "",
          "type": "string"
        },
        {
          "name": "",
          "type": "uint256"
        },
        {
          "name": "",
          "type": "uint256"
        },
        {
          "name": "",
          "type": "uint256"
        }
      ],
      "payable": false,
      "stateMutability": "view",
      "type": "function",
      "signature": "0x4d6d6a9c"
    },
    {
      "constant": true,
      "inputs": [],
      "name": "showBalance",
      "outputs": [
        {
          "name": "",
          "type": "uint256"
        }
      ],
      "payable": false,
      "stateMutability": "view",
      "type": "function",
      "signature": "0x81b2d07b"
    },
    {
      "constant": true,
      "inputs": [],
      "name": "getAddress",
      "outputs": [
        {
          "name": "",
          "type": "address"
        }
      ],
      "payable": false,
      "stateMutability": "view",
      "type": "function",
      "signature": "0x38cc4831"
    }
  ],
  "bytecode": "0x6080604052600080553480156200001557600080fd5b50604080518082018252600a8082527f436f6e74726163746f720000000000000000000000000000000000000000000060208084019190915283518085018552600d81527f5465737420436f6e7472616374000000000000000000000000000000000000008183015284518086018652601181527f4261636b656e6420446576656c6f7065720000000000000000000000000000008184015285518087018752601381527f426f7468207061727469657320616772656564000000000000000000000000008185015286518088018852600b81527f3520656e64706f696e747300000000000000000000000000000000000000000081860152875180890189528681527f31352f30352f3230323200000000000000000000000000000000000000000000818701528851808a018a529687527f32302f30352f3230323200000000000000000000000000000000000000000000878701528851808a018a52600381527f434f500000000000000000000000000000000000000000000000000000000000818801528951808b018b52600781527f4d6f6e74686c7900000000000000000000000000000000000000000000000000818901528a51808c01909b5260028b527f3330000000000000000000000000000000000000000000000000000000000000978b01979097526200022b999597949693959294919391929091621b7740916001808064010000000062000231810204565b62000a7a565b6200024b8e8e8e8e8e8e8e64010000000062000275810204565b6200026587878787878787640100000000620006d1810204565b5050505050505050505050505050565b6000805460010190556200028862000949565b6000805480835260208084018b815260408086018c9052606086018b9052608086018a905260a0860189905260c0860188905260e086018790529284526001808352929093208451815592518051859493620002ea939085019201906200098f565b5060408201518051620003089160028401916020909101906200098f565b5060608201518051620003269160038401916020909101906200098f565b5060808201518051620003449160048401916020909101906200098f565b5060a08201518051620003629160058401916020909101906200098f565b5060c08201518051620003809160068401916020909101906200098f565b5060e082015180516200039e9160078401916020909101906200098f565b509050507f885fcc95c75581ffe21d0835a75217dbc27eeac68b459842550369ce95abae4760005489898989898989604051808981526020018060200180602001806020018060200180602001806020018060200188810388528f818151815260200191508051906020019080838360005b838110156200042a57818101518382015260200162000410565b50505050905090810190601f168015620004585780820380516001836020036101000a031916815260200191505b5088810387528e818151815260200191508051906020019080838360005b838110156200049057818101518382015260200162000476565b50505050905090810190601f168015620004be5780820380516001836020036101000a031916815260200191505b5088810386528d5181528d516020918201918f019080838360005b83811015620004f3578181015183820152602001620004d9565b50505050905090810190601f168015620005215780820380516001836020036101000a031916815260200191505b5088810385528c5181528c516020918201918e019080838360005b83811015620005565781810151838201526020016200053c565b50505050905090810190601f168015620005845780820380516001836020036101000a031916815260200191505b5088810384528b5181528b516020918201918d019080838360005b83811015620005b95781810151838201526020016200059f565b50505050905090810190601f168015620005e75780820380516001836020036101000a031916815260200191505b5088810383528a5181528a516020918201918c019080838360005b838110156200061c57818101518382015260200162000602565b50505050905090810190601f1680156200064a5780820380516001836020036101000a031916815260200191505b5088810382528951815289516020918201918b019080838360005b838110156200067f57818101518382015260200162000665565b50505050905090810190601f168015620006ad5780820380516001836020036101000a031916815260200191505b509f5050505050505050505050505050505060405180910390a15050505050505050565b620006db62000a14565b6000805480835260208084018b815260408086018c9052606086018b9052608086018a905260a0860189905260c0860188905260e086018790529284526002825291909220835181559051805184936200073d9260018501929101906200098f565b506040820151600282015560608201518051620007659160038401916020909101906200098f565b5060808201518051620007839160048401916020909101906200098f565b5060a0820151816005015560c0820151816006015560e082015181600701559050507f5ee338db78855874b54df61d10b711be7658a86fb1354b2a065dd122d9b1dce6600054898989898989896040518089815260200180602001888152602001806020018060200187815260200186815260200185815260200184810384528b818151815260200191508051906020019080838360005b83811015620008355781810151838201526020016200081b565b50505050905090810190601f168015620008635780820380516001836020036101000a031916815260200191505b5084810383528951815289516020918201918b019080838360005b83811015620008985781810151838201526020016200087e565b50505050905090810190601f168015620008c65780820380516001836020036101000a031916815260200191505b5084810382528851815288516020918201918a019080838360005b83811015620008fb578181015183820152602001620008e1565b50505050905090810190601f168015620009295780820380516001836020036101000a031916815260200191505b509b50505050505050505050505060405180910390a15050505050505050565b6101006040519081016040528060008152602001606081526020016060815260200160608152602001606081526020016060815260200160608152602001606081525090565b828054600181600116156101000203166002900490600052602060002090601f016020900481019282601f10620009d257805160ff191683800117855562000a02565b8280016001018555821562000a02579182015b8281111562000a02578251825591602001919060010190620009e5565b5062000a1092915062000a5a565b5090565b6101006040519081016040528060008152602001606081526020016000815260200160608152602001606081526020016000815260200160008152602001600081525090565b62000a7791905b8082111562000a10576000815560010162000a61565b90565b614c628062000a8a6000396000f3fe6080604052600436106100cf5763ffffffff7c01000000000000000000000000000000000000000000000000000000006000350416631c87fb2181146100d1578063243b67fe1461026257806338cc48311461031c578063474da79a1461035a5780634d6d6a9c1461066a5780636ebc8c86146107f45780637239d6be14610afd57806381b2d07b14610eda5780638736381a14610f0157806390f97afe14610f16578063a1c3620214611080578063aea0496e14611254578063f971238c146115b4578063fd6b026f14611b3a575b005b3480156100dd57600080fd5b506100fb600480360360208110156100f457600080fd5b5035611b6a565b6040518089815260200180602001888152602001806020018060200187815260200186815260200185815260200184810384528b818151815260200191508051906020019080838360005b8381101561015e578181015183820152602001610146565b50505050905090810190601f16801561018b5780820380516001836020036101000a031916815260200191505b5084810383528951815289516020918201918b019080838360005b838110156101be5781810151838201526020016101a6565b50505050905090810190601f1680156101eb5780820380516001836020036101000a031916815260200191505b5084810382528851815288516020918201918a019080838360005b8381101561021e578181015183820152602001610206565b50505050905090810190601f16801561024b5780820380516001836020036101000a031916815260200191505b509b50505050505050505050505060405180910390f35b34801561026e57600080fd5b506100cf6004803603604081101561028557600080fd5b813591908101906040810160208201356401000000008111156102a757600080fd5b8201836020820111156102b957600080fd5b803590602001918460018302840111640100000000831117156102db57600080fd5b91908080601f016020809104026020016040519081016040528093929190818152602001838380828437600092019190915250929550611d49945050505050565b34801561032857600080fd5b50610331612308565b6040805173ffffffffffffffffffffffffffffffffffffffff9092168252519081900360200190f35b34801561036657600080fd5b506103846004803603602081101561037d57600080fd5b503561230d565b604051808981526020018060200180602001806020018060200180602001806020018060200188810388528f818151815260200191508051906020019080838360005b838110156103df5781810151838201526020016103c7565b50505050905090810190601f16801561040c5780820380516001836020036101000a031916815260200191505b5088810387528e818151815260200191508051906020019080838360005b8381101561044257818101518382015260200161042a565b50505050905090810190601f16801561046f5780820380516001836020036101000a031916815260200191505b5088810386528d5181528d516020918201918f019080838360005b838110156104a257818101518382015260200161048a565b50505050905090810190601f1680156104cf5780820380516001836020036101000a031916815260200191505b5088810385528c5181528c516020918201918e019080838360005b838110156105025781810151838201526020016104ea565b50505050905090810190601f16801561052f5780820380516001836020036101000a031916815260200191505b5088810384528b5181528b516020918201918d019080838360005b8381101561056257818101518382015260200161054a565b50505050905090810190601f16801561058f5780820380516001836020036101000a031916815260200191505b5088810383528a5181528a516020918201918c019080838360005b838110156105c25781810151838201526020016105aa565b50505050905090810190601f1680156105ef5780820380516001836020036101000a031916815260200191505b5088810382528951815289516020918201918b019080838360005b8381101561062257818101518382015260200161060a565b50505050905090810190601f16801561064f5780820380516001836020036101000a031916815260200191505b509f5050505050505050505050505050505060405180910390f35b34801561067657600080fd5b506106946004803603602081101561068d57600080fd5b5035612715565b6040518080602001888152602001806020018060200187815260200186815260200185815260200184810384528b818151815260200191508051906020019080838360005b838110156106f15781810151838201526020016106d9565b50505050905090810190601f16801561071e5780820380516001836020036101000a031916815260200191505b5084810383528951815289516020918201918b019080838360005b83811015610751578181015183820152602001610739565b50505050905090810190601f16801561077e5780820380516001836020036101000a031916815260200191505b5084810382528851815288516020918201918a019080838360005b838110156107b1578181015183820152602001610799565b50505050905090810190601f1680156107de5780820380516001836020036101000a031916815260200191505b509a505050505050505050505060405180910390f35b34801561080057600080fd5b5061081e6004803603602081101561081757600080fd5b5035612919565b604051808060200180602001806020018060200180602001806020018060200188810388528f818151815260200191508051906020019080838360005b8381101561087357818101518382015260200161085b565b50505050905090810190601f1680156108a05780820380516001836020036101000a031916815260200191505b5088810387528e818151815260200191508051906020019080838360005b838110156108d65781810151838201526020016108be565b50505050905090810190601f1680156109035780820380516001836020036101000a031916815260200191505b5088810386528d5181528d516020918201918f019080838360005b8381101561093657818101518382015260200161091e565b50505050905090810190601f1680156109635780820380516001836020036101000a031916815260200191505b5088810385528c5181528c516020918201918e019080838360005b8381101561099657818101518382015260200161097e565b50505050905090810190601f1680156109c35780820380516001836020036101000a031916815260200191505b5088810384528b5181528b516020918201918d019080838360005b838110156109f65781810151838201526020016109de565b50505050905090810190601f168015610a235780820380516001836020036101000a031916815260200191505b5088810383528a5181528a516020918201918c019080838360005b83811015610a56578181015183820152602001610a3e565b50505050905090810190601f168015610a835780820380516001836020036101000a031916815260200191505b5088810382528951815289516020918201918b019080838360005b83811015610ab6578181015183820152602001610a9e565b50505050905090810190601f168015610ae35780820380516001836020036101000a031916815260200191505b509e50505050505050505050505050505060405180910390f35b348015610b0957600080fd5b506100cf600480360360e0811015610b2057600080fd5b810190602081018135640100000000811115610b3b57600080fd5b820183602082011115610b4d57600080fd5b80359060200191846001830284011164010000000083111715610b6f57600080fd5b91908080601f0160208091040260200160405190810160405280939291908181526020018383808284376000920191909152509295949360208101935035915050640100000000811115610bc257600080fd5b820183602082011115610bd457600080fd5b80359060200191846001830284011164010000000083111715610bf657600080fd5b91908080601f0160208091040260200160405190810160405280939291908181526020018383808284376000920191909152509295949360208101935035915050640100000000811115610c4957600080fd5b820183602082011115610c5b57600080fd5b80359060200191846001830284011164010000000083111715610c7d57600080fd5b91908080601f0160208091040260200160405190810160405280939291908181526020018383808284376000920191909152509295949360208101935035915050640100000000811115610cd057600080fd5b820183602082011115610ce257600080fd5b80359060200191846001830284011164010000000083111715610d0457600080fd5b91908080601f0160208091040260200160405190810160405280939291908181526020018383808284376000920191909152509295949360208101935035915050640100000000811115610d5757600080fd5b820183602082011115610d6957600080fd5b80359060200191846001830284011164010000000083111715610d8b57600080fd5b91908080601f0160208091040260200160405190810160405280939291908181526020018383808284376000920191909152509295949360208101935035915050640100000000811115610dde57600080fd5b820183602082011115610df057600080fd5b80359060200191846001830284011164010000000083111715610e1257600080fd5b91908080601f0160208091040260200160405190810160405280939291908181526020018383808284376000920191909152509295949360208101935035915050640100000000811115610e6557600080fd5b820183602082011115610e7757600080fd5b80359060200191846001830284011164010000000083111715610e9957600080fd5b91908080601f016020809104026020016040519081016040528093929190818152602001838380828437600092019190915250929550612d50945050505050565b348015610ee657600080fd5b50610eef613187565b60408051918252519081900360200190f35b348015610f0d57600080fd5b50610eef61318c565b6100cf600480360360c0811015610f2c57600080fd5b81359173ffffffffffffffffffffffffffffffffffffffff60208201351691810190606081016040820135640100000000811115610f6957600080fd5b820183602082011115610f7b57600080fd5b80359060200191846001830284011164010000000083111715610f9d57600080fd5b91908080601f0160208091040260200160405190810160405280939291908181526020018383808284376000920191909152509295949360208101935035915050640100000000811115610ff057600080fd5b82018360208201111561100257600080fd5b8035906020019184600183028401116401000000008311171561102457600080fd5b91908080601f0160208091040260200160405190810160405280939291908181526020018383808284376000920191909152509295505073ffffffffffffffffffffffffffffffffffffffff8335169350505060200135613192565b34801561108c57600080fd5b506100cf600480360360e08110156110a357600080fd5b8101906020810181356401000000008111156110be57600080fd5b8201836020820111156110d057600080fd5b803590602001918460018302840111640100000000831117156110f257600080fd5b91908080601f0160208091040260200160405190810160405280939291908181526020018383808284376000920191909152509295843595909490935060408101925060200135905064010000000081111561114d57600080fd5b82018360208201111561115f57600080fd5b8035906020019184600183028401116401000000008311171561118157600080fd5b91908080601f01602080910402602001604051908101604052809392919081815260200183838082843760009201919091525092959493602081019350359150506401000000008111156111d457600080fd5b8201836020820111156111e657600080fd5b8035906020019184600183028401116401000000008311171561120857600080fd5b91908080601f0160208091040260200160405190810160405280939291908181526020018383808284376000920191909152509295505082359350505060208101359060400135613b09565b34801561126057600080fd5b506100cf600480360361010081101561127857600080fd5b8135919081019060408101602082013564010000000081111561129a57600080fd5b8201836020820111156112ac57600080fd5b803590602001918460018302840111640100000000831117156112ce57600080fd5b91908080601f016020809104026020016040519081016040528093929190818152602001838380828437600092019190915250929594936020810193503591505064010000000081111561132157600080fd5b82018360208201111561133357600080fd5b8035906020019184600183028401116401000000008311171561135557600080fd5b91908080601f01602080910402602001604051908101604052809392919081815260200183838082843760009201919091525092959493602081019350359150506401000000008111156113a857600080fd5b8201836020820111156113ba57600080fd5b803590602001918460018302840111640100000000831117156113dc57600080fd5b91908080601f016020809104026020016040519081016040528093929190818152602001838380828437600092019190915250929594936020810193503591505064010000000081111561142f57600080fd5b82018360208201111561144157600080fd5b8035906020019184600183028401116401000000008311171561146357600080fd5b91908080601f01602080910402602001604051908101604052809392919081815260200183838082843760009201919091525092959493602081019350359150506401000000008111156114b657600080fd5b8201836020820111156114c857600080fd5b803590602001918460018302840111640100000000831117156114ea57600080fd5b91908080601f016020809104026020016040519081016040528093929190818152602001838380828437600092019190915250929594936020810193503591505064010000000081111561153d57600080fd5b82018360208201111561154f57600080fd5b8035906020019184600183028401116401000000008311171561157157600080fd5b91908080601f0160208091040260200160405190810160405280939291908181526020018383808284376000920191909152509295505091359250613d70915050565b3480156115c057600080fd5b506100cf60048036036101c08110156115d857600080fd5b8101906020810181356401000000008111156115f357600080fd5b82018360208201111561160557600080fd5b8035906020019184600183028401116401000000008311171561162757600080fd5b91908080601f016020809104026020016040519081016040528093929190818152602001838380828437600092019190915250929594936020810193503591505064010000000081111561167a57600080fd5b82018360208201111561168c57600080fd5b803590602001918460018302840111640100000000831117156116ae57600080fd5b91908080601f016020809104026020016040519081016040528093929190818152602001838380828437600092019190915250929594936020810193503591505064010000000081111561170157600080fd5b82018360208201111561171357600080fd5b8035906020019184600183028401116401000000008311171561173557600080fd5b91908080601f016020809104026020016040519081016040528093929190818152602001838380828437600092019190915250929594936020810193503591505064010000000081111561178857600080fd5b82018360208201111561179a57600080fd5b803590602001918460018302840111640100000000831117156117bc57600080fd5b91908080601f016020809104026020016040519081016040528093929190818152602001838380828437600092019190915250929594936020810193503591505064010000000081111561180f57600080fd5b82018360208201111561182157600080fd5b8035906020019184600183028401116401000000008311171561184357600080fd5b91908080601f016020809104026020016040519081016040528093929190818152602001838380828437600092019190915250929594936020810193503591505064010000000081111561189657600080fd5b8201836020820111156118a857600080fd5b803590602001918460018302840111640100000000831117156118ca57600080fd5b91908080601f016020809104026020016040519081016040528093929190818152602001838380828437600092019190915250929594936020810193503591505064010000000081111561191d57600080fd5b82018360208201111561192f57600080fd5b8035906020019184600183028401116401000000008311171561195157600080fd5b91908080601f01602080910402602001604051908101604052809392919081815260200183838082843760009201919091525092959493602081019350359150506401000000008111156119a457600080fd5b8201836020820111156119b657600080fd5b803590602001918460018302840111640100000000831117156119d857600080fd5b91908080601f01602080910402602001604051908101604052809392919081815260200183838082843760009201919091525092958435959094909350604081019250602001359050640100000000811115611a3357600080fd5b820183602082011115611a4557600080fd5b80359060200191846001830284011164010000000083111715611a6757600080fd5b91908080601f0160208091040260200160405190810160405280939291908181526020018383808284376000920191909152509295949360208101935035915050640100000000811115611aba57600080fd5b820183602082011115611acc57600080fd5b80359060200191846001830284011164010000000083111715611aee57600080fd5b91908080601f016020809104026020016040519081016040528093929190818152602001838380828437600092019190915250929550508235935050506020810135906040013561482a565b348015611b4657600080fd5b506100cf60048036036040811015611b5d57600080fd5b5080359060200135614858565b60026020818152600092835260409283902080546001808301805487519281161561010002600019011695909504601f8101859004850282018501909652858152909491939092909190830182828015611c055780601f10611bda57610100808354040283529160200191611c05565b820191906000526020600020905b815481529060010190602001808311611be857829003601f168201915b505050506002838101546003850180546040805160206001841615610100026000190190931695909504601f810183900483028601830190915280855295969295929450909190830182828015611c9d5780601f10611c7257610100808354040283529160200191611c9d565b820191906000526020600020905b815481529060010190602001808311611c8057829003601f168201915b5050505060048301805460408051602060026001851615610100026000190190941693909304601f8101849004840282018401909252818152949594935090830182828015611d2d5780601f10611d0257610100808354040283529160200191611d2d565b820191906000526020600020905b815481529060010190602001808311611d1057829003601f168201915b5050505050908060050154908060060154908060070154905088565b611d51614b12565b600083815260016020818152604092839020835161010080820186528254825282850180548751600297821615909302600019011695909504601f8101859004850282018501909652858152909491938584019391929091830182828015611dfa5780601f10611dcf57610100808354040283529160200191611dfa565b820191906000526020600020905b815481529060010190602001808311611ddd57829003601f168201915b5050509183525050600282810180546040805160206001841615610100026000190190931694909404601f81018390048302850183019091528084529381019390830182828015611e8c5780601f10611e6157610100808354040283529160200191611e8c565b820191906000526020600020905b815481529060010190602001808311611e6f57829003601f168201915b505050918352505060038201805460408051602060026001851615610100026000190190941693909304601f8101849004840282018401909252818152938201939291830182828015611f205780601f10611ef557610100808354040283529160200191611f20565b820191906000526020600020905b815481529060010190602001808311611f0357829003601f168201915b505050918352505060048201805460408051602060026001851615610100026000190190941693909304601f8101849004840282018401909252818152938201939291830182828015611fb45780601f10611f8957610100808354040283529160200191611fb4565b820191906000526020600020905b815481529060010190602001808311611f9757829003601f168201915b505050918352505060058201805460408051602060026001851615610100026000190190941693909304601f81018490048402820184019092528181529382019392918301828280156120485780601f1061201d57610100808354040283529160200191612048565b820191906000526020600020905b81548152906001019060200180831161202b57829003601f168201915b505050918352505060068201805460408051602060026001851615610100026000190190941693909304601f81018490048402820184019092528181529382019392918301828280156120dc5780601f106120b1576101008083540402835291602001916120dc565b820191906000526020600020905b8154815290600101906020018083116120bf57829003601f168201915b505050918352505060078201805460408051602060026001851615610100026000190190941693909304601f81018490048402820184019092528181529382019392918301828280156121705780601f1061214557610100808354040283529160200191612170565b820191906000526020600020905b81548152906001019060200180831161215357829003601f168201915b5050509190925250505060808101839052600084815260016020818152604090922083518155828401518051949550859491936121b293850192910190614b58565b50604082015180516121ce916002840191602090910190614b58565b50606082015180516121ea916003840191602090910190614b58565b5060808201518051612206916004840191602090910190614b58565b5060a08201518051612222916005840191602090910190614b58565b5060c0820151805161223e916006840191602090910190614b58565b5060e0820151805161225a916007840191602090910190614b58565b509050507f87e2651bc29355533cdeaebe57e6a5dc05b764bdd16e1010aef88e173edfdbc88382608001516040518083815260200180602001828103825283818151815260200191508051906020019080838360005b838110156122c85781810151838201526020016122b0565b50505050905090810190601f1680156122f55780820380516001836020036101000a031916815260200191505b50935050505060405180910390a1505050565b305b90565b600160208181526000928352604092839020805481840180548651600296821615610100026000190190911695909504601f810185900485028601850190965285855290949193929091908301828280156123a95780601f1061237e576101008083540402835291602001916123a9565b820191906000526020600020905b81548152906001019060200180831161238c57829003601f168201915b50505060028085018054604080516020601f600019610100600187161502019094169590950492830185900485028101850190915281815295969594509092509083018282801561243b5780601f106124105761010080835404028352916020019161243b565b820191906000526020600020905b81548152906001019060200180831161241e57829003601f168201915b5050505060038301805460408051602060026001851615610100026000190190941693909304601f81018490048402820184019092528181529495949350908301828280156124cb5780601f106124a0576101008083540402835291602001916124cb565b820191906000526020600020905b8154815290600101906020018083116124ae57829003601f168201915b5050505060048301805460408051602060026001851615610100026000190190941693909304601f810184900484028201840190925281815294959493509083018282801561255b5780601f106125305761010080835404028352916020019161255b565b820191906000526020600020905b81548152906001019060200180831161253e57829003601f168201915b5050505060058301805460408051602060026001851615610100026000190190941693909304601f81018490048402820184019092528181529495949350908301828280156125eb5780601f106125c0576101008083540402835291602001916125eb565b820191906000526020600020905b8154815290600101906020018083116125ce57829003601f168201915b5050505060068301805460408051602060026001851615610100026000190190941693909304601f810184900484028201840190925281815294959493509083018282801561267b5780601f106126505761010080835404028352916020019161267b565b820191906000526020600020905b81548152906001019060200180831161265e57829003601f168201915b5050505060078301805460408051602060026001851615610100026000190190941693909304601f810184900484028201840190925281815294959493509083018282801561270b5780601f106126e05761010080835404028352916020019161270b565b820191906000526020600020905b8154815290600101906020018083116126ee57829003601f168201915b5050505050905088565b6000818152600260208181526040808420808401546005820154600683015460078401546001808601805488519281161561010002600019011699909904601f8101899004890282018901909752868152606099988a9889988b98899889989497909660038301966004909301959491939092918991908301828280156127dd5780601f106127b2576101008083540402835291602001916127dd565b820191906000526020600020905b8154815290600101906020018083116127c057829003601f168201915b5050885460408051602060026001851615610100026000190190941693909304601f8101849004840282018401909252818152959c508a94509250840190508282801561286b5780601f106128405761010080835404028352916020019161286b565b820191906000526020600020905b81548152906001019060200180831161284e57829003601f168201915b5050875460408051602060026001851615610100026000190190941693909304601f8101849004840282018401909252818152959a50899450925084019050828280156128f95780601f106128ce576101008083540402835291602001916128f9565b820191906000526020600020905b8154815290600101906020018083116128dc57829003601f168201915b505050505093509650965096509650965096509650919395979092949650565b600081815260016020818152604092839020808301805485516002958216156101000260001901909116859004601f810185900485028201850190965285815260609586958695869586958695869591948301936003840193600481019360058201936006830193600790930192909189918301828280156129dc5780601f106129b1576101008083540402835291602001916129dc565b820191906000526020600020905b8154815290600101906020018083116129bf57829003601f168201915b5050895460408051602060026001851615610100026000190190941693909304601f8101849004840282018401909252818152959c508b945092508401905082828015612a6a5780601f10612a3f57610100808354040283529160200191612a6a565b820191906000526020600020905b815481529060010190602001808311612a4d57829003601f168201915b5050885460408051602060026001851615610100026000190190941693909304601f8101849004840282018401909252818152959b508a945092508401905082828015612af85780601f10612acd57610100808354040283529160200191612af8565b820191906000526020600020905b815481529060010190602001808311612adb57829003601f168201915b5050875460408051602060026001851615610100026000190190941693909304601f8101849004840282018401909252818152959a5089945092508401905082828015612b865780601f10612b5b57610100808354040283529160200191612b86565b820191906000526020600020905b815481529060010190602001808311612b6957829003601f168201915b5050865460408051602060026001851615610100026000190190941693909304601f810184900484028201840190925281815295995088945092508401905082828015612c145780601f10612be957610100808354040283529160200191612c14565b820191906000526020600020905b815481529060010190602001808311612bf757829003601f168201915b5050855460408051602060026001851615610100026000190190941693909304601f810184900484028201840190925281815295985087945092508401905082828015612ca25780601f10612c7757610100808354040283529160200191612ca2565b820191906000526020600020905b815481529060010190602001808311612c8557829003601f168201915b5050845460408051602060026001851615610100026000190190941693909304601f810184900484028201840190925281815295975086945092508401905082828015612d305780601f10612d0557610100808354040283529160200191612d30565b820191906000526020600020905b815481529060010190602001808311612d1357829003601f168201915b505050505090509650965096509650965096509650919395979092949650565b600080546001019055612d61614b12565b6000805480835260208084018b815260408086018c9052606086018b9052608086018a905260a0860189905260c0860188905260e086018790529284526001808352929093208451815592518051859493612dc193908501920190614b58565b5060408201518051612ddd916002840191602090910190614b58565b5060608201518051612df9916003840191602090910190614b58565b5060808201518051612e15916004840191602090910190614b58565b5060a08201518051612e31916005840191602090910190614b58565b5060c08201518051612e4d916006840191602090910190614b58565b5060e08201518051612e69916007840191602090910190614b58565b509050507f885fcc95c75581ffe21d0835a75217dbc27eeac68b459842550369ce95abae4760005489898989898989604051808981526020018060200180602001806020018060200180602001806020018060200188810388528f818151815260200191508051906020019080838360005b83811015612ef3578181015183820152602001612edb565b50505050905090810190601f168015612f205780820380516001836020036101000a031916815260200191505b5088810387528e818151815260200191508051906020019080838360005b83811015612f56578181015183820152602001612f3e565b50505050905090810190601f168015612f835780820380516001836020036101000a031916815260200191505b5088810386528d5181528d516020918201918f019080838360005b83811015612fb6578181015183820152602001612f9e565b50505050905090810190601f168015612fe35780820380516001836020036101000a031916815260200191505b5088810385528c5181528c516020918201918e019080838360005b83811015613016578181015183820152602001612ffe565b50505050905090810190601f1680156130435780820380516001836020036101000a031916815260200191505b5088810384528b5181528b516020918201918d019080838360005b8381101561307657818101518382015260200161305e565b50505050905090810190601f1680156130a35780820380516001836020036101000a031916815260200191505b5088810383528a5181528a516020918201918c019080838360005b838110156130d65781810151838201526020016130be565b50505050905090810190601f1680156131035780820380516001836020036101000a031916815260200191505b5088810382528951815289516020918201918b019080838360005b8381101561313657818101518382015260200161311e565b50505050905090810190601f1680156131635780820380516001836020036101000a031916815260200191505b509f5050505050505050505050505050505060405180910390a15050505050505050565b303190565b60005481565b61319a614b12565b600087815260016020818152604092839020835161010080820186528254825282850180548751600297821615909302600019011695909504601f81018590048502820185019096528581529094919385840193919290918301828280156132435780601f1061321857610100808354040283529160200191613243565b820191906000526020600020905b81548152906001019060200180831161322657829003601f168201915b5050509183525050600282810180546040805160206001841615610100026000190190931694909404601f810183900483028501830190915280845293810193908301828280156132d55780601f106132aa576101008083540402835291602001916132d5565b820191906000526020600020905b8154815290600101906020018083116132b857829003601f168201915b505050918352505060038201805460408051602060026001851615610100026000190190941693909304601f81018490048402820184019092528181529382019392918301828280156133695780601f1061333e57610100808354040283529160200191613369565b820191906000526020600020905b81548152906001019060200180831161334c57829003601f168201915b505050918352505060048201805460408051602060026001851615610100026000190190941693909304601f81018490048402820184019092528181529382019392918301828280156133fd5780601f106133d2576101008083540402835291602001916133fd565b820191906000526020600020905b8154815290600101906020018083116133e057829003601f168201915b505050918352505060058201805460408051602060026001851615610100026000190190941693909304601f81018490048402820184019092528181529382019392918301828280156134915780601f1061346657610100808354040283529160200191613491565b820191906000526020600020905b81548152906001019060200180831161347457829003601f168201915b505050918352505060068201805460408051602060026001851615610100026000190190941693909304601f81018490048402820184019092528181529382019392918301828280156135255780601f106134fa57610100808354040283529160200191613525565b820191906000526020600020905b81548152906001019060200180831161350857829003601f168201915b505050918352505060078201805460408051602060026001851615610100026000190190941693909304601f81018490048402820184019092528181529382019392918301828280156135b95780601f1061358e576101008083540402835291602001916135b9565b820191906000526020600020905b81548152906001019060200180831161359c57829003601f168201915b50505050508152505090506135cc614bd6565b6000888152600260208181526040928390208351610100808201865282548252600180840180548851928116159093026000190190921695909504601f810185900485028601850190965285855290949193858401939092908301828280156136765780601f1061364b57610100808354040283529160200191613676565b820191906000526020600020905b81548152906001019060200180831161365957829003601f168201915b505050918352505060028281015460208084019190915260038401805460408051601f600019610100600186161502019093169590950491820184900484028501840181528185529094019390918301828280156137155780601f106136ea57610100808354040283529160200191613715565b820191906000526020600020905b8154815290600101906020018083116136f857829003601f168201915b505050918352505060048201805460408051602060026001851615610100026000190190941693909304601f81018490048402820184019092528181529382019392918301828280156137a95780601f1061377e576101008083540402835291602001916137a9565b820191906000526020600020905b81548152906001019060200180831161378c57829003601f168201915b50505050508152602001600582015481526020016006820154815260200160078201548152505090508673ffffffffffffffffffffffffffffffffffffffff16636f4436a6878784604001518c6040518563ffffffff167c01000000000000000000000000000000000000000000000000000000000281526004018080602001806020018060200186815260200185815260200180602001858103855289818151815260200191508051906020019080838360005b8381101561387657818101518382015260200161385e565b50505050905090810190601f1680156138a35780820380516001836020036101000a031916815260200191505b5085810384528851815288516020918201918a019080838360005b838110156138d65781810151838201526020016138be565b50505050905090810190601f1680156139035780820380516001836020036101000a031916815260200191505b50858103835260068152602001807f43727970746f0000000000000000000000000000000000000000000000000000815250602001858103825260048152602001807f506169640000000000000000000000000000000000000000000000000000000081525060200198505050505050505050600060405180830381600087803b15801561399057600080fd5b505af11580156139a4573d6000803e3d6000fd5b505060405173ffffffffffffffffffffffffffffffffffffffff8716925085156108fc02915085906000818181858888f193505050501580156139eb573d6000803e3d6000fd5b50604080518082018252600681527f4143544956450000000000000000000000000000000000000000000000000000602080830191909152608085019190915260008a815260018083529290208451815584820151805186949293613a54938501920190614b58565b5060408201518051613a70916002840191602090910190614b58565b5060608201518051613a8c916003840191602090910190614b58565b5060808201518051613aa8916004840191602090910190614b58565b5060a08201518051613ac4916005840191602090910190614b58565b5060c08201518051613ae0916006840191602090910190614b58565b5060e08201518051613afc916007840191602090910190614b58565b5050505050505050505050565b613b11614bd6565b6000805480835260208084018b815260408086018c9052606086018b9052608086018a905260a0860189905260c0860188905260e08601879052928452600282529190922083518155905180518493613b71926001850192910190614b58565b506040820151600282015560608201518051613b97916003840191602090910190614b58565b5060808201518051613bb3916004840191602090910190614b58565b5060a0820151816005015560c0820151816006015560e082015181600701559050507f5ee338db78855874b54df61d10b711be7658a86fb1354b2a065dd122d9b1dce6600054898989898989896040518089815260200180602001888152602001806020018060200187815260200186815260200185815260200184810384528b818151815260200191508051906020019080838360005b83811015613c63578181015183820152602001613c4b565b50505050905090810190601f168015613c905780820380516001836020036101000a031916815260200191505b5084810383528951815289516020918201918b019080838360005b83811015613cc3578181015183820152602001613cab565b50505050905090810190601f168015613cf05780820380516001836020036101000a031916815260200191505b5084810382528851815288516020918201918a019080838360005b83811015613d23578181015183820152602001613d0b565b50505050905090810190601f168015613d505780820380516001836020036101000a031916815260200191505b509b50505050505050505050505060405180910390a15050505050505050565b613d78614b12565b600089815260016020818152604092839020835161010080820186528254825282850180548751600297821615909302600019011695909504601f8101859004850282018501909652858152909491938584019391929091830182828015613e215780601f10613df657610100808354040283529160200191613e21565b820191906000526020600020905b815481529060010190602001808311613e0457829003601f168201915b5050509183525050600282810180546040805160206001841615610100026000190190931694909404601f81018390048302850183019091528084529381019390830182828015613eb35780601f10613e8857610100808354040283529160200191613eb3565b820191906000526020600020905b815481529060010190602001808311613e9657829003601f168201915b505050918352505060038201805460408051602060026001851615610100026000190190941693909304601f8101849004840282018401909252818152938201939291830182828015613f475780601f10613f1c57610100808354040283529160200191613f47565b820191906000526020600020905b815481529060010190602001808311613f2a57829003601f168201915b505050918352505060048201805460408051602060026001851615610100026000190190941693909304601f8101849004840282018401909252818152938201939291830182828015613fdb5780601f10613fb057610100808354040283529160200191613fdb565b820191906000526020600020905b815481529060010190602001808311613fbe57829003601f168201915b505050918352505060058201805460408051602060026001851615610100026000190190941693909304601f810184900484028201840190925281815293820193929183018282801561406f5780601f106140445761010080835404028352916020019161406f565b820191906000526020600020905b81548152906001019060200180831161405257829003601f168201915b505050918352505060068201805460408051602060026001851615610100026000190190941693909304601f81018490048402820184019092528181529382019392918301828280156141035780601f106140d857610100808354040283529160200191614103565b820191906000526020600020905b8154815290600101906020018083116140e657829003601f168201915b505050918352505060078201805460408051602060026001851615610100026000190190941693909304601f81018490048402820184019092528181529382019392918301828280156141975780601f1061416c57610100808354040283529160200191614197565b820191906000526020600020905b81548152906001019060200180831161417a57829003601f168201915b50505091909252505050608081018990526020810188905260a0810187905260c0810186905260e0810185905290506141ce614bd6565b60008a8152600260208181526040928390208351610100808201865282548252600180840180548851928116159093026000190190921695909504601f810185900485028601850190965285855290949193858401939092908301828280156142785780601f1061424d57610100808354040283529160200191614278565b820191906000526020600020905b81548152906001019060200180831161425b57829003601f168201915b505050918352505060028281015460208084019190915260038401805460408051601f600019610100600186161502019093169590950491820184900484028501840181528185529094019390918301828280156143175780601f106142ec57610100808354040283529160200191614317565b820191906000526020600020905b8154815290600101906020018083116142fa57829003601f168201915b505050918352505060048201805460408051602060026001851615610100026000190190941693909304601f81018490048402820184019092528181529382019392918301828280156143ab5780601f10614380576101008083540402835291602001916143ab565b820191906000526020600020905b81548152906001019060200180831161438e57829003601f168201915b50505050508152602001600582015481526020016006820154815260200160078201548152505090508381602001819052508281604001818152505081600160008c8152602001908152602001600020600082015181600001556020820151816001019080519060200190614421929190614b58565b506040820151805161443d916002840191602090910190614b58565b5060608201518051614459916003840191602090910190614b58565b5060808201518051614475916004840191602090910190614b58565b5060a08201518051614491916005840191602090910190614b58565b5060c082015180516144ad916006840191602090910190614b58565b5060e082015180516144c9916007840191602090910190614b58565b50505060008a81526002602090815260409091208251815581830151805184936144fa926001850192910190614b58565b506040820151600282015560608201518051614520916003840191602090910190614b58565b506080820151805161453c916004840191602090910190614b58565b5060a0820151816005015560c0820151816006015560e082015181600701559050507f375787570f60317a305e9eb4d1d6a0301d08458e545c12ca0bd7cdd22370fa06826080015183602001518460a001518560c001518660e00151866020015187604001516040518080602001806020018060200180602001806020018060200188815260200187810387528e818151815260200191508051906020019080838360005b838110156145f95781810151838201526020016145e1565b50505050905090810190601f1680156146265780820380516001836020036101000a031916815260200191505b5087810386528d5181528d516020918201918f019080838360005b83811015614659578181015183820152602001614641565b50505050905090810190601f1680156146865780820380516001836020036101000a031916815260200191505b5087810385528c5181528c516020918201918e019080838360005b838110156146b95781810151838201526020016146a1565b50505050905090810190601f1680156146e65780820380516001836020036101000a031916815260200191505b5087810384528b5181528b516020918201918d019080838360005b83811015614719578181015183820152602001614701565b50505050905090810190601f1680156147465780820380516001836020036101000a031916815260200191505b5087810383528a5181528a516020918201918c019080838360005b83811015614779578181015183820152602001614761565b50505050905090810190601f1680156147a65780820380516001836020036101000a031916815260200191505b5087810382528951815289516020918201918b019080838360005b838110156147d95781810151838201526020016147c1565b50505050905090810190601f1680156148065780820380516001836020036101000a031916815260200191505b509d505050505050505050505050505060405180910390a150505050505050505050565b6148398e8e8e8e8e8e8e612d50565b61484887878787878787613b09565b5050505050505050505050505050565b614860614bd6565b6000838152600260208181526040928390208351610100808201865282548252600180840180548851928116159093026000190190921695909504601f8101859004850286018501909652858552909491938584019390929083018282801561490a5780601f106148df5761010080835404028352916020019161490a565b820191906000526020600020905b8154815290600101906020018083116148ed57829003601f168201915b505050918352505060028281015460208084019190915260038401805460408051601f600019610100600186161502019093169590950491820184900484028501840181528185529094019390918301828280156149a95780601f1061497e576101008083540402835291602001916149a9565b820191906000526020600020905b81548152906001019060200180831161498c57829003601f168201915b505050918352505060048201805460408051602060026001851615610100026000190190941693909304601f8101849004840282018401909252818152938201939291830182828015614a3d5780601f10614a1257610100808354040283529160200191614a3d565b820191906000526020600020905b815481529060010190602001808311614a2057829003601f168201915b5050505050815260200160058201548152602001600682015481526020016007820154815250509050818160e00181815250508060026000858152602001908152602001600020600082015181600001556020820151816001019080519060200190614aaa929190614b58565b506040820151600282015560608201518051614ad0916003840191602090910190614b58565b5060808201518051614aec916004840191602090910190614b58565b5060a0820151600582015560c0820151600682015560e090910151600790910155505050565b6101006040519081016040528060008152602001606081526020016060815260200160608152602001606081526020016060815260200160608152602001606081525090565b828054600181600116156101000203166002900490600052602060002090601f016020900481019282601f10614b9957805160ff1916838001178555614bc6565b82800160010185558215614bc6579182015b82811115614bc6578251825591602001919060010190614bab565b50614bd2929150614c1c565b5090565b6101006040519081016040528060008152602001606081526020016000815260200160608152602001606081526020016000815260200160008152602001600081525090565b61230a91905b80821115614bd25760008155600101614c2256fea165627a7a723058201a64456349c0ea5ef9ee154b82a00c31b83d6b2d5b114d8e263f85222b0020af0029",
  "source": "// SPDX-License-Identifier: MIT\r\npragma solidity >=0.4.22 <0.9.0;\r\n\r\ninterface TransactionSC {\r\n    function createTransaction(\r\n        string calldata withdrawal_date,\r\n        string calldata estimated_arrival,\r\n        string calldata method,\r\n        int256 amount,\r\n        uint256 contract_id,\r\n        string calldata status\r\n    ) external;\r\n}\r\n\r\ncontract ContractSC {\r\n    uint256 public contractCount = 0;\r\n\r\n    struct Contract {\r\n        uint256 contract_id;\r\n        string contract_type;\r\n        string contract_name;\r\n        string job_title;\r\n        string status;\r\n        string scope_of_work;\r\n        string start_date;\r\n        string end_date;\r\n    }\r\n\r\n    struct ContractDetails {\r\n        uint256 contract_id;\r\n        string currency;\r\n        int256 payment_rate;\r\n        string payment_frequency;\r\n        string payment_due;\r\n        uint256 employer_id;\r\n        uint256 contractor_id;\r\n        uint256 proposal_id;\r\n    }\r\n\r\n    event ChangedContractStatus(uint256 contract_id, string status);\r\n\r\n    mapping(uint256 => Contract) public contracts;\r\n    mapping(uint256 => ContractDetails) public contracts_details;\r\n\r\n    event ContractCreated(\r\n        uint256 contract_id,\r\n        string contract_type,\r\n        string contract_name,\r\n        string job_title,\r\n        string status,\r\n        string scope_of_work,\r\n        string start_date,\r\n        string end_date\r\n    );\r\n\r\n    event ContractDetailsCreated(\r\n        uint256 contract_id,\r\n        string currency,\r\n        int256 payment_rate,\r\n        string payment_frequency,\r\n        string payment_due,\r\n        uint256 employer_id,\r\n        uint256 contractor_id,\r\n        uint256 proposal_id\r\n    );\r\n\r\n    event ContractUpdated(\r\n        string status,\r\n        string contract_type,\r\n        string scope_of_work,\r\n        string start_date,\r\n        string end_date,\r\n        string currency,\r\n        int256 payment_rate\r\n    );\r\n\r\n    constructor() public {\r\n        createContract(\r\n            \"Contractor\",\r\n            \"Test Contract\",\r\n            \"Backend Developer\",\r\n            \"Both parties agreed\",\r\n            \"5 endpoints\",\r\n            \"15/05/2022\",\r\n            \"20/05/2022\",\r\n            \"COP\",\r\n            1800000,\r\n            \"Monthly\",\r\n            \"30\",\r\n            1,\r\n            1,\r\n            1\r\n        );\r\n    }\r\n\r\n    function createContract(\r\n        string memory contract_type,\r\n        string memory contract_name,\r\n        string memory job_title,\r\n        string memory status,\r\n        string memory scope_of_work,\r\n        string memory start_date,\r\n        string memory end_date,\r\n        string memory currency,\r\n        int256 payment_rate,\r\n        string memory payment_frequency,\r\n        string memory payment_due,\r\n        uint256 employer_id,\r\n        uint256 contractor_id,\r\n        uint256 proposal_id\r\n    ) public {\r\n        addContract(\r\n            contract_type,\r\n            contract_name,\r\n            job_title,\r\n            status,\r\n            scope_of_work,\r\n            start_date,\r\n            end_date\r\n        );\r\n        addContractDetails(\r\n            currency,\r\n            payment_rate,\r\n            payment_frequency,\r\n            payment_due,\r\n            employer_id,\r\n            contractor_id,\r\n            proposal_id\r\n        );\r\n    }\r\n\r\n    function addContract(\r\n        string memory contract_type,\r\n        string memory contract_name,\r\n        string memory job_title,\r\n        string memory status,\r\n        string memory scope_of_work,\r\n        string memory start_date,\r\n        string memory end_date\r\n    ) public {\r\n        contractCount++;\r\n        Contract memory contractInfo;\r\n\r\n        contractInfo.contract_id = contractCount;\r\n        contractInfo.contract_type = contract_type;\r\n        contractInfo.contract_name = contract_name;\r\n        contractInfo.job_title = job_title;\r\n        contractInfo.status = status;\r\n        contractInfo.scope_of_work = scope_of_work;\r\n        contractInfo.start_date = start_date;\r\n        contractInfo.end_date = end_date;\r\n\r\n        contracts[contractCount] = contractInfo;\r\n        emit ContractCreated(\r\n            contractCount,\r\n            contract_type,\r\n            contract_name,\r\n            job_title,\r\n            status,\r\n            scope_of_work,\r\n            start_date,\r\n            end_date\r\n        );\r\n    }\r\n\r\n    function addContractDetails(\r\n        string memory currency,\r\n        int256 payment_rate,\r\n        string memory payment_frequency,\r\n        string memory payment_due,\r\n        uint256 employer_id,\r\n        uint256 contractor_id,\r\n        uint256 proposal_id\r\n    ) public {\r\n        ContractDetails memory contractDetails;\r\n\r\n        contractDetails.contract_id = contractCount;\r\n        contractDetails.currency = currency;\r\n        contractDetails.payment_rate = payment_rate;\r\n        contractDetails.payment_frequency = payment_frequency;\r\n        contractDetails.payment_due = payment_due;\r\n        contractDetails.employer_id = employer_id;\r\n        contractDetails.contractor_id = contractor_id;\r\n        contractDetails.proposal_id = proposal_id;\r\n\r\n        contracts_details[contractCount] = contractDetails;\r\n        emit ContractDetailsCreated(\r\n            contractCount,\r\n            currency,\r\n            payment_rate,\r\n            payment_frequency,\r\n            payment_due,\r\n            employer_id,\r\n            contractor_id,\r\n            proposal_id\r\n        );\r\n    }\r\n\r\n    function pay(\r\n        uint256 _id,\r\n        address addr,\r\n        string memory withdrawal_date,\r\n        string memory estimated_arrival,\r\n        address payable recipient,\r\n        uint256 money\r\n    ) public payable {\r\n        Contract memory _contract = contracts[_id];\r\n        ContractDetails memory _contract_detail = contracts_details[_id];\r\n\r\n        TransactionSC(addr).createTransaction(\r\n            withdrawal_date,\r\n            estimated_arrival,\r\n            \"Crypto\",\r\n            _contract_detail.payment_rate,\r\n            _id,\r\n            \"Paid\"\r\n        );\r\n\r\n        recipient.transfer(money);\r\n\r\n        _contract.status = \"ACTIVE\";\r\n        contracts[_id] = _contract;\r\n    }\r\n\r\n    function setContractStatus(uint256 _id, string memory status) public {\r\n        Contract memory _contract = contracts[_id];\r\n        _contract.status = status;\r\n        contracts[_id] = _contract;\r\n        emit ChangedContractStatus(_id, _contract.status);\r\n    }\r\n\r\n    function updateContractProposal(uint256 _id, uint256 proposal_id) public {\r\n        ContractDetails memory _contract_detail = contracts_details[_id];\r\n        _contract_detail.proposal_id = proposal_id;\r\n        contracts_details[_id] = _contract_detail;\r\n    }\r\n\r\n    function updateContract(\r\n        uint256 _id,\r\n        string memory status,\r\n        string memory contract_type,\r\n        string memory scope_of_work,\r\n        string memory start_date,\r\n        string memory end_date,\r\n        string memory currency,\r\n        int256 payment_rate\r\n    ) public {\r\n        Contract memory _contract = contracts[_id];\r\n\r\n        _contract.status = status;\r\n        _contract.contract_type = contract_type;\r\n        _contract.scope_of_work = scope_of_work;\r\n        _contract.start_date = start_date;\r\n        _contract.end_date = end_date;\r\n\r\n        ContractDetails memory _contract_detail = contracts_details[_id];\r\n        _contract_detail.currency = currency;\r\n        _contract_detail.payment_rate = payment_rate;\r\n\r\n        contracts[_id] = _contract;\r\n        contracts_details[_id] = _contract_detail;\r\n\r\n        emit ContractUpdated(\r\n            _contract.status,\r\n            _contract.contract_type,\r\n            _contract.scope_of_work,\r\n            _contract.start_date,\r\n            _contract.end_date,\r\n            _contract_detail.currency,\r\n            _contract_detail.payment_rate\r\n        );\r\n    }\r\n\r\n    function getContract(uint256 index)\r\n        public\r\n        view\r\n        returns (\r\n            string memory,\r\n            string memory,\r\n            string memory,\r\n            string memory,\r\n            string memory,\r\n            string memory,\r\n            string memory\r\n        )\r\n    {\r\n        return (\r\n            contracts[index].contract_type,\r\n            contracts[index].contract_name,\r\n            contracts[index].job_title,\r\n            contracts[index].status,\r\n            contracts[index].scope_of_work,\r\n            contracts[index].start_date,\r\n            contracts[index].end_date\r\n        );\r\n    }\r\n\r\n    function getContractDetails(uint256 index)\r\n        public\r\n        view\r\n        returns (\r\n            string memory,\r\n            int256,\r\n            string memory,\r\n            string memory,\r\n            uint256,\r\n            uint256,\r\n            uint256\r\n        )\r\n    {\r\n        return (\r\n            contracts_details[index].currency,\r\n            contracts_details[index].payment_rate,\r\n            contracts_details[index].payment_frequency,\r\n            contracts_details[index].payment_due,\r\n            contracts_details[index].employer_id,\r\n            contracts_details[index].contractor_id,\r\n            contracts_details[index].proposal_id\r\n        );\r\n    }\r\n\r\n    // funcion para depositar ether en el smart contract\r\n    function() external payable {}\r\n\r\n    function showBalance() external view returns (uint256) {\r\n        return address(this).balance;\r\n    }\r\n\r\n    function getAddress() external view returns (address) {\r\n        return address(this);\r\n    }\r\n}\r\n",
  "sourcePath": "C:/Users/sesan/Desktop/Proyecto Final/SmartDeal Solidity/contracts/Contract.sol",
  "compiler": {
    "name": "solc",
    "version": "0.5.0+commit.1d4f565a.Emscripten.clang"
  },
  "schemaVersion": "3.0.1",
  "updatedAt": "2022-05-27T13:09:03.604Z",
  "devdoc": {
    "methods": {}
  },
  "userdoc": {
    "methods": {}
  }
}