{
  "contractName": "ContractSC",
  "abi": [
    {
      "constant": true,
      "inputs": [
        {
          "name": "",
          "type": "uint256"
        }
      ],
      "name": "contracts_details",
      "outputs": [
        {
          "name": "contract_id",
          "type": "uint256"
        },
        {
          "name": "currency",
          "type": "string"
        },
        {
          "name": "payment_rate",
          "type": "int256"
        },
        {
          "name": "payment_frequency",
          "type": "string"
        },
        {
          "name": "payment_due",
          "type": "string"
        },
        {
          "name": "employer_id",
          "type": "uint256"
        },
        {
          "name": "contractor_id",
          "type": "uint256"
        },
        {
          "name": "proposal_id",
          "type": "uint256"
        }
      ],
      "payable": false,
      "stateMutability": "view",
      "type": "function",
      "signature": "0x1c87fb21"
    },
    {
      "constant": true,
      "inputs": [
        {
          "name": "",
          "type": "uint256"
        }
      ],
      "name": "contracts",
      "outputs": [
        {
          "name": "contract_id",
          "type": "uint256"
        },
        {
          "name": "contract_type",
          "type": "string"
        },
        {
          "name": "contract_name",
          "type": "string"
        },
        {
          "name": "job_title",
          "type": "string"
        },
        {
          "name": "status",
          "type": "string"
        },
        {
          "name": "scope_of_work",
          "type": "string"
        },
        {
          "name": "start_date",
          "type": "string"
        },
        {
          "name": "end_date",
          "type": "string"
        }
      ],
      "payable": false,
      "stateMutability": "view",
      "type": "function",
      "signature": "0x474da79a"
    },
    {
      "constant": true,
      "inputs": [],
      "name": "contractCount",
      "outputs": [
        {
          "name": "",
          "type": "uint256"
        }
      ],
      "payable": false,
      "stateMutability": "view",
      "type": "function",
      "signature": "0x8736381a"
    },
    {
      "inputs": [],
      "payable": false,
      "stateMutability": "nonpayable",
      "type": "constructor",
      "signature": "constructor"
    },
    {
      "payable": true,
      "stateMutability": "payable",
      "type": "fallback"
    },
    {
      "anonymous": false,
      "inputs": [
        {
          "indexed": false,
          "name": "contract_id",
          "type": "uint256"
        },
        {
          "indexed": false,
          "name": "status",
          "type": "string"
        }
      ],
      "name": "ChangedContractStatus",
      "type": "event",
      "signature": "0x87e2651bc29355533cdeaebe57e6a5dc05b764bdd16e1010aef88e173edfdbc8"
    },
    {
      "anonymous": false,
      "inputs": [
        {
          "indexed": false,
          "name": "contract_id",
          "type": "uint256"
        },
        {
          "indexed": false,
          "name": "contract_type",
          "type": "string"
        },
        {
          "indexed": false,
          "name": "contract_name",
          "type": "string"
        },
        {
          "indexed": false,
          "name": "job_title",
          "type": "string"
        },
        {
          "indexed": false,
          "name": "status",
          "type": "string"
        },
        {
          "indexed": false,
          "name": "scope_of_work",
          "type": "string"
        },
        {
          "indexed": false,
          "name": "start_date",
          "type": "string"
        },
        {
          "indexed": false,
          "name": "end_date",
          "type": "string"
        }
      ],
      "name": "ContractCreated",
      "type": "event",
      "signature": "0x885fcc95c75581ffe21d0835a75217dbc27eeac68b459842550369ce95abae47"
    },
    {
      "anonymous": false,
      "inputs": [
        {
          "indexed": false,
          "name": "contract_id",
          "type": "uint256"
        },
        {
          "indexed": false,
          "name": "currency",
          "type": "string"
        },
        {
          "indexed": false,
          "name": "payment_rate",
          "type": "int256"
        },
        {
          "indexed": false,
          "name": "payment_frequency",
          "type": "string"
        },
        {
          "indexed": false,
          "name": "payment_due",
          "type": "string"
        },
        {
          "indexed": false,
          "name": "employer_id",
          "type": "uint256"
        },
        {
          "indexed": false,
          "name": "contractor_id",
          "type": "uint256"
        },
        {
          "indexed": false,
          "name": "proposal_id",
          "type": "uint256"
        }
      ],
      "name": "ContractDetailsCreated",
      "type": "event",
      "signature": "0x5ee338db78855874b54df61d10b711be7658a86fb1354b2a065dd122d9b1dce6"
    },
    {
      "constant": false,
      "inputs": [
        {
          "name": "contract_type",
          "type": "string"
        },
        {
          "name": "contract_name",
          "type": "string"
        },
        {
          "name": "job_title",
          "type": "string"
        },
        {
          "name": "status",
          "type": "string"
        },
        {
          "name": "scope_of_work",
          "type": "string"
        },
        {
          "name": "start_date",
          "type": "string"
        },
        {
          "name": "end_date",
          "type": "string"
        },
        {
          "name": "currency",
          "type": "string"
        },
        {
          "name": "payment_rate",
          "type": "int256"
        },
        {
          "name": "payment_frequency",
          "type": "string"
        },
        {
          "name": "payment_due",
          "type": "string"
        },
        {
          "name": "employer_id",
          "type": "uint256"
        },
        {
          "name": "contractor_id",
          "type": "uint256"
        },
        {
          "name": "proposal_id",
          "type": "uint256"
        }
      ],
      "name": "createContract",
      "outputs": [],
      "payable": false,
      "stateMutability": "nonpayable",
      "type": "function",
      "signature": "0xf971238c"
    },
    {
      "constant": false,
      "inputs": [
        {
          "name": "contract_type",
          "type": "string"
        },
        {
          "name": "contract_name",
          "type": "string"
        },
        {
          "name": "job_title",
          "type": "string"
        },
        {
          "name": "status",
          "type": "string"
        },
        {
          "name": "scope_of_work",
          "type": "string"
        },
        {
          "name": "start_date",
          "type": "string"
        },
        {
          "name": "end_date",
          "type": "string"
        }
      ],
      "name": "addContract",
      "outputs": [],
      "payable": false,
      "stateMutability": "nonpayable",
      "type": "function",
      "signature": "0x7239d6be"
    },
    {
      "constant": false,
      "inputs": [
        {
          "name": "currency",
          "type": "string"
        },
        {
          "name": "payment_rate",
          "type": "int256"
        },
        {
          "name": "payment_frequency",
          "type": "string"
        },
        {
          "name": "payment_due",
          "type": "string"
        },
        {
          "name": "employer_id",
          "type": "uint256"
        },
        {
          "name": "contractor_id",
          "type": "uint256"
        },
        {
          "name": "proposal_id",
          "type": "uint256"
        }
      ],
      "name": "addContractDetails",
      "outputs": [],
      "payable": false,
      "stateMutability": "nonpayable",
      "type": "function",
      "signature": "0xa1c36202"
    },
    {
      "constant": false,
      "inputs": [
        {
          "name": "_id",
          "type": "uint256"
        },
        {
          "name": "status",
          "type": "string"
        }
      ],
      "name": "setContractStatus",
      "outputs": [],
      "payable": false,
      "stateMutability": "nonpayable",
      "type": "function",
      "signature": "0x243b67fe"
    },
    {
      "constant": true,
      "inputs": [
        {
          "name": "index",
          "type": "uint256"
        }
      ],
      "name": "getContract",
      "outputs": [
        {
          "name": "",
          "type": "string"
        },
        {
          "name": "",
          "type": "string"
        },
        {
          "name": "",
          "type": "string"
        },
        {
          "name": "",
          "type": "string"
        },
        {
          "name": "",
          "type": "string"
        },
        {
          "name": "",
          "type": "string"
        },
        {
          "name": "",
          "type": "string"
        }
      ],
      "payable": false,
      "stateMutability": "view",
      "type": "function",
      "signature": "0x6ebc8c86"
    },
    {
      "constant": true,
      "inputs": [
        {
          "name": "index",
          "type": "uint256"
        }
      ],
      "name": "getContractDetails",
      "outputs": [
        {
          "name": "",
          "type": "string"
        },
        {
          "name": "",
          "type": "int256"
        },
        {
          "name": "",
          "type": "string"
        },
        {
          "name": "",
          "type": "string"
        },
        {
          "name": "",
          "type": "uint256"
        },
        {
          "name": "",
          "type": "uint256"
        },
        {
          "name": "",
          "type": "uint256"
        }
      ],
      "payable": false,
      "stateMutability": "view",
      "type": "function",
      "signature": "0x4d6d6a9c"
    },
    {
      "constant": true,
      "inputs": [],
      "name": "showBalance",
      "outputs": [
        {
          "name": "",
          "type": "uint256"
        }
      ],
      "payable": false,
      "stateMutability": "view",
      "type": "function",
      "signature": "0x81b2d07b"
    }
  ],
  "bytecode": "0x6080604052600080553480156200001557600080fd5b50604080518082018252600a8082527f436f6e74726163746f720000000000000000000000000000000000000000000060208084019190915283518085018552600d81527f5465737420436f6e7472616374000000000000000000000000000000000000008183015284518086018652601181527f4261636b656e6420446576656c6f7065720000000000000000000000000000008184015285518087018752601381527f426f7468207061727469657320616772656564000000000000000000000000008185015286518088018852600b81527f3520656e64706f696e747300000000000000000000000000000000000000000081860152875180890189528681527f31352f30352f3230323200000000000000000000000000000000000000000000818701528851808a018a529687527f32302f30352f3230323200000000000000000000000000000000000000000000878701528851808a018a52600381527f434f500000000000000000000000000000000000000000000000000000000000818801528951808b018b52600781527f4d6f6e74686c7900000000000000000000000000000000000000000000000000818901528a51808c01909b5260028b527f3330000000000000000000000000000000000000000000000000000000000000978b01979097526200022b999597949693959294919391929091621b7740916001808064010000000062000231810204565b62000a7a565b6200024b8e8e8e8e8e8e8e64010000000062000275810204565b6200026587878787878787640100000000620006d1810204565b5050505050505050505050505050565b6000805460010190556200028862000949565b6000805480835260208084018b815260408086018c9052606086018b9052608086018a905260a0860189905260c0860188905260e086018790529284526001808352929093208451815592518051859493620002ea939085019201906200098f565b5060408201518051620003089160028401916020909101906200098f565b5060608201518051620003269160038401916020909101906200098f565b5060808201518051620003449160048401916020909101906200098f565b5060a08201518051620003629160058401916020909101906200098f565b5060c08201518051620003809160068401916020909101906200098f565b5060e082015180516200039e9160078401916020909101906200098f565b509050507f885fcc95c75581ffe21d0835a75217dbc27eeac68b459842550369ce95abae4760005489898989898989604051808981526020018060200180602001806020018060200180602001806020018060200188810388528f818151815260200191508051906020019080838360005b838110156200042a57818101518382015260200162000410565b50505050905090810190601f168015620004585780820380516001836020036101000a031916815260200191505b5088810387528e818151815260200191508051906020019080838360005b838110156200049057818101518382015260200162000476565b50505050905090810190601f168015620004be5780820380516001836020036101000a031916815260200191505b5088810386528d5181528d516020918201918f019080838360005b83811015620004f3578181015183820152602001620004d9565b50505050905090810190601f168015620005215780820380516001836020036101000a031916815260200191505b5088810385528c5181528c516020918201918e019080838360005b83811015620005565781810151838201526020016200053c565b50505050905090810190601f168015620005845780820380516001836020036101000a031916815260200191505b5088810384528b5181528b516020918201918d019080838360005b83811015620005b95781810151838201526020016200059f565b50505050905090810190601f168015620005e75780820380516001836020036101000a031916815260200191505b5088810383528a5181528a516020918201918c019080838360005b838110156200061c57818101518382015260200162000602565b50505050905090810190601f1680156200064a5780820380516001836020036101000a031916815260200191505b5088810382528951815289516020918201918b019080838360005b838110156200067f57818101518382015260200162000665565b50505050905090810190601f168015620006ad5780820380516001836020036101000a031916815260200191505b509f5050505050505050505050505050505060405180910390a15050505050505050565b620006db62000a14565b6000805480835260208084018b815260408086018c9052606086018b9052608086018a905260a0860189905260c0860188905260e086018790529284526002825291909220835181559051805184936200073d9260018501929101906200098f565b506040820151600282015560608201518051620007659160038401916020909101906200098f565b5060808201518051620007839160048401916020909101906200098f565b5060a0820151816005015560c0820151816006015560e082015181600701559050507f5ee338db78855874b54df61d10b711be7658a86fb1354b2a065dd122d9b1dce6600054898989898989896040518089815260200180602001888152602001806020018060200187815260200186815260200185815260200184810384528b818151815260200191508051906020019080838360005b83811015620008355781810151838201526020016200081b565b50505050905090810190601f168015620008635780820380516001836020036101000a031916815260200191505b5084810383528951815289516020918201918b019080838360005b83811015620008985781810151838201526020016200087e565b50505050905090810190601f168015620008c65780820380516001836020036101000a031916815260200191505b5084810382528851815288516020918201918a019080838360005b83811015620008fb578181015183820152602001620008e1565b50505050905090810190601f168015620009295780820380516001836020036101000a031916815260200191505b509b50505050505050505050505060405180910390a15050505050505050565b6101006040519081016040528060008152602001606081526020016060815260200160608152602001606081526020016060815260200160608152602001606081525090565b828054600181600116156101000203166002900490600052602060002090601f016020900481019282601f10620009d257805160ff191683800117855562000a02565b8280016001018555821562000a02579182015b8281111562000a02578251825591602001919060010190620009e5565b5062000a1092915062000a5a565b5090565b6101006040519081016040528060008152602001606081526020016000815260200160608152602001606081526020016000815260200160008152602001600081525090565b62000a7791905b8082111562000a10576000815560010162000a61565b90565b61300f8062000a8a6000396000f3fe6080604052600436106100a35763ffffffff7c01000000000000000000000000000000000000000000000000000000006000350416631c87fb2181146100a5578063243b67fe14610236578063474da79a146102f05780634d6d6a9c146106005780636ebc8c861461078a5780637239d6be14610a9357806381b2d07b14610e705780638736381a14610e97578063a1c3620214610eac578063f971238c14611080575b005b3480156100b157600080fd5b506100cf600480360360208110156100c857600080fd5b5035611606565b6040518089815260200180602001888152602001806020018060200187815260200186815260200185815260200184810384528b818151815260200191508051906020019080838360005b8381101561013257818101518382015260200161011a565b50505050905090810190601f16801561015f5780820380516001836020036101000a031916815260200191505b5084810383528951815289516020918201918b019080838360005b8381101561019257818101518382015260200161017a565b50505050905090810190601f1680156101bf5780820380516001836020036101000a031916815260200191505b5084810382528851815288516020918201918a019080838360005b838110156101f25781810151838201526020016101da565b50505050905090810190601f16801561021f5780820380516001836020036101000a031916815260200191505b509b50505050505050505050505060405180910390f35b34801561024257600080fd5b506100a36004803603604081101561025957600080fd5b8135919081019060408101602082013564010000000081111561027b57600080fd5b82018360208201111561028d57600080fd5b803590602001918460018302840111640100000000831117156102af57600080fd5b91908080601f0160208091040260200160405190810160405280939291908181526020018383808284376000920191909152509295506117e5945050505050565b3480156102fc57600080fd5b5061031a6004803603602081101561031357600080fd5b5035611da4565b604051808981526020018060200180602001806020018060200180602001806020018060200188810388528f818151815260200191508051906020019080838360005b8381101561037557818101518382015260200161035d565b50505050905090810190601f1680156103a25780820380516001836020036101000a031916815260200191505b5088810387528e818151815260200191508051906020019080838360005b838110156103d85781810151838201526020016103c0565b50505050905090810190601f1680156104055780820380516001836020036101000a031916815260200191505b5088810386528d5181528d516020918201918f019080838360005b83811015610438578181015183820152602001610420565b50505050905090810190601f1680156104655780820380516001836020036101000a031916815260200191505b5088810385528c5181528c516020918201918e019080838360005b83811015610498578181015183820152602001610480565b50505050905090810190601f1680156104c55780820380516001836020036101000a031916815260200191505b5088810384528b5181528b516020918201918d019080838360005b838110156104f85781810151838201526020016104e0565b50505050905090810190601f1680156105255780820380516001836020036101000a031916815260200191505b5088810383528a5181528a516020918201918c019080838360005b83811015610558578181015183820152602001610540565b50505050905090810190601f1680156105855780820380516001836020036101000a031916815260200191505b5088810382528951815289516020918201918b019080838360005b838110156105b85781810151838201526020016105a0565b50505050905090810190601f1680156105e55780820380516001836020036101000a031916815260200191505b509f5050505050505050505050505050505060405180910390f35b34801561060c57600080fd5b5061062a6004803603602081101561062357600080fd5b50356121ac565b6040518080602001888152602001806020018060200187815260200186815260200185815260200184810384528b818151815260200191508051906020019080838360005b8381101561068757818101518382015260200161066f565b50505050905090810190601f1680156106b45780820380516001836020036101000a031916815260200191505b5084810383528951815289516020918201918b019080838360005b838110156106e75781810151838201526020016106cf565b50505050905090810190601f1680156107145780820380516001836020036101000a031916815260200191505b5084810382528851815288516020918201918a019080838360005b8381101561074757818101518382015260200161072f565b50505050905090810190601f1680156107745780820380516001836020036101000a031916815260200191505b509a505050505050505050505060405180910390f35b34801561079657600080fd5b506107b4600480360360208110156107ad57600080fd5b50356123b0565b604051808060200180602001806020018060200180602001806020018060200188810388528f818151815260200191508051906020019080838360005b838110156108095781810151838201526020016107f1565b50505050905090810190601f1680156108365780820380516001836020036101000a031916815260200191505b5088810387528e818151815260200191508051906020019080838360005b8381101561086c578181015183820152602001610854565b50505050905090810190601f1680156108995780820380516001836020036101000a031916815260200191505b5088810386528d5181528d516020918201918f019080838360005b838110156108cc5781810151838201526020016108b4565b50505050905090810190601f1680156108f95780820380516001836020036101000a031916815260200191505b5088810385528c5181528c516020918201918e019080838360005b8381101561092c578181015183820152602001610914565b50505050905090810190601f1680156109595780820380516001836020036101000a031916815260200191505b5088810384528b5181528b516020918201918d019080838360005b8381101561098c578181015183820152602001610974565b50505050905090810190601f1680156109b95780820380516001836020036101000a031916815260200191505b5088810383528a5181528a516020918201918c019080838360005b838110156109ec5781810151838201526020016109d4565b50505050905090810190601f168015610a195780820380516001836020036101000a031916815260200191505b5088810382528951815289516020918201918b019080838360005b83811015610a4c578181015183820152602001610a34565b50505050905090810190601f168015610a795780820380516001836020036101000a031916815260200191505b509e50505050505050505050505050505060405180910390f35b348015610a9f57600080fd5b506100a3600480360360e0811015610ab657600080fd5b810190602081018135640100000000811115610ad157600080fd5b820183602082011115610ae357600080fd5b80359060200191846001830284011164010000000083111715610b0557600080fd5b91908080601f0160208091040260200160405190810160405280939291908181526020018383808284376000920191909152509295949360208101935035915050640100000000811115610b5857600080fd5b820183602082011115610b6a57600080fd5b80359060200191846001830284011164010000000083111715610b8c57600080fd5b91908080601f0160208091040260200160405190810160405280939291908181526020018383808284376000920191909152509295949360208101935035915050640100000000811115610bdf57600080fd5b820183602082011115610bf157600080fd5b80359060200191846001830284011164010000000083111715610c1357600080fd5b91908080601f0160208091040260200160405190810160405280939291908181526020018383808284376000920191909152509295949360208101935035915050640100000000811115610c6657600080fd5b820183602082011115610c7857600080fd5b80359060200191846001830284011164010000000083111715610c9a57600080fd5b91908080601f0160208091040260200160405190810160405280939291908181526020018383808284376000920191909152509295949360208101935035915050640100000000811115610ced57600080fd5b820183602082011115610cff57600080fd5b80359060200191846001830284011164010000000083111715610d2157600080fd5b91908080601f0160208091040260200160405190810160405280939291908181526020018383808284376000920191909152509295949360208101935035915050640100000000811115610d7457600080fd5b820183602082011115610d8657600080fd5b80359060200191846001830284011164010000000083111715610da857600080fd5b91908080601f0160208091040260200160405190810160405280939291908181526020018383808284376000920191909152509295949360208101935035915050640100000000811115610dfb57600080fd5b820183602082011115610e0d57600080fd5b80359060200191846001830284011164010000000083111715610e2f57600080fd5b91908080601f0160208091040260200160405190810160405280939291908181526020018383808284376000920191909152509295506127e7945050505050565b348015610e7c57600080fd5b50610e85612c1e565b60408051918252519081900360200190f35b348015610ea357600080fd5b50610e85612c24565b348015610eb857600080fd5b506100a3600480360360e0811015610ecf57600080fd5b810190602081018135640100000000811115610eea57600080fd5b820183602082011115610efc57600080fd5b80359060200191846001830284011164010000000083111715610f1e57600080fd5b91908080601f01602080910402602001604051908101604052809392919081815260200183838082843760009201919091525092958435959094909350604081019250602001359050640100000000811115610f7957600080fd5b820183602082011115610f8b57600080fd5b80359060200191846001830284011164010000000083111715610fad57600080fd5b91908080601f016020809104026020016040519081016040528093929190818152602001838380828437600092019190915250929594936020810193503591505064010000000081111561100057600080fd5b82018360208201111561101257600080fd5b8035906020019184600183028401116401000000008311171561103457600080fd5b91908080601f0160208091040260200160405190810160405280939291908181526020018383808284376000920191909152509295505082359350505060208101359060400135612c2a565b34801561108c57600080fd5b506100a360048036036101c08110156110a457600080fd5b8101906020810181356401000000008111156110bf57600080fd5b8201836020820111156110d157600080fd5b803590602001918460018302840111640100000000831117156110f357600080fd5b91908080601f016020809104026020016040519081016040528093929190818152602001838380828437600092019190915250929594936020810193503591505064010000000081111561114657600080fd5b82018360208201111561115857600080fd5b8035906020019184600183028401116401000000008311171561117a57600080fd5b91908080601f01602080910402602001604051908101604052809392919081815260200183838082843760009201919091525092959493602081019350359150506401000000008111156111cd57600080fd5b8201836020820111156111df57600080fd5b8035906020019184600183028401116401000000008311171561120157600080fd5b91908080601f016020809104026020016040519081016040528093929190818152602001838380828437600092019190915250929594936020810193503591505064010000000081111561125457600080fd5b82018360208201111561126657600080fd5b8035906020019184600183028401116401000000008311171561128857600080fd5b91908080601f01602080910402602001604051908101604052809392919081815260200183838082843760009201919091525092959493602081019350359150506401000000008111156112db57600080fd5b8201836020820111156112ed57600080fd5b8035906020019184600183028401116401000000008311171561130f57600080fd5b91908080601f016020809104026020016040519081016040528093929190818152602001838380828437600092019190915250929594936020810193503591505064010000000081111561136257600080fd5b82018360208201111561137457600080fd5b8035906020019184600183028401116401000000008311171561139657600080fd5b91908080601f01602080910402602001604051908101604052809392919081815260200183838082843760009201919091525092959493602081019350359150506401000000008111156113e957600080fd5b8201836020820111156113fb57600080fd5b8035906020019184600183028401116401000000008311171561141d57600080fd5b91908080601f016020809104026020016040519081016040528093929190818152602001838380828437600092019190915250929594936020810193503591505064010000000081111561147057600080fd5b82018360208201111561148257600080fd5b803590602001918460018302840111640100000000831117156114a457600080fd5b91908080601f016020809104026020016040519081016040528093929190818152602001838380828437600092019190915250929584359590949093506040810192506020013590506401000000008111156114ff57600080fd5b82018360208201111561151157600080fd5b8035906020019184600183028401116401000000008311171561153357600080fd5b91908080601f016020809104026020016040519081016040528093929190818152602001838380828437600092019190915250929594936020810193503591505064010000000081111561158657600080fd5b82018360208201111561159857600080fd5b803590602001918460018302840111640100000000831117156115ba57600080fd5b91908080601f0160208091040260200160405190810160405280939291908181526020018383808284376000920191909152509295505082359350505060208101359060400135612e91565b60026020818152600092835260409283902080546001808301805487519281161561010002600019011695909504601f81018590048502820185019096528581529094919390929091908301828280156116a15780601f10611676576101008083540402835291602001916116a1565b820191906000526020600020905b81548152906001019060200180831161168457829003601f168201915b505050506002838101546003850180546040805160206001841615610100026000190190931695909504601f8101839004830286018301909152808552959692959294509091908301828280156117395780601f1061170e57610100808354040283529160200191611739565b820191906000526020600020905b81548152906001019060200180831161171c57829003601f168201915b5050505060048301805460408051602060026001851615610100026000190190941693909304601f81018490048402820184019092528181529495949350908301828280156117c95780601f1061179e576101008083540402835291602001916117c9565b820191906000526020600020905b8154815290600101906020018083116117ac57829003601f168201915b5050505050908060050154908060060154908060070154905088565b6117ed612ebf565b600083815260016020818152604092839020835161010080820186528254825282850180548751600297821615909302600019011695909504601f81018590048502820185019096528581529094919385840193919290918301828280156118965780601f1061186b57610100808354040283529160200191611896565b820191906000526020600020905b81548152906001019060200180831161187957829003601f168201915b5050509183525050600282810180546040805160206001841615610100026000190190931694909404601f810183900483028501830190915280845293810193908301828280156119285780601f106118fd57610100808354040283529160200191611928565b820191906000526020600020905b81548152906001019060200180831161190b57829003601f168201915b505050918352505060038201805460408051602060026001851615610100026000190190941693909304601f81018490048402820184019092528181529382019392918301828280156119bc5780601f10611991576101008083540402835291602001916119bc565b820191906000526020600020905b81548152906001019060200180831161199f57829003601f168201915b505050918352505060048201805460408051602060026001851615610100026000190190941693909304601f8101849004840282018401909252818152938201939291830182828015611a505780601f10611a2557610100808354040283529160200191611a50565b820191906000526020600020905b815481529060010190602001808311611a3357829003601f168201915b505050918352505060058201805460408051602060026001851615610100026000190190941693909304601f8101849004840282018401909252818152938201939291830182828015611ae45780601f10611ab957610100808354040283529160200191611ae4565b820191906000526020600020905b815481529060010190602001808311611ac757829003601f168201915b505050918352505060068201805460408051602060026001851615610100026000190190941693909304601f8101849004840282018401909252818152938201939291830182828015611b785780601f10611b4d57610100808354040283529160200191611b78565b820191906000526020600020905b815481529060010190602001808311611b5b57829003601f168201915b505050918352505060078201805460408051602060026001851615610100026000190190941693909304601f8101849004840282018401909252818152938201939291830182828015611c0c5780601f10611be157610100808354040283529160200191611c0c565b820191906000526020600020905b815481529060010190602001808311611bef57829003601f168201915b505050919092525050506080810183905260008481526001602081815260409092208351815582840151805194955085949193611c4e93850192910190612f05565b5060408201518051611c6a916002840191602090910190612f05565b5060608201518051611c86916003840191602090910190612f05565b5060808201518051611ca2916004840191602090910190612f05565b5060a08201518051611cbe916005840191602090910190612f05565b5060c08201518051611cda916006840191602090910190612f05565b5060e08201518051611cf6916007840191602090910190612f05565b509050507f87e2651bc29355533cdeaebe57e6a5dc05b764bdd16e1010aef88e173edfdbc88382608001516040518083815260200180602001828103825283818151815260200191508051906020019080838360005b83811015611d64578181015183820152602001611d4c565b50505050905090810190601f168015611d915780820380516001836020036101000a031916815260200191505b50935050505060405180910390a1505050565b600160208181526000928352604092839020805481840180548651600296821615610100026000190190911695909504601f81018590048502860185019096528585529094919392909190830182828015611e405780601f10611e1557610100808354040283529160200191611e40565b820191906000526020600020905b815481529060010190602001808311611e2357829003601f168201915b50505060028085018054604080516020601f6000196101006001871615020190941695909504928301859004850281018501909152818152959695945090925090830182828015611ed25780601f10611ea757610100808354040283529160200191611ed2565b820191906000526020600020905b815481529060010190602001808311611eb557829003601f168201915b5050505060038301805460408051602060026001851615610100026000190190941693909304601f8101849004840282018401909252818152949594935090830182828015611f625780601f10611f3757610100808354040283529160200191611f62565b820191906000526020600020905b815481529060010190602001808311611f4557829003601f168201915b5050505060048301805460408051602060026001851615610100026000190190941693909304601f8101849004840282018401909252818152949594935090830182828015611ff25780601f10611fc757610100808354040283529160200191611ff2565b820191906000526020600020905b815481529060010190602001808311611fd557829003601f168201915b5050505060058301805460408051602060026001851615610100026000190190941693909304601f81018490048402820184019092528181529495949350908301828280156120825780601f1061205757610100808354040283529160200191612082565b820191906000526020600020905b81548152906001019060200180831161206557829003601f168201915b5050505060068301805460408051602060026001851615610100026000190190941693909304601f81018490048402820184019092528181529495949350908301828280156121125780601f106120e757610100808354040283529160200191612112565b820191906000526020600020905b8154815290600101906020018083116120f557829003601f168201915b5050505060078301805460408051602060026001851615610100026000190190941693909304601f81018490048402820184019092528181529495949350908301828280156121a25780601f10612177576101008083540402835291602001916121a2565b820191906000526020600020905b81548152906001019060200180831161218557829003601f168201915b5050505050905088565b6000818152600260208181526040808420808401546005820154600683015460078401546001808601805488519281161561010002600019011699909904601f8101899004890282018901909752868152606099988a9889988b98899889989497909660038301966004909301959491939092918991908301828280156122745780601f1061224957610100808354040283529160200191612274565b820191906000526020600020905b81548152906001019060200180831161225757829003601f168201915b5050885460408051602060026001851615610100026000190190941693909304601f8101849004840282018401909252818152959c508a9450925084019050828280156123025780601f106122d757610100808354040283529160200191612302565b820191906000526020600020905b8154815290600101906020018083116122e557829003601f168201915b5050875460408051602060026001851615610100026000190190941693909304601f8101849004840282018401909252818152959a50899450925084019050828280156123905780601f1061236557610100808354040283529160200191612390565b820191906000526020600020905b81548152906001019060200180831161237357829003601f168201915b505050505093509650965096509650965096509650919395979092949650565b600081815260016020818152604092839020808301805485516002958216156101000260001901909116859004601f810185900485028201850190965285815260609586958695869586958695869591948301936003840193600481019360058201936006830193600790930192909189918301828280156124735780601f1061244857610100808354040283529160200191612473565b820191906000526020600020905b81548152906001019060200180831161245657829003601f168201915b5050895460408051602060026001851615610100026000190190941693909304601f8101849004840282018401909252818152959c508b9450925084019050828280156125015780601f106124d657610100808354040283529160200191612501565b820191906000526020600020905b8154815290600101906020018083116124e457829003601f168201915b5050885460408051602060026001851615610100026000190190941693909304601f8101849004840282018401909252818152959b508a94509250840190508282801561258f5780601f106125645761010080835404028352916020019161258f565b820191906000526020600020905b81548152906001019060200180831161257257829003601f168201915b5050875460408051602060026001851615610100026000190190941693909304601f8101849004840282018401909252818152959a508994509250840190508282801561261d5780601f106125f25761010080835404028352916020019161261d565b820191906000526020600020905b81548152906001019060200180831161260057829003601f168201915b5050865460408051602060026001851615610100026000190190941693909304601f8101849004840282018401909252818152959950889450925084019050828280156126ab5780601f10612680576101008083540402835291602001916126ab565b820191906000526020600020905b81548152906001019060200180831161268e57829003601f168201915b5050855460408051602060026001851615610100026000190190941693909304601f8101849004840282018401909252818152959850879450925084019050828280156127395780601f1061270e57610100808354040283529160200191612739565b820191906000526020600020905b81548152906001019060200180831161271c57829003601f168201915b5050845460408051602060026001851615610100026000190190941693909304601f8101849004840282018401909252818152959750869450925084019050828280156127c75780601f1061279c576101008083540402835291602001916127c7565b820191906000526020600020905b8154815290600101906020018083116127aa57829003601f168201915b505050505090509650965096509650965096509650919395979092949650565b6000805460010190556127f8612ebf565b6000805480835260208084018b815260408086018c9052606086018b9052608086018a905260a0860189905260c0860188905260e08601879052928452600180835292909320845181559251805185949361285893908501920190612f05565b5060408201518051612874916002840191602090910190612f05565b5060608201518051612890916003840191602090910190612f05565b50608082015180516128ac916004840191602090910190612f05565b5060a082015180516128c8916005840191602090910190612f05565b5060c082015180516128e4916006840191602090910190612f05565b5060e08201518051612900916007840191602090910190612f05565b509050507f885fcc95c75581ffe21d0835a75217dbc27eeac68b459842550369ce95abae4760005489898989898989604051808981526020018060200180602001806020018060200180602001806020018060200188810388528f818151815260200191508051906020019080838360005b8381101561298a578181015183820152602001612972565b50505050905090810190601f1680156129b75780820380516001836020036101000a031916815260200191505b5088810387528e818151815260200191508051906020019080838360005b838110156129ed5781810151838201526020016129d5565b50505050905090810190601f168015612a1a5780820380516001836020036101000a031916815260200191505b5088810386528d5181528d516020918201918f019080838360005b83811015612a4d578181015183820152602001612a35565b50505050905090810190601f168015612a7a5780820380516001836020036101000a031916815260200191505b5088810385528c5181528c516020918201918e019080838360005b83811015612aad578181015183820152602001612a95565b50505050905090810190601f168015612ada5780820380516001836020036101000a031916815260200191505b5088810384528b5181528b516020918201918d019080838360005b83811015612b0d578181015183820152602001612af5565b50505050905090810190601f168015612b3a5780820380516001836020036101000a031916815260200191505b5088810383528a5181528a516020918201918c019080838360005b83811015612b6d578181015183820152602001612b55565b50505050905090810190601f168015612b9a5780820380516001836020036101000a031916815260200191505b5088810382528951815289516020918201918b019080838360005b83811015612bcd578181015183820152602001612bb5565b50505050905090810190601f168015612bfa5780820380516001836020036101000a031916815260200191505b509f5050505050505050505050505050505060405180910390a15050505050505050565b30315b90565b60005481565b612c32612f83565b6000805480835260208084018b815260408086018c9052606086018b9052608086018a905260a0860189905260c0860188905260e08601879052928452600282529190922083518155905180518493612c92926001850192910190612f05565b506040820151600282015560608201518051612cb8916003840191602090910190612f05565b5060808201518051612cd4916004840191602090910190612f05565b5060a0820151816005015560c0820151816006015560e082015181600701559050507f5ee338db78855874b54df61d10b711be7658a86fb1354b2a065dd122d9b1dce6600054898989898989896040518089815260200180602001888152602001806020018060200187815260200186815260200185815260200184810384528b818151815260200191508051906020019080838360005b83811015612d84578181015183820152602001612d6c565b50505050905090810190601f168015612db15780820380516001836020036101000a031916815260200191505b5084810383528951815289516020918201918b019080838360005b83811015612de4578181015183820152602001612dcc565b50505050905090810190601f168015612e115780820380516001836020036101000a031916815260200191505b5084810382528851815288516020918201918a019080838360005b83811015612e44578181015183820152602001612e2c565b50505050905090810190601f168015612e715780820380516001836020036101000a031916815260200191505b509b50505050505050505050505060405180910390a15050505050505050565b612ea08e8e8e8e8e8e8e6127e7565b612eaf87878787878787612c2a565b5050505050505050505050505050565b6101006040519081016040528060008152602001606081526020016060815260200160608152602001606081526020016060815260200160608152602001606081525090565b828054600181600116156101000203166002900490600052602060002090601f016020900481019282601f10612f4657805160ff1916838001178555612f73565b82800160010185558215612f73579182015b82811115612f73578251825591602001919060010190612f58565b50612f7f929150612fc9565b5090565b6101006040519081016040528060008152602001606081526020016000815260200160608152602001606081526020016000815260200160008152602001600081525090565b612c2191905b80821115612f7f5760008155600101612fcf56fea165627a7a72305820850fae8fbb149770e0b3876e8500629bf13a16a21cb279df5dce16201cbf077b0029",
  "source": "// SPDX-License-Identifier: MIT\r\npragma solidity >=0.4.22 <0.9.0;\r\n\r\ncontract ContractSC {\r\n    uint256 public contractCount = 0;\r\n\r\n    struct Contract {\r\n        uint256 contract_id;\r\n        string contract_type;\r\n        string contract_name;\r\n        string job_title;\r\n        string status;\r\n        string scope_of_work;\r\n        string start_date;\r\n        string end_date;\r\n    }\r\n\r\n    struct ContractDetails {\r\n        uint256 contract_id;\r\n        string currency;\r\n        int256 payment_rate;\r\n        string payment_frequency;\r\n        string payment_due;\r\n        uint256 employer_id;\r\n        uint256 contractor_id;\r\n        uint256 proposal_id;\r\n    }\r\n\r\n    event ChangedContractStatus(uint256 contract_id, string status);\r\n\r\n    mapping(uint256 => Contract) public contracts;\r\n    mapping(uint256 => ContractDetails) public contracts_details;\r\n\r\n    event ContractCreated(\r\n        uint256 contract_id,\r\n        string contract_type,\r\n        string contract_name,\r\n        string job_title,\r\n        string status,\r\n        string scope_of_work,\r\n        string start_date,\r\n        string end_date\r\n    );\r\n\r\n    event ContractDetailsCreated(\r\n        uint256 contract_id,\r\n        string currency,\r\n        int256 payment_rate,\r\n        string payment_frequency,\r\n        string payment_due,\r\n        uint256 employer_id,\r\n        uint256 contractor_id,\r\n        uint256 proposal_id\r\n    );\r\n\r\n    constructor() public {\r\n        createContract(\r\n            \"Contractor\",\r\n            \"Test Contract\",\r\n            \"Backend Developer\",\r\n            \"Both parties agreed\",\r\n            \"5 endpoints\",\r\n            \"15/05/2022\",\r\n            \"20/05/2022\",\r\n            \"COP\",\r\n            1800000,\r\n            \"Monthly\",\r\n            \"30\",\r\n            1,\r\n            1,\r\n            1\r\n        );\r\n    }\r\n\r\n    function createContract(\r\n        string memory contract_type,\r\n        string memory contract_name,\r\n        string memory job_title,\r\n        string memory status,\r\n        string memory scope_of_work,\r\n        string memory start_date,\r\n        string memory end_date,\r\n        string memory currency,\r\n        int256 payment_rate,\r\n        string memory payment_frequency,\r\n        string memory payment_due,\r\n        uint256 employer_id,\r\n        uint256 contractor_id,\r\n        uint256 proposal_id\r\n    ) public {\r\n        addContract(\r\n            contract_type,\r\n            contract_name,\r\n            job_title,\r\n            status,\r\n            scope_of_work,\r\n            start_date,\r\n            end_date\r\n        );\r\n        addContractDetails(\r\n            currency,\r\n            payment_rate,\r\n            payment_frequency,\r\n            payment_due,\r\n            employer_id,\r\n            contractor_id,\r\n            proposal_id\r\n        );\r\n    }\r\n\r\n    function addContract(\r\n        string memory contract_type,\r\n        string memory contract_name,\r\n        string memory job_title,\r\n        string memory status,\r\n        string memory scope_of_work,\r\n        string memory start_date,\r\n        string memory end_date\r\n    ) public {\r\n        contractCount++;\r\n        Contract memory contractInfo;\r\n\r\n        contractInfo.contract_id = contractCount;\r\n        contractInfo.contract_type = contract_type;\r\n        contractInfo.contract_name = contract_name;\r\n        contractInfo.job_title = job_title;\r\n        contractInfo.status = status;\r\n        contractInfo.scope_of_work = scope_of_work;\r\n        contractInfo.start_date = start_date;\r\n        contractInfo.end_date = end_date;\r\n\r\n        contracts[contractCount] = contractInfo;\r\n        emit ContractCreated(\r\n            contractCount,\r\n            contract_type,\r\n            contract_name,\r\n            job_title,\r\n            status,\r\n            scope_of_work,\r\n            start_date,\r\n            end_date\r\n        );\r\n    }\r\n\r\n    function addContractDetails(\r\n        string memory currency,\r\n        int256 payment_rate,\r\n        string memory payment_frequency,\r\n        string memory payment_due,\r\n        uint256 employer_id,\r\n        uint256 contractor_id,\r\n        uint256 proposal_id\r\n    ) public {\r\n        ContractDetails memory contractDetails;\r\n\r\n        contractDetails.contract_id = contractCount;\r\n        contractDetails.currency = currency;\r\n        contractDetails.payment_rate = payment_rate;\r\n        contractDetails.payment_frequency = payment_frequency;\r\n        contractDetails.payment_due = payment_due;\r\n        contractDetails.employer_id = employer_id;\r\n        contractDetails.contractor_id = contractor_id;\r\n        contractDetails.proposal_id = proposal_id;\r\n\r\n        contracts_details[contractCount] = contractDetails;\r\n        emit ContractDetailsCreated(\r\n            contractCount,\r\n            currency,\r\n            payment_rate,\r\n            payment_frequency,\r\n            payment_due,\r\n            employer_id,\r\n            contractor_id,\r\n            proposal_id\r\n        );\r\n    }\r\n\r\n     function setContractStatus(uint256 _id, string memory status) public {\r\n        Contract memory _contract = contracts[_id];\r\n        _contract.status = status;\r\n        contracts[_id] = _contract;\r\n        emit ChangedContractStatus(_id, _contract.status);\r\n    }   \r\n\r\n    function getContract(uint index) public view returns(string memory, string memory, string memory, string memory, string memory, string memory, string memory) {\r\n        return (contracts[index].contract_type, contracts[index].contract_name, contracts[index].job_title,  contracts[index].status, contracts[index].scope_of_work, contracts[index].start_date, contracts[index].end_date);\r\n    }\r\n\r\n    function getContractDetails(uint index) public view returns(string memory, int256, string memory, string memory, uint256, uint256, uint256) {\r\n        return (contracts_details[index].currency, contracts_details[index].payment_rate, contracts_details[index].payment_frequency,  contracts_details[index].payment_due, contracts_details[index].employer_id, contracts_details[index].contractor_id, contracts_details[index].proposal_id);\r\n    }\r\n\r\n    // funcion para depositar ether en el smart contract\r\n    function() external payable {}\r\n\r\n    // funcion para mostrar cuanto ether tiene este smart contract\r\n    function showBalance() external view returns (uint256) {\r\n        return address(this).balance;\r\n    }\r\n}\r\n",
  "sourcePath": "C:/Users/USER/Documents/2022PrimerSemestre/pf/SmartDeal/contracts/Contract.sol",
  "compiler": {
    "name": "solc",
    "version": "0.5.0+commit.1d4f565a.Emscripten.clang"
  },
  "schemaVersion": "3.0.1",
  "updatedAt": "2022-05-15T21:53:57.351Z",
  "devdoc": {
    "methods": {}
  },
  "userdoc": {
    "methods": {}
  }
}