{
  "contractName": "InvoiceSC",
  "abi": [
    {
      "constant": true,
      "inputs": [],
      "name": "invoiceCount",
      "outputs": [
        {
          "name": "",
          "type": "uint256"
        }
      ],
      "payable": false,
      "stateMutability": "view",
      "type": "function",
      "signature": "0x1346f0c4"
    },
    {
      "constant": true,
      "inputs": [
        {
          "name": "",
          "type": "uint256"
        }
      ],
      "name": "invoices",
      "outputs": [
        {
          "name": "invoice_id",
          "type": "uint256"
        },
        {
          "name": "bill_from",
          "type": "string"
        },
        {
          "name": "bill_to",
          "type": "string"
        },
        {
          "name": "status",
          "type": "string"
        },
        {
          "name": "due_date",
          "type": "string"
        },
        {
          "name": "paid_date",
          "type": "string"
        },
        {
          "name": "description",
          "type": "string"
        },
        {
          "name": "amount",
          "type": "int256"
        },
        {
          "name": "transaction_id",
          "type": "uint256"
        }
      ],
      "payable": false,
      "stateMutability": "view",
      "type": "function",
      "signature": "0x4e6d1405"
    },
    {
      "inputs": [],
      "payable": false,
      "stateMutability": "nonpayable",
      "type": "constructor",
      "signature": "constructor"
    },
    {
      "anonymous": false,
      "inputs": [
        {
          "indexed": false,
          "name": "invoice_id",
          "type": "uint256"
        },
        {
          "indexed": false,
          "name": "bill_from",
          "type": "string"
        },
        {
          "indexed": false,
          "name": "bill_to",
          "type": "string"
        },
        {
          "indexed": false,
          "name": "status",
          "type": "string"
        },
        {
          "indexed": false,
          "name": "due_date",
          "type": "string"
        },
        {
          "indexed": false,
          "name": "paid_date",
          "type": "string"
        },
        {
          "indexed": false,
          "name": "description",
          "type": "string"
        },
        {
          "indexed": false,
          "name": "amount",
          "type": "int256"
        },
        {
          "indexed": false,
          "name": "transaction_id",
          "type": "uint256"
        }
      ],
      "name": "InvoiceCreated",
      "type": "event",
      "signature": "0x3f96052d4413578c84b05801ecd54c3bf6a4ae18f249d5008dd9ff222ef15ce3"
    },
    {
      "constant": false,
      "inputs": [
        {
          "name": "bill_from",
          "type": "string"
        },
        {
          "name": "bill_to",
          "type": "string"
        },
        {
          "name": "status",
          "type": "string"
        },
        {
          "name": "due_date",
          "type": "string"
        },
        {
          "name": "paid_date",
          "type": "string"
        },
        {
          "name": "description",
          "type": "string"
        },
        {
          "name": "amount",
          "type": "int256"
        },
        {
          "name": "transaction_id",
          "type": "uint256"
        }
      ],
      "name": "createInvoice",
      "outputs": [],
      "payable": false,
      "stateMutability": "nonpayable",
      "type": "function",
      "signature": "0x4e782ce1"
    },
    {
      "constant": true,
      "inputs": [],
      "name": "showBalance",
      "outputs": [
        {
          "name": "",
          "type": "uint256"
        }
      ],
      "payable": false,
      "stateMutability": "view",
      "type": "function",
      "signature": "0x81b2d07b"
    }
  ],
  "bytecode": "0x6080604052600080553480156200001557600080fd5b50604080518082018252600581527f4a616d617200000000000000000000000000000000000000000000000000000060208083019190915282518084018452600c81527f4a6573757320526f6d65726f00000000000000000000000000000000000000008183015283518085018552600a8082527f5472616e7366657265640000000000000000000000000000000000000000000082850152855180870187528181527f33302f30352f3230323200000000000000000000000000000000000000000000818601819052875180890189529283528286015286519485019096526000845262000118959293919291621b774060016401000000006200011e810204565b62000612565b6000805460010190556200013162000520565b6000805480835260208084018c815260408086018d9052606086018c9052608086018b905260a086018a905260c0860189905260e08601889052610100860187905292845260018083529290932084518155925180518594936200019b939085019201906200056d565b5060408201518051620001b99160028401916020909101906200056d565b5060608201518051620001d79160038401916020909101906200056d565b5060808201518051620001f59160048401916020909101906200056d565b5060a08201518051620002139160058401916020909101906200056d565b5060c08201518051620002319160068401916020909101906200056d565b5060e0820151816007015561010082015181600801559050507f3f96052d4413578c84b05801ecd54c3bf6a4ae18f249d5008dd9ff222ef15ce36000548a8a8a8a8a8a8a8a604051808a815260200180602001806020018060200180602001806020018060200189815260200188815260200187810387528f818151815260200191508051906020019080838360005b83811015620002db578181015183820152602001620002c1565b50505050905090810190601f168015620003095780820380516001836020036101000a031916815260200191505b5087810386528e818151815260200191508051906020019080838360005b838110156200034157818101518382015260200162000327565b50505050905090810190601f1680156200036f5780820380516001836020036101000a031916815260200191505b5087810385528d5181528d516020918201918f019080838360005b83811015620003a45781810151838201526020016200038a565b50505050905090810190601f168015620003d25780820380516001836020036101000a031916815260200191505b5087810384528c5181528c516020918201918e019080838360005b8381101562000407578181015183820152602001620003ed565b50505050905090810190601f168015620004355780820380516001836020036101000a031916815260200191505b5087810383528b5181528b516020918201918d019080838360005b838110156200046a57818101518382015260200162000450565b50505050905090810190601f168015620004985780820380516001836020036101000a031916815260200191505b5087810382528a5181528a516020918201918c019080838360005b83811015620004cd578181015183820152602001620004b3565b50505050905090810190601f168015620004fb5780820380516001836020036101000a031916815260200191505b509f5050505050505050505050505050505060405180910390a1505050505050505050565b610120604051908101604052806000815260200160608152602001606081526020016060815260200160608152602001606081526020016060815260200160008152602001600081525090565b828054600181600116156101000203166002900490600052602060002090601f016020900481019282601f10620005b057805160ff1916838001178555620005e0565b82800160010185558215620005e0579182015b82811115620005e0578251825591602001919060010190620005c3565b50620005ee929150620005f2565b5090565b6200060f91905b80821115620005ee5760008155600101620005f9565b90565b610f3b80620006226000396000f3fe6080604052600436106100615763ffffffff7c01000000000000000000000000000000000000000000000000000000006000350416631346f0c481146100665780634e6d14051461008d5780634e782ce11461034557806381b2d07b146106a3575b600080fd5b34801561007257600080fd5b5061007b6106b8565b60408051918252519081900360200190f35b34801561009957600080fd5b506100b7600480360360208110156100b057600080fd5b50356106be565b604051808a815260200180602001806020018060200180602001806020018060200189815260200188815260200187810387528f818151815260200191508051906020019080838360005b8381101561011a578181015183820152602001610102565b50505050905090810190601f1680156101475780820380516001836020036101000a031916815260200191505b5087810386528e818151815260200191508051906020019080838360005b8381101561017d578181015183820152602001610165565b50505050905090810190601f1680156101aa5780820380516001836020036101000a031916815260200191505b5087810385528d5181528d516020918201918f019080838360005b838110156101dd5781810151838201526020016101c5565b50505050905090810190601f16801561020a5780820380516001836020036101000a031916815260200191505b5087810384528c5181528c516020918201918e019080838360005b8381101561023d578181015183820152602001610225565b50505050905090810190601f16801561026a5780820380516001836020036101000a031916815260200191505b5087810383528b5181528b516020918201918d019080838360005b8381101561029d578181015183820152602001610285565b50505050905090810190601f1680156102ca5780820380516001836020036101000a031916815260200191505b5087810382528a5181528a516020918201918c019080838360005b838110156102fd5781810151838201526020016102e5565b50505050905090810190601f16801561032a5780820380516001836020036101000a031916815260200191505b509f5050505050505050505050505050505060405180910390f35b34801561035157600080fd5b506106a1600480360361010081101561036957600080fd5b81019060208101813564010000000081111561038457600080fd5b82018360208201111561039657600080fd5b803590602001918460018302840111640100000000831117156103b857600080fd5b91908080601f016020809104026020016040519081016040528093929190818152602001838380828437600092019190915250929594936020810193503591505064010000000081111561040b57600080fd5b82018360208201111561041d57600080fd5b8035906020019184600183028401116401000000008311171561043f57600080fd5b91908080601f016020809104026020016040519081016040528093929190818152602001838380828437600092019190915250929594936020810193503591505064010000000081111561049257600080fd5b8201836020820111156104a457600080fd5b803590602001918460018302840111640100000000831117156104c657600080fd5b91908080601f016020809104026020016040519081016040528093929190818152602001838380828437600092019190915250929594936020810193503591505064010000000081111561051957600080fd5b82018360208201111561052b57600080fd5b8035906020019184600183028401116401000000008311171561054d57600080fd5b91908080601f01602080910402602001604051908101604052809392919081815260200183838082843760009201919091525092959493602081019350359150506401000000008111156105a057600080fd5b8201836020820111156105b257600080fd5b803590602001918460018302840111640100000000831117156105d457600080fd5b91908080601f016020809104026020016040519081016040528093929190818152602001838380828437600092019190915250929594936020810193503591505064010000000081111561062757600080fd5b82018360208201111561063957600080fd5b8035906020019184600183028401116401000000008311171561065b57600080fd5b91908080601f0160208091040260200160405190810160405280939291908181526020018383808284376000920191909152509295505082359350505060200135610a42565b005b3480156106af57600080fd5b5061007b610e24565b60005481565b600160208181526000928352604092839020805481840180548651600296821615610100026000190190911695909504601f8101859004850286018501909652858552909491939290919083018282801561075a5780601f1061072f5761010080835404028352916020019161075a565b820191906000526020600020905b81548152906001019060200180831161073d57829003601f168201915b50505060028085018054604080516020601f60001961010060018716150201909416959095049283018590048502810185019091528181529596959450909250908301828280156107ec5780601f106107c1576101008083540402835291602001916107ec565b820191906000526020600020905b8154815290600101906020018083116107cf57829003601f168201915b5050505060038301805460408051602060026001851615610100026000190190941693909304601f810184900484028201840190925281815294959493509083018282801561087c5780601f106108515761010080835404028352916020019161087c565b820191906000526020600020905b81548152906001019060200180831161085f57829003601f168201915b5050505060048301805460408051602060026001851615610100026000190190941693909304601f810184900484028201840190925281815294959493509083018282801561090c5780601f106108e15761010080835404028352916020019161090c565b820191906000526020600020905b8154815290600101906020018083116108ef57829003601f168201915b5050505060058301805460408051602060026001851615610100026000190190941693909304601f810184900484028201840190925281815294959493509083018282801561099c5780601f106109715761010080835404028352916020019161099c565b820191906000526020600020905b81548152906001019060200180831161097f57829003601f168201915b5050505060068301805460408051602060026001851615610100026000190190941693909304601f8101849004840282018401909252818152949594935090830182828015610a2c5780601f10610a0157610100808354040283529160200191610a2c565b820191906000526020600020905b815481529060010190602001808311610a0f57829003601f168201915b5050505050908060070154908060080154905089565b600080546001019055610a53610e2a565b6000805480835260208084018c815260408086018d9052606086018c9052608086018b905260a086018a905260c0860189905260e0860188905261010086018790529284526001808352929093208451815592518051859493610abb93908501920190610e77565b5060408201518051610ad7916002840191602090910190610e77565b5060608201518051610af3916003840191602090910190610e77565b5060808201518051610b0f916004840191602090910190610e77565b5060a08201518051610b2b916005840191602090910190610e77565b5060c08201518051610b47916006840191602090910190610e77565b5060e0820151816007015561010082015181600801559050507f3f96052d4413578c84b05801ecd54c3bf6a4ae18f249d5008dd9ff222ef15ce36000548a8a8a8a8a8a8a8a604051808a815260200180602001806020018060200180602001806020018060200189815260200188815260200187810387528f818151815260200191508051906020019080838360005b83811015610bef578181015183820152602001610bd7565b50505050905090810190601f168015610c1c5780820380516001836020036101000a031916815260200191505b5087810386528e818151815260200191508051906020019080838360005b83811015610c52578181015183820152602001610c3a565b50505050905090810190601f168015610c7f5780820380516001836020036101000a031916815260200191505b5087810385528d5181528d516020918201918f019080838360005b83811015610cb2578181015183820152602001610c9a565b50505050905090810190601f168015610cdf5780820380516001836020036101000a031916815260200191505b5087810384528c5181528c516020918201918e019080838360005b83811015610d12578181015183820152602001610cfa565b50505050905090810190601f168015610d3f5780820380516001836020036101000a031916815260200191505b5087810383528b5181528b516020918201918d019080838360005b83811015610d72578181015183820152602001610d5a565b50505050905090810190601f168015610d9f5780820380516001836020036101000a031916815260200191505b5087810382528a5181528a516020918201918c019080838360005b83811015610dd2578181015183820152602001610dba565b50505050905090810190601f168015610dff5780820380516001836020036101000a031916815260200191505b509f5050505050505050505050505050505060405180910390a1505050505050505050565b30315b90565b610120604051908101604052806000815260200160608152602001606081526020016060815260200160608152602001606081526020016060815260200160008152602001600081525090565b828054600181600116156101000203166002900490600052602060002090601f016020900481019282601f10610eb857805160ff1916838001178555610ee5565b82800160010185558215610ee5579182015b82811115610ee5578251825591602001919060010190610eca565b50610ef1929150610ef5565b5090565b610e2791905b80821115610ef15760008155600101610efb56fea165627a7a72305820d618a738e9004956d12af59431494d50b40d8024019ba343e501f4e40fd4763b0029",
  "source": "// SPDX-License-Identifier: MIT\r\npragma solidity >=0.4.22 <0.9.0;\r\n\r\ncontract InvoiceSC {\r\n    uint256 public invoiceCount = 0;\r\n\r\n    struct Invoice {\r\n        uint256 invoice_id;\r\n        string bill_from;\r\n        string bill_to;\r\n        string status;\r\n        string due_date;\r\n        string paid_date;\r\n        string description;\r\n        int256 amount;\r\n        uint256 transaction_id;\r\n    }\r\n\r\n    mapping(uint256 => Invoice) public invoices;\r\n\r\n    event InvoiceCreated(\r\n        uint256 invoice_id,\r\n        string bill_from,\r\n        string bill_to,\r\n        string status,\r\n        string due_date,\r\n        string paid_date,\r\n        string description,\r\n        int256 amount,\r\n        uint256 transaction_id\r\n    );\r\n\r\n    constructor() public {\r\n        createInvoice(\r\n            \"Jamar\",\r\n            \"Jesus Romero\",\r\n            \"Transfered\",\r\n            \"30/05/2022\",\r\n            \"30/05/2022\",\r\n            \"\",\r\n            1800000,\r\n            1\r\n        );\r\n    }\r\n\r\n    function createInvoice(\r\n        string memory bill_from,\r\n        string memory bill_to,\r\n        string memory status,\r\n        string memory due_date,\r\n        string memory paid_date,\r\n        string memory description,\r\n        int256 amount,\r\n        uint256 transaction_id\r\n    ) public {\r\n        invoiceCount++;\r\n        Invoice memory invoiceInfo;\r\n\r\n        invoiceInfo.invoice_id = invoiceCount;\r\n        invoiceInfo.bill_from = bill_from;\r\n        invoiceInfo.bill_to = bill_to;\r\n        invoiceInfo.status = status;\r\n        invoiceInfo.due_date = due_date;\r\n        invoiceInfo.paid_date = paid_date;\r\n        invoiceInfo.description = description;\r\n        invoiceInfo.amount = amount;\r\n        invoiceInfo.transaction_id = transaction_id;\r\n\r\n        invoices[invoiceCount] = invoiceInfo;\r\n        emit InvoiceCreated(\r\n            invoiceCount,\r\n            bill_from,\r\n            bill_to,\r\n            status,\r\n            due_date,\r\n            paid_date,\r\n            description,\r\n            amount,\r\n            transaction_id\r\n        );\r\n    }\r\n\r\n    function showBalance() external view returns (uint256) {\r\n        return address(this).balance;\r\n    }\r\n}\r\n",
  "sourcePath": "C:/Users/USER/Documents/2022PrimerSemestre/pf/SmartDeal/contracts/Invoices.sol",
  "compiler": {
    "name": "solc",
    "version": "0.5.0+commit.1d4f565a.Emscripten.clang"
  },
  "schemaVersion": "3.0.1",
  "updatedAt": "2022-05-27T03:17:35.428Z",
  "devdoc": {
    "methods": {}
  },
  "userdoc": {
    "methods": {}
  }
}