{
  "contractName": "ProposalSC",
  "abi": [
    {
      "constant": true,
      "inputs": [
        {
          "name": "",
          "type": "uint256"
        }
      ],
      "name": "proposals",
      "outputs": [
        {
          "name": "proposal_id",
          "type": "uint256"
        },
        {
          "name": "payment_rate",
          "type": "int256"
        },
        {
          "name": "scope_of_work",
          "type": "string"
        },
        {
          "name": "payment_frequency",
          "type": "string"
        },
        {
          "name": "employer_id",
          "type": "uint256"
        },
        {
          "name": "contractor_id",
          "type": "uint256"
        },
        {
          "name": "start_date",
          "type": "string"
        },
        {
          "name": "end_date",
          "type": "string"
        },
        {
          "name": "contract_type",
          "type": "string"
        }
      ],
      "payable": false,
      "stateMutability": "view",
      "type": "function",
      "signature": "0x013cf08b"
    },
    {
      "constant": true,
      "inputs": [],
      "name": "proposalCount",
      "outputs": [
        {
          "name": "",
          "type": "uint256"
        }
      ],
      "payable": false,
      "stateMutability": "view",
      "type": "function",
      "signature": "0xda35c664"
    },
    {
      "inputs": [],
      "payable": false,
      "stateMutability": "nonpayable",
      "type": "constructor",
      "signature": "constructor"
    },
    {
      "anonymous": false,
      "inputs": [
        {
          "indexed": false,
          "name": "proposal_id",
          "type": "uint256"
        },
        {
          "indexed": false,
          "name": "payment_rate",
          "type": "int256"
        },
        {
          "indexed": false,
          "name": "scope_of_work",
          "type": "string"
        },
        {
          "indexed": false,
          "name": "payment_frequency",
          "type": "string"
        },
        {
          "indexed": false,
          "name": "employer_id",
          "type": "uint256"
        },
        {
          "indexed": false,
          "name": "contractor_id",
          "type": "uint256"
        },
        {
          "indexed": false,
          "name": "start_date",
          "type": "string"
        },
        {
          "indexed": false,
          "name": "end_date",
          "type": "string"
        },
        {
          "indexed": false,
          "name": "contract_type",
          "type": "string"
        }
      ],
      "name": "ProposalCreated",
      "type": "event",
      "signature": "0xce1aaf6af4b3ed8d8a5d0dc468141394d0408e48be78acba5b0680ae8d8475f6"
    },
    {
      "constant": false,
      "inputs": [
        {
          "name": "payment_rate",
          "type": "int256"
        },
        {
          "name": "scope_of_work",
          "type": "string"
        },
        {
          "name": "payment_frequency",
          "type": "string"
        },
        {
          "name": "employer_id",
          "type": "uint256"
        },
        {
          "name": "contractor_id",
          "type": "uint256"
        },
        {
          "name": "start_date",
          "type": "string"
        },
        {
          "name": "end_date",
          "type": "string"
        },
        {
          "name": "contract_type",
          "type": "string"
        }
      ],
      "name": "createProposal",
      "outputs": [],
      "payable": false,
      "stateMutability": "nonpayable",
      "type": "function",
      "signature": "0x9e9a9e33"
    },
    {
      "constant": true,
      "inputs": [],
      "name": "showBalance",
      "outputs": [
        {
          "name": "",
          "type": "uint256"
        }
      ],
      "payable": false,
      "stateMutability": "view",
      "type": "function",
      "signature": "0x81b2d07b"
    }
  ],
  "bytecode": "0x6080604052600080553480156200001557600080fd5b50620001436107d06040805190810160405280600b81526020017f3320656e64706f696e74730000000000000000000000000000000000000000008152506040805190810160405280600781526020017f4d6f6e74686c79000000000000000000000000000000000000000000000000008152506001806040805190810160405280600a81526020017f32322f30352f32303232000000000000000000000000000000000000000000008152506040805190810160405280600a81526020017f32332f30352f32303232000000000000000000000000000000000000000000008152506040805190810160405280600a81526020017f466978656420526174650000000000000000000000000000000000000000000081525062000149640100000000026401000000009004565b620005c3565b6000805460010190556200015c620004d1565b6000805480835260208084018c815260408086018d8152606087018d9052608087018c905260a087018b905260c087018a905260e087018990526101008701889052938552600180845294208551815590519381019390935590518051849392620001cf9260028501929101906200051e565b5060608201518051620001ed9160038401916020909101906200051e565b506080820151600482015560a0820151600582015560c082015180516200021f9160068401916020909101906200051e565b5060e082015180516200023d9160078401916020909101906200051e565b5061010082015180516200025c9160088401916020909101906200051e565b509050507fce1aaf6af4b3ed8d8a5d0dc468141394d0408e48be78acba5b0680ae8d8475f66000548a8a8a8a8a8a8a8a604051808a8152602001898152602001806020018060200188815260200187815260200180602001806020018060200186810386528d818151815260200191508051906020019080838360005b83811015620002f3578181015183820152602001620002d9565b50505050905090810190601f168015620003215780820380516001836020036101000a031916815260200191505b5086810385528c5181528c516020918201918e019080838360005b83811015620003565781810151838201526020016200033c565b50505050905090810190601f168015620003845780820380516001836020036101000a031916815260200191505b5086810384528951815289516020918201918b019080838360005b83811015620003b95781810151838201526020016200039f565b50505050905090810190601f168015620003e75780820380516001836020036101000a031916815260200191505b5086810383528851815288516020918201918a019080838360005b838110156200041c57818101518382015260200162000402565b50505050905090810190601f1680156200044a5780820380516001836020036101000a031916815260200191505b50868103825287518152875160209182019189019080838360005b838110156200047f57818101518382015260200162000465565b50505050905090810190601f168015620004ad5780820380516001836020036101000a031916815260200191505b509e50505050505050505050505050505060405180910390a1505050505050505050565b610120604051908101604052806000815260200160008152602001606081526020016060815260200160008152602001600081526020016060815260200160608152602001606081525090565b828054600181600116156101000203166002900490600052602060002090601f016020900481019282601f106200056157805160ff191683800117855562000591565b8280016001018555821562000591579182015b828111156200059157825182559160200191906001019062000574565b506200059f929150620005a3565b5090565b620005c091905b808211156200059f5760008155600101620005aa565b90565b610d8380620005d36000396000f3fe6080604052600436106100615763ffffffff7c0100000000000000000000000000000000000000000000000000000000600035041663013cf08b811461006657806381b2d07b146102bc5780639e9a9e33146102e3578063da35c664146105c8575b600080fd5b34801561007257600080fd5b506100906004803603602081101561008957600080fd5b50356105dd565b604051808a8152602001898152602001806020018060200188815260200187815260200180602001806020018060200186810386528d818151815260200191508051906020019080838360005b838110156100f55781810151838201526020016100dd565b50505050905090810190601f1680156101225780820380516001836020036101000a031916815260200191505b5086810385528c5181528c516020918201918e019080838360005b8381101561015557818101518382015260200161013d565b50505050905090810190601f1680156101825780820380516001836020036101000a031916815260200191505b5086810384528951815289516020918201918b019080838360005b838110156101b557818101518382015260200161019d565b50505050905090810190601f1680156101e25780820380516001836020036101000a031916815260200191505b5086810383528851815288516020918201918a019080838360005b838110156102155781810151838201526020016101fd565b50505050905090810190601f1680156102425780820380516001836020036101000a031916815260200191505b50868103825287518152875160209182019189019080838360005b8381101561027557818101518382015260200161025d565b50505050905090810190601f1680156102a25780820380516001836020036101000a031916815260200191505b509e50505050505050505050505050505060405180910390f35b3480156102c857600080fd5b506102d16108f9565b60408051918252519081900360200190f35b3480156102ef57600080fd5b506105c6600480360361010081101561030757600080fd5b8135919081019060408101602082013564010000000081111561032957600080fd5b82018360208201111561033b57600080fd5b8035906020019184600183028401116401000000008311171561035d57600080fd5b91908080601f01602080910402602001604051908101604052809392919081815260200183838082843760009201919091525092959493602081019350359150506401000000008111156103b057600080fd5b8201836020820111156103c257600080fd5b803590602001918460018302840111640100000000831117156103e457600080fd5b91908080601f016020809104026020016040519081016040528093929190818152602001838380828437600092019190915250929584359560208601359591945092506060810191506040013564010000000081111561044357600080fd5b82018360208201111561045557600080fd5b8035906020019184600183028401116401000000008311171561047757600080fd5b91908080601f01602080910402602001604051908101604052809392919081815260200183838082843760009201919091525092959493602081019350359150506401000000008111156104ca57600080fd5b8201836020820111156104dc57600080fd5b803590602001918460018302840111640100000000831117156104fe57600080fd5b91908080601f016020809104026020016040519081016040528093929190818152602001838380828437600092019190915250929594936020810193503591505064010000000081111561055157600080fd5b82018360208201111561056357600080fd5b8035906020019184600183028401116401000000008311171561058557600080fd5b91908080601f0160208091040260200160405190810160405280939291908181526020018383808284376000920191909152509295506108ff945050505050565b005b3480156105d457600080fd5b506102d1610c6c565b6001602052806000526040600020600091509050806000015490806001015490806002018054600181600116156101000203166002900480601f0160208091040260200160405190810160405280929190818152602001828054600181600116156101000203166002900480156106955780601f1061066a57610100808354040283529160200191610695565b820191906000526020600020905b81548152906001019060200180831161067857829003601f168201915b5050505060038301805460408051602060026001851615610100026000190190941693909304601f81018490048402820184019092528181529495949350908301828280156107255780601f106106fa57610100808354040283529160200191610725565b820191906000526020600020905b81548152906001019060200180831161070857829003601f168201915b505050505090806004015490806005015490806006018054600181600116156101000203166002900480601f0160208091040260200160405190810160405280929190818152602001828054600181600116156101000203166002900480156107cf5780601f106107a4576101008083540402835291602001916107cf565b820191906000526020600020905b8154815290600101906020018083116107b257829003601f168201915b5050505060078301805460408051602060026001851615610100026000190190941693909304601f810184900484028201840190925281815294959493509083018282801561085f5780601f106108345761010080835404028352916020019161085f565b820191906000526020600020905b81548152906001019060200180831161084257829003601f168201915b5050505060088301805460408051602060026001851615610100026000190190941693909304601f81018490048402820184019092528181529495949350908301828280156108ef5780601f106108c4576101008083540402835291602001916108ef565b820191906000526020600020905b8154815290600101906020018083116108d257829003601f168201915b5050505050905089565b30315b90565b600080546001019055610910610c72565b6000805480835260208084018c815260408086018d8152606087018d9052608087018c905260a087018b905260c087018a905260e087018990526101008701889052938552600180845294208551815590519381019390935590518051849392610981926002850192910190610cbf565b506060820151805161099d916003840191602090910190610cbf565b506080820151600482015560a0820151600582015560c082015180516109cd916006840191602090910190610cbf565b5060e082015180516109e9916007840191602090910190610cbf565b506101008201518051610a06916008840191602090910190610cbf565b509050507fce1aaf6af4b3ed8d8a5d0dc468141394d0408e48be78acba5b0680ae8d8475f66000548a8a8a8a8a8a8a8a604051808a8152602001898152602001806020018060200188815260200187815260200180602001806020018060200186810386528d818151815260200191508051906020019080838360005b83811015610a9b578181015183820152602001610a83565b50505050905090810190601f168015610ac85780820380516001836020036101000a031916815260200191505b5086810385528c5181528c516020918201918e019080838360005b83811015610afb578181015183820152602001610ae3565b50505050905090810190601f168015610b285780820380516001836020036101000a031916815260200191505b5086810384528951815289516020918201918b019080838360005b83811015610b5b578181015183820152602001610b43565b50505050905090810190601f168015610b885780820380516001836020036101000a031916815260200191505b5086810383528851815288516020918201918a019080838360005b83811015610bbb578181015183820152602001610ba3565b50505050905090810190601f168015610be85780820380516001836020036101000a031916815260200191505b50868103825287518152875160209182019189019080838360005b83811015610c1b578181015183820152602001610c03565b50505050905090810190601f168015610c485780820380516001836020036101000a031916815260200191505b509e50505050505050505050505050505060405180910390a1505050505050505050565b60005481565b610120604051908101604052806000815260200160008152602001606081526020016060815260200160008152602001600081526020016060815260200160608152602001606081525090565b828054600181600116156101000203166002900490600052602060002090601f016020900481019282601f10610d0057805160ff1916838001178555610d2d565b82800160010185558215610d2d579182015b82811115610d2d578251825591602001919060010190610d12565b50610d39929150610d3d565b5090565b6108fc91905b80821115610d395760008155600101610d4356fea165627a7a72305820799aff5befe0f20b74f7a8dfad3d8944b70c04a0b673f106a6a5b8c3249a85200029",
  "source": "// SPDX-License-Identifier: MIT\r\npragma solidity >=0.4.22 <0.9.0;\r\n\r\ncontract ProposalSC {\r\n    uint256 public proposalCount = 0;\r\n\r\n    struct Proposal {\r\n        uint256 proposal_id;\r\n        int256 payment_rate;\r\n        string scope_of_work;\r\n        string payment_frequency;\r\n        uint256 employer_id;\r\n        uint256 contractor_id;\r\n        string start_date;\r\n        string end_date;\r\n        string contract_type;\r\n    }\r\n\r\n    // event ProposalStatus(uint256 contract_id);\r\n\r\n    mapping(uint256 => Proposal) public proposals;\r\n\r\n    event ProposalCreated(\r\n        uint256 proposal_id,\r\n        int256 payment_rate,\r\n        string scope_of_work,\r\n        string payment_frequency,\r\n        uint256 employer_id,\r\n        uint256 contractor_id,\r\n        string start_date,\r\n        string end_date,\r\n        string contract_type\r\n    );\r\n\r\n    constructor() public {\r\n        createProposal(\r\n            2000,\r\n            \"3 endpoints\",\r\n            \"Monthly\",\r\n            1,\r\n            1,\r\n            \"22/05/2022\",\r\n            \"23/05/2022\",\r\n            \"Fixed Rate\"\r\n        );\r\n    }\r\n\r\n    function createProposal(\r\n        int256 payment_rate,\r\n        string memory scope_of_work,\r\n        string memory payment_frequency,\r\n        uint256 employer_id,\r\n        uint256 contractor_id,\r\n        string memory start_date,\r\n        string memory end_date,\r\n        string memory contract_type\r\n    ) public {\r\n        proposalCount++;\r\n        Proposal memory proposalInfo;\r\n\r\n        proposalInfo.proposal_id = proposalCount;\r\n        proposalInfo.payment_rate = payment_rate;\r\n        proposalInfo.scope_of_work = scope_of_work;\r\n        proposalInfo.payment_frequency = payment_frequency;\r\n        proposalInfo.employer_id = employer_id;\r\n        proposalInfo.contractor_id = contractor_id;\r\n        proposalInfo.start_date = start_date;\r\n        proposalInfo.end_date = end_date;\r\n        proposalInfo.contract_type = contract_type;\r\n\r\n        proposals[proposalCount] = proposalInfo;\r\n        emit ProposalCreated(\r\n            proposalCount,\r\n            payment_rate,\r\n            scope_of_work,\r\n            payment_frequency,\r\n            employer_id,\r\n            contractor_id,\r\n            start_date,\r\n            end_date,\r\n            contract_type\r\n        );\r\n    }\r\n\r\n    function showBalance() external view returns (uint256) {\r\n        return address(this).balance;\r\n    }\r\n}\r\n",
  "sourcePath": "C:/Users/USER/Documents/2022PrimerSemestre/pf/SmartDeal/contracts/Proposal.sol",
  "compiler": {
    "name": "solc",
    "version": "0.5.0+commit.1d4f565a.Emscripten.clang"
  },
  "schemaVersion": "3.0.1",
  "updatedAt": "2022-05-22T20:42:57.427Z",
  "devdoc": {
    "methods": {}
  },
  "userdoc": {
    "methods": {}
  }
}