{
  "contractName": "ProposalSC",
  "abi": [
    {
      "constant": true,
      "inputs": [
        {
          "name": "",
          "type": "uint256"
        }
      ],
      "name": "proposals",
      "outputs": [
        {
          "name": "proposal_id",
          "type": "uint256"
        },
        {
          "name": "payment_rate",
          "type": "int256"
        },
        {
          "name": "scope_of_work",
          "type": "string"
        },
        {
          "name": "payment_frequency",
          "type": "string"
        },
        {
          "name": "employer_id",
          "type": "uint256"
        },
        {
          "name": "contractor_id",
          "type": "uint256"
        },
        {
          "name": "start_date",
          "type": "string"
        },
        {
          "name": "end_date",
          "type": "string"
        },
        {
          "name": "contract_type",
          "type": "string"
        }
      ],
      "payable": false,
      "stateMutability": "view",
      "type": "function",
      "signature": "0x013cf08b"
    },
    {
      "constant": true,
      "inputs": [],
      "name": "proposalCount",
      "outputs": [
        {
          "name": "",
          "type": "uint256"
        }
      ],
      "payable": false,
      "stateMutability": "view",
      "type": "function",
      "signature": "0xda35c664"
    },
    {
      "inputs": [],
      "payable": false,
      "stateMutability": "nonpayable",
      "type": "constructor",
      "signature": "constructor"
    },
    {
      "anonymous": false,
      "inputs": [
        {
          "indexed": false,
          "name": "proposal_id",
          "type": "uint256"
        },
        {
          "indexed": false,
          "name": "payment_rate",
          "type": "int256"
        },
        {
          "indexed": false,
          "name": "scope_of_work",
          "type": "string"
        },
        {
          "indexed": false,
          "name": "payment_frequency",
          "type": "string"
        },
        {
          "indexed": false,
          "name": "employer_id",
          "type": "uint256"
        },
        {
          "indexed": false,
          "name": "contractor_id",
          "type": "uint256"
        },
        {
          "indexed": false,
          "name": "start_date",
          "type": "string"
        },
        {
          "indexed": false,
          "name": "end_date",
          "type": "string"
        },
        {
          "indexed": false,
          "name": "contract_type",
          "type": "string"
        }
      ],
      "name": "ProposalCreated",
      "type": "event",
      "signature": "0xce1aaf6af4b3ed8d8a5d0dc468141394d0408e48be78acba5b0680ae8d8475f6"
    },
    {
      "constant": false,
      "inputs": [
        {
          "name": "payment_rate",
          "type": "int256"
        },
        {
          "name": "scope_of_work",
          "type": "string"
        },
        {
          "name": "payment_frequency",
          "type": "string"
        },
        {
          "name": "employer_id",
          "type": "uint256"
        },
        {
          "name": "contractor_id",
          "type": "uint256"
        },
        {
          "name": "start_date",
          "type": "string"
        },
        {
          "name": "end_date",
          "type": "string"
        },
        {
          "name": "contract_type",
          "type": "string"
        },
        {
          "name": "addr",
          "type": "address"
        },
        {
          "name": "contract_id",
          "type": "uint256"
        },
        {
          "name": "status",
          "type": "string"
        }
      ],
      "name": "createProposal",
      "outputs": [],
      "payable": false,
      "stateMutability": "nonpayable",
      "type": "function",
      "signature": "0x144d16a3"
    },
    {
      "constant": true,
      "inputs": [],
      "name": "showBalance",
      "outputs": [
        {
          "name": "",
          "type": "uint256"
        }
      ],
      "payable": false,
      "stateMutability": "view",
      "type": "function",
      "signature": "0x81b2d07b"
    }
  ],
  "bytecode": "0x60806040526000805534801561001457600080fd5b50610fda806100246000396000f3fe6080604052600436106100615763ffffffff7c0100000000000000000000000000000000000000000000000000000000600035041663013cf08b8114610066578063144d16a3146102bc57806381b2d07b1461064a578063da35c66414610671575b600080fd5b34801561007257600080fd5b506100906004803603602081101561008957600080fd5b5035610686565b604051808a8152602001898152602001806020018060200188815260200187815260200180602001806020018060200186810386528d818151815260200191508051906020019080838360005b838110156100f55781810151838201526020016100dd565b50505050905090810190601f1680156101225780820380516001836020036101000a031916815260200191505b5086810385528c5181528c516020918201918e019080838360005b8381101561015557818101518382015260200161013d565b50505050905090810190601f1680156101825780820380516001836020036101000a031916815260200191505b5086810384528951815289516020918201918b019080838360005b838110156101b557818101518382015260200161019d565b50505050905090810190601f1680156101e25780820380516001836020036101000a031916815260200191505b5086810383528851815288516020918201918a019080838360005b838110156102155781810151838201526020016101fd565b50505050905090810190601f1680156102425780820380516001836020036101000a031916815260200191505b50868103825287518152875160209182019189019080838360005b8381101561027557818101518382015260200161025d565b50505050905090810190601f1680156102a25780820380516001836020036101000a031916815260200191505b509e50505050505050505050505050505060405180910390f35b3480156102c857600080fd5b5061064860048036036101608110156102e057600080fd5b8135919081019060408101602082013564010000000081111561030257600080fd5b82018360208201111561031457600080fd5b8035906020019184600183028401116401000000008311171561033657600080fd5b91908080601f016020809104026020016040519081016040528093929190818152602001838380828437600092019190915250929594936020810193503591505064010000000081111561038957600080fd5b82018360208201111561039b57600080fd5b803590602001918460018302840111640100000000831117156103bd57600080fd5b91908080601f016020809104026020016040519081016040528093929190818152602001838380828437600092019190915250929584359560208601359591945092506060810191506040013564010000000081111561041c57600080fd5b82018360208201111561042e57600080fd5b8035906020019184600183028401116401000000008311171561045057600080fd5b91908080601f01602080910402602001604051908101604052809392919081815260200183838082843760009201919091525092959493602081019350359150506401000000008111156104a357600080fd5b8201836020820111156104b557600080fd5b803590602001918460018302840111640100000000831117156104d757600080fd5b91908080601f016020809104026020016040519081016040528093929190818152602001838380828437600092019190915250929594936020810193503591505064010000000081111561052a57600080fd5b82018360208201111561053c57600080fd5b8035906020019184600183028401116401000000008311171561055e57600080fd5b91908080601f016020809104026020016040519081016040528093929190818152602001838380828437600092019190915250929573ffffffffffffffffffffffffffffffffffffffff853516956020860135959194509250606081019150604001356401000000008111156105d357600080fd5b8201836020820111156105e557600080fd5b8035906020019184600183028401116401000000008311171561060757600080fd5b91908080601f0160208091040260200160405190810160405280939291908181526020018383808284376000920191909152509295506109a2945050505050565b005b34801561065657600080fd5b5061065f610ebd565b60408051918252519081900360200190f35b34801561067d57600080fd5b5061065f610ec3565b6001602052806000526040600020600091509050806000015490806001015490806002018054600181600116156101000203166002900480601f01602080910402602001604051908101604052809291908181526020018280546001816001161561010002031660029004801561073e5780601f106107135761010080835404028352916020019161073e565b820191906000526020600020905b81548152906001019060200180831161072157829003601f168201915b5050505060038301805460408051602060026001851615610100026000190190941693909304601f81018490048402820184019092528181529495949350908301828280156107ce5780601f106107a3576101008083540402835291602001916107ce565b820191906000526020600020905b8154815290600101906020018083116107b157829003601f168201915b505050505090806004015490806005015490806006018054600181600116156101000203166002900480601f0160208091040260200160405190810160405280929190818152602001828054600181600116156101000203166002900480156108785780601f1061084d57610100808354040283529160200191610878565b820191906000526020600020905b81548152906001019060200180831161085b57829003601f168201915b5050505060078301805460408051602060026001851615610100026000190190941693909304601f81018490048402820184019092528181529495949350908301828280156109085780601f106108dd57610100808354040283529160200191610908565b820191906000526020600020905b8154815290600101906020018083116108eb57829003601f168201915b5050505060088301805460408051602060026001851615610100026000190190941693909304601f81018490048402820184019092528181529495949350908301828280156109985780601f1061096d57610100808354040283529160200191610998565b820191906000526020600020905b81548152906001019060200180831161097b57829003601f168201915b5050505050905089565b6000805460010190556109b3610ec9565b6000548160000181815250508b8160200181815250508a816040018190525089816060018190525088816080018181525050878160a0018181525050868160c00181905250858160e001819052508481610100018190525080600160008054815260200190815260200160002060008201518160000155602082015181600101556040820151816002019080519060200190610a50929190610f16565b5060608201518051610a6c916003840191602090910190610f16565b506080820151600482015560a0820151600582015560c08201518051610a9c916006840191602090910190610f16565b5060e08201518051610ab8916007840191602090910190610f16565b506101008201518051610ad5916008840191602090910190610f16565b5050604080517f243b67fe000000000000000000000000000000000000000000000000000000008152600481018681526024820192835285516044830152855173ffffffffffffffffffffffffffffffffffffffff8916945063243b67fe938893889392606490910190602085019080838360005b83811015610b62578181015183820152602001610b4a565b50505050905090810190601f168015610b8f5780820380516001836020036101000a031916815260200191505b509350505050600060405180830381600087803b158015610baf57600080fd5b505af1158015610bc3573d6000803e3d6000fd5b505050508373ffffffffffffffffffffffffffffffffffffffff1663fd6b026f846000546040518363ffffffff167c01000000000000000000000000000000000000000000000000000000000281526004018083815260200182815260200192505050600060405180830381600087803b158015610c4057600080fd5b505af1158015610c54573d6000803e3d6000fd5b505050507fce1aaf6af4b3ed8d8a5d0dc468141394d0408e48be78acba5b0680ae8d8475f66000548d8d8d8d8d8d8d8d604051808a8152602001898152602001806020018060200188815260200187815260200180602001806020018060200186810386528d818151815260200191508051906020019080838360005b83811015610ce9578181015183820152602001610cd1565b50505050905090810190601f168015610d165780820380516001836020036101000a031916815260200191505b5086810385528c5181528c516020918201918e019080838360005b83811015610d49578181015183820152602001610d31565b50505050905090810190601f168015610d765780820380516001836020036101000a031916815260200191505b5086810384528951815289516020918201918b019080838360005b83811015610da9578181015183820152602001610d91565b50505050905090810190601f168015610dd65780820380516001836020036101000a031916815260200191505b5086810383528851815288516020918201918a019080838360005b83811015610e09578181015183820152602001610df1565b50505050905090810190601f168015610e365780820380516001836020036101000a031916815260200191505b50868103825287518152875160209182019189019080838360005b83811015610e69578181015183820152602001610e51565b50505050905090810190601f168015610e965780820380516001836020036101000a031916815260200191505b509e50505050505050505050505050505060405180910390a1505050505050505050505050565b30315b90565b60005481565b610120604051908101604052806000815260200160008152602001606081526020016060815260200160008152602001600081526020016060815260200160608152602001606081525090565b828054600181600116156101000203166002900490600052602060002090601f016020900481019282601f10610f5757805160ff1916838001178555610f84565b82800160010185558215610f84579182015b82811115610f84578251825591602001919060010190610f69565b50610f90929150610f94565b5090565b610ec091905b80821115610f905760008155600101610f9a56fea165627a7a7230582036019f4331fd7324f0d8382d56d888cd3c013ca81d3d93867d7690cf5d3eacc90029",
  "source": "// SPDX-License-Identifier: MIT\r\npragma solidity >=0.4.22 <0.9.0;\r\n\r\ninterface ContractSC {\r\n    function setContractStatus(uint256 _id, string calldata status) external;\r\n\r\n    function updateContractProposal(uint256 _id, uint256 proposal_id) external;\r\n}\r\n\r\ncontract ProposalSC {\r\n    uint256 public proposalCount = 0;\r\n\r\n    struct Proposal {\r\n        uint256 proposal_id;\r\n        int256 payment_rate;\r\n        string scope_of_work;\r\n        string payment_frequency;\r\n        uint256 employer_id;\r\n        uint256 contractor_id;\r\n        string start_date;\r\n        string end_date;\r\n        string contract_type;\r\n    }\r\n\r\n    mapping(uint256 => Proposal) public proposals;\r\n\r\n    event ProposalCreated(\r\n        uint256 proposal_id,\r\n        int256 payment_rate,\r\n        string scope_of_work,\r\n        string payment_frequency,\r\n        uint256 employer_id,\r\n        uint256 contractor_id,\r\n        string start_date,\r\n        string end_date,\r\n        string contract_type\r\n    );\r\n\r\n    constructor() public {}\r\n\r\n    function createProposal(\r\n        int256 payment_rate,\r\n        string memory scope_of_work,\r\n        string memory payment_frequency,\r\n        uint256 employer_id,\r\n        uint256 contractor_id,\r\n        string memory start_date,\r\n        string memory end_date,\r\n        string memory contract_type,\r\n        address addr,\r\n        uint256 contract_id,\r\n        string memory status\r\n    ) public {\r\n        proposalCount++;\r\n        Proposal memory proposalInfo;\r\n\r\n        proposalInfo.proposal_id = proposalCount;\r\n        proposalInfo.payment_rate = payment_rate;\r\n        proposalInfo.scope_of_work = scope_of_work;\r\n        proposalInfo.payment_frequency = payment_frequency;\r\n        proposalInfo.employer_id = employer_id;\r\n        proposalInfo.contractor_id = contractor_id;\r\n        proposalInfo.start_date = start_date;\r\n        proposalInfo.end_date = end_date;\r\n        proposalInfo.contract_type = contract_type;\r\n\r\n        proposals[proposalCount] = proposalInfo;\r\n\r\n        ContractSC(addr).setContractStatus(contract_id, status);\r\n        ContractSC(addr).updateContractProposal(contract_id, proposalCount);\r\n\r\n        emit ProposalCreated(\r\n            proposalCount,\r\n            payment_rate,\r\n            scope_of_work,\r\n            payment_frequency,\r\n            employer_id,\r\n            contractor_id,\r\n            start_date,\r\n            end_date,\r\n            contract_type\r\n        );\r\n    }\r\n\r\n    function showBalance() external view returns (uint256) {\r\n        return address(this).balance;\r\n    }\r\n}\r\n",
  "sourcePath": "C:/Users/sesan/Desktop/Proyecto Final/SmartDeal Solidity/contracts/Proposal.sol",
  "compiler": {
    "name": "solc",
    "version": "0.5.0+commit.1d4f565a.Emscripten.clang"
  },
  "schemaVersion": "3.0.1",
  "updatedAt": "2022-05-27T13:09:03.596Z",
  "devdoc": {
    "methods": {}
  },
  "userdoc": {
    "methods": {}
  }
}