{
  "contractName": "ProposalSC",
  "abi": [
    {
      "constant": true,
      "inputs": [
        {
          "name": "",
          "type": "uint256"
        }
      ],
      "name": "proposals",
      "outputs": [
        {
          "name": "proposal_id",
          "type": "uint256"
        },
        {
          "name": "payment_rate",
          "type": "int256"
        },
        {
          "name": "currency",
          "type": "string"
        },
        {
          "name": "description",
          "type": "string"
        },
        {
          "name": "scope_of_work",
          "type": "string"
        },
        {
          "name": "payment_frequency",
          "type": "string"
        },
        {
          "name": "status",
          "type": "string"
        },
        {
          "name": "employer_id",
          "type": "uint256"
        },
        {
          "name": "contractor_id",
          "type": "uint256"
        }
      ],
      "payable": false,
      "stateMutability": "view",
      "type": "function",
      "signature": "0x013cf08b"
    },
    {
      "constant": true,
      "inputs": [],
      "name": "proposalCount",
      "outputs": [
        {
          "name": "",
          "type": "uint256"
        }
      ],
      "payable": false,
      "stateMutability": "view",
      "type": "function",
      "signature": "0xda35c664"
    },
    {
      "inputs": [],
      "payable": false,
      "stateMutability": "nonpayable",
      "type": "constructor",
      "signature": "constructor"
    },
    {
      "anonymous": false,
      "inputs": [
        {
          "indexed": false,
          "name": "proposal_id",
          "type": "uint256"
        },
        {
          "indexed": false,
          "name": "payment_rate",
          "type": "int256"
        },
        {
          "indexed": false,
          "name": "currency",
          "type": "string"
        },
        {
          "indexed": false,
          "name": "description",
          "type": "string"
        },
        {
          "indexed": false,
          "name": "scope_of_work",
          "type": "string"
        },
        {
          "indexed": false,
          "name": "payment_frequency",
          "type": "string"
        },
        {
          "indexed": false,
          "name": "status",
          "type": "string"
        },
        {
          "indexed": false,
          "name": "employer_id",
          "type": "uint256"
        },
        {
          "indexed": false,
          "name": "contractor_id",
          "type": "uint256"
        }
      ],
      "name": "ProposalCreated",
      "type": "event",
      "signature": "0x8cba92fe874ce210d61ae25e9dc7517b9484da85fe2ba29865b8585c7b5ebdf1"
    },
    {
      "constant": false,
      "inputs": [
        {
          "name": "payment_rate",
          "type": "int256"
        },
        {
          "name": "currency",
          "type": "string"
        },
        {
          "name": "description",
          "type": "string"
        },
        {
          "name": "scope_of_work",
          "type": "string"
        },
        {
          "name": "payment_frequency",
          "type": "string"
        },
        {
          "name": "status",
          "type": "string"
        },
        {
          "name": "employer_id",
          "type": "uint256"
        },
        {
          "name": "contractor_id",
          "type": "uint256"
        }
      ],
      "name": "createProposal",
      "outputs": [],
      "payable": false,
      "stateMutability": "nonpayable",
      "type": "function",
      "signature": "0x723109bc"
    },
    {
      "constant": true,
      "inputs": [],
      "name": "showBalance",
      "outputs": [
        {
          "name": "",
          "type": "uint256"
        }
      ],
      "payable": false,
      "stateMutability": "view",
      "type": "function",
      "signature": "0x81b2d07b"
    }
  ],
  "bytecode": "0x6080604052600080553480156200001557600080fd5b50604080518082018252600381527f555344000000000000000000000000000000000000000000000000000000000060208083019190915282518084018452600b8082527f4465736372697074696f6e00000000000000000000000000000000000000000082840152845180860186529081527f3320656e64706f696e74730000000000000000000000000000000000000000008184015284518086018652600781527f4d6f6e74686c7900000000000000000000000000000000000000000000000000818501528551808701909652601086527f57616974696e6720726573706f6e736500000000000000000000000000000000938601939093526200012e946107d094939060018064010000000062000134810204565b620005ae565b60008054600101905562000147620004bc565b6000805480835260208084018c815260408086018d8152606087018d9052608087018c905260a087018b905260c087018a905260e087018990526101008701889052938552600180845294208551815590519381019390935590518051849392620001ba92600285019291019062000509565b5060608201518051620001d891600384019160209091019062000509565b5060808201518051620001f691600484019160209091019062000509565b5060a082015180516200021491600584019160209091019062000509565b5060c082015180516200023291600684019160209091019062000509565b5060e0820151816007015561010082015181600801559050507f8cba92fe874ce210d61ae25e9dc7517b9484da85fe2ba29865b8585c7b5ebdf16000548a8a8a8a8a8a8a8a604051808a8152602001898152602001806020018060200180602001806020018060200188815260200187815260200186810386528d818151815260200191508051906020019080838360005b83811015620002de578181015183820152602001620002c4565b50505050905090810190601f1680156200030c5780820380516001836020036101000a031916815260200191505b5086810385528c5181528c516020918201918e019080838360005b838110156200034157818101518382015260200162000327565b50505050905090810190601f1680156200036f5780820380516001836020036101000a031916815260200191505b5086810384528b5181528b516020918201918d019080838360005b83811015620003a45781810151838201526020016200038a565b50505050905090810190601f168015620003d25780820380516001836020036101000a031916815260200191505b5086810383528a5181528a516020918201918c019080838360005b8381101562000407578181015183820152602001620003ed565b50505050905090810190601f168015620004355780820380516001836020036101000a031916815260200191505b5086810382528951815289516020918201918b019080838360005b838110156200046a57818101518382015260200162000450565b50505050905090810190601f168015620004985780820380516001836020036101000a031916815260200191505b509e50505050505050505050505050505060405180910390a1505050505050505050565b610120604051908101604052806000815260200160008152602001606081526020016060815260200160608152602001606081526020016060815260200160008152602001600081525090565b828054600181600116156101000203166002900490600052602060002090601f016020900481019282601f106200054c57805160ff19168380011785556200057c565b828001600101855582156200057c579182015b828111156200057c5782518255916020019190600101906200055f565b506200058a9291506200058e565b5090565b620005ab91905b808211156200058a576000815560010162000595565b90565b610d6e80620005be6000396000f3fe6080604052600436106100615763ffffffff7c0100000000000000000000000000000000000000000000000000000000600035041663013cf08b8114610066578063723109bc146102bc57806381b2d07b1461059a578063da35c664146105c1575b600080fd5b34801561007257600080fd5b506100906004803603602081101561008957600080fd5b50356105d6565b604051808a8152602001898152602001806020018060200180602001806020018060200188815260200187815260200186810386528d818151815260200191508051906020019080838360005b838110156100f55781810151838201526020016100dd565b50505050905090810190601f1680156101225780820380516001836020036101000a031916815260200191505b5086810385528c5181528c516020918201918e019080838360005b8381101561015557818101518382015260200161013d565b50505050905090810190601f1680156101825780820380516001836020036101000a031916815260200191505b5086810384528b5181528b516020918201918d019080838360005b838110156101b557818101518382015260200161019d565b50505050905090810190601f1680156101e25780820380516001836020036101000a031916815260200191505b5086810383528a5181528a516020918201918c019080838360005b838110156102155781810151838201526020016101fd565b50505050905090810190601f1680156102425780820380516001836020036101000a031916815260200191505b5086810382528951815289516020918201918b019080838360005b8381101561027557818101518382015260200161025d565b50505050905090810190601f1680156102a25780820380516001836020036101000a031916815260200191505b509e50505050505050505050505050505060405180910390f35b3480156102c857600080fd5b5061059860048036036101008110156102e057600080fd5b8135919081019060408101602082013564010000000081111561030257600080fd5b82018360208201111561031457600080fd5b8035906020019184600183028401116401000000008311171561033657600080fd5b91908080601f016020809104026020016040519081016040528093929190818152602001838380828437600092019190915250929594936020810193503591505064010000000081111561038957600080fd5b82018360208201111561039b57600080fd5b803590602001918460018302840111640100000000831117156103bd57600080fd5b91908080601f016020809104026020016040519081016040528093929190818152602001838380828437600092019190915250929594936020810193503591505064010000000081111561041057600080fd5b82018360208201111561042257600080fd5b8035906020019184600183028401116401000000008311171561044457600080fd5b91908080601f016020809104026020016040519081016040528093929190818152602001838380828437600092019190915250929594936020810193503591505064010000000081111561049757600080fd5b8201836020820111156104a957600080fd5b803590602001918460018302840111640100000000831117156104cb57600080fd5b91908080601f016020809104026020016040519081016040528093929190818152602001838380828437600092019190915250929594936020810193503591505064010000000081111561051e57600080fd5b82018360208201111561053057600080fd5b8035906020019184600183028401116401000000008311171561055257600080fd5b91908080601f01602080910402602001604051908101604052809392919081815260200183838082843760009201919091525092955050823593505050602001356108e4565b005b3480156105a657600080fd5b506105af610c51565b60408051918252519081900360200190f35b3480156105cd57600080fd5b506105af610c57565b6001602052806000526040600020600091509050806000015490806001015490806002018054600181600116156101000203166002900480601f01602080910402602001604051908101604052809291908181526020018280546001816001161561010002031660029004801561068e5780601f106106635761010080835404028352916020019161068e565b820191906000526020600020905b81548152906001019060200180831161067157829003601f168201915b5050505060038301805460408051602060026001851615610100026000190190941693909304601f810184900484028201840190925281815294959493509083018282801561071e5780601f106106f35761010080835404028352916020019161071e565b820191906000526020600020905b81548152906001019060200180831161070157829003601f168201915b5050505060048301805460408051602060026001851615610100026000190190941693909304601f81018490048402820184019092528181529495949350908301828280156107ae5780601f10610783576101008083540402835291602001916107ae565b820191906000526020600020905b81548152906001019060200180831161079157829003601f168201915b5050505060058301805460408051602060026001851615610100026000190190941693909304601f810184900484028201840190925281815294959493509083018282801561083e5780601f106108135761010080835404028352916020019161083e565b820191906000526020600020905b81548152906001019060200180831161082157829003601f168201915b5050505060068301805460408051602060026001851615610100026000190190941693909304601f81018490048402820184019092528181529495949350908301828280156108ce5780601f106108a3576101008083540402835291602001916108ce565b820191906000526020600020905b8154815290600101906020018083116108b157829003601f168201915b5050505050908060070154908060080154905089565b6000805460010190556108f5610c5d565b6000805480835260208084018c815260408086018d8152606087018d9052608087018c905260a087018b905260c087018a905260e087018990526101008701889052938552600180845294208551815590519381019390935590518051849392610966926002850192910190610caa565b5060608201518051610982916003840191602090910190610caa565b506080820151805161099e916004840191602090910190610caa565b5060a082015180516109ba916005840191602090910190610caa565b5060c082015180516109d6916006840191602090910190610caa565b5060e0820151816007015561010082015181600801559050507f8cba92fe874ce210d61ae25e9dc7517b9484da85fe2ba29865b8585c7b5ebdf16000548a8a8a8a8a8a8a8a604051808a8152602001898152602001806020018060200180602001806020018060200188815260200187815260200186810386528d818151815260200191508051906020019080838360005b83811015610a80578181015183820152602001610a68565b50505050905090810190601f168015610aad5780820380516001836020036101000a031916815260200191505b5086810385528c5181528c516020918201918e019080838360005b83811015610ae0578181015183820152602001610ac8565b50505050905090810190601f168015610b0d5780820380516001836020036101000a031916815260200191505b5086810384528b5181528b516020918201918d019080838360005b83811015610b40578181015183820152602001610b28565b50505050905090810190601f168015610b6d5780820380516001836020036101000a031916815260200191505b5086810383528a5181528a516020918201918c019080838360005b83811015610ba0578181015183820152602001610b88565b50505050905090810190601f168015610bcd5780820380516001836020036101000a031916815260200191505b5086810382528951815289516020918201918b019080838360005b83811015610c00578181015183820152602001610be8565b50505050905090810190601f168015610c2d5780820380516001836020036101000a031916815260200191505b509e50505050505050505050505050505060405180910390a1505050505050505050565b30315b90565b60005481565b610120604051908101604052806000815260200160008152602001606081526020016060815260200160608152602001606081526020016060815260200160008152602001600081525090565b828054600181600116156101000203166002900490600052602060002090601f016020900481019282601f10610ceb57805160ff1916838001178555610d18565b82800160010185558215610d18579182015b82811115610d18578251825591602001919060010190610cfd565b50610d24929150610d28565b5090565b610c5491905b80821115610d245760008155600101610d2e56fea165627a7a72305820d4132a36a340aa096953cc3042a0b44b44cbce64bf3fb5b232ce42b74be821bc0029",
  "source": "// SPDX-License-Identifier: MIT\r\npragma solidity >=0.4.22 <0.9.0;\r\n\r\ncontract ProposalSC {\r\n    uint256 public proposalCount = 0;\r\n\r\n    struct Proposal {\r\n        uint256 proposal_id;\r\n        int256 payment_rate;\r\n        string currency;\r\n        string description;\r\n        string scope_of_work;\r\n        string payment_frequency;\r\n        string status;\r\n        uint256 employer_id;\r\n        uint256 contractor_id;\r\n    }\r\n\r\n    // event ProposalStatus(uint256 contract_id);\r\n\r\n    mapping(uint256 => Proposal) public proposals;\r\n\r\n    event ProposalCreated(\r\n        uint256 proposal_id,\r\n        int256 payment_rate,\r\n        string currency,\r\n        string description,\r\n        string scope_of_work,\r\n        string payment_frequency,\r\n        string status,\r\n        uint256 employer_id,\r\n        uint256 contractor_id\r\n    );\r\n\r\n    constructor() public {\r\n        createProposal(\r\n            2000,\r\n            \"USD\",\r\n            \"Description\",\r\n            \"3 endpoints\",\r\n            \"Monthly\",\r\n            \"Waiting response\",\r\n            1,\r\n            1\r\n        );\r\n    }\r\n\r\n    function createProposal(\r\n        int256 payment_rate,\r\n        string memory currency,\r\n        string memory description,\r\n        string memory scope_of_work,\r\n        string memory payment_frequency,\r\n        string memory status,\r\n        uint256 employer_id,\r\n        uint256 contractor_id\r\n    ) public {\r\n        proposalCount++;\r\n        Proposal memory proposalInfo;\r\n\r\n        proposalInfo.proposal_id = proposalCount;\r\n        proposalInfo.payment_rate = payment_rate;\r\n        proposalInfo.currency = currency;\r\n        proposalInfo.description = description;\r\n        proposalInfo.scope_of_work = scope_of_work;\r\n        proposalInfo.payment_frequency = payment_frequency;\r\n        proposalInfo.status = status;\r\n        proposalInfo.employer_id = employer_id;\r\n        proposalInfo.contractor_id = contractor_id;\r\n\r\n        proposals[proposalCount] = proposalInfo;\r\n        emit ProposalCreated(\r\n            proposalCount,\r\n            payment_rate,\r\n            currency,\r\n            description,\r\n            scope_of_work,\r\n            payment_frequency,\r\n            status,\r\n            employer_id,\r\n            contractor_id\r\n        );\r\n    }\r\n\r\n    function showBalance() external view returns (uint256) {\r\n        return address(this).balance;\r\n    }\r\n}\r\n",
  "sourcePath": "C:/Users/USER/Documents/2022PrimerSemestre/pf/SmartDeal/contracts/Proposal.sol",
  "compiler": {
    "name": "solc",
    "version": "0.5.0+commit.1d4f565a.Emscripten.clang"
  },
  "schemaVersion": "3.0.1",
  "updatedAt": "2022-05-15T21:53:57.342Z",
  "devdoc": {
    "methods": {}
  },
  "userdoc": {
    "methods": {}
  }
}