{
  "contractName": "TransactionSC",
  "abi": [
    {
      "constant": true,
      "inputs": [
        {
          "name": "",
          "type": "uint256"
        }
      ],
      "name": "transactions",
      "outputs": [
        {
          "name": "transaction_id",
          "type": "uint256"
        },
        {
          "name": "withdrawal_date",
          "type": "string"
        },
        {
          "name": "estimated_arrival",
          "type": "string"
        },
        {
          "name": "method",
          "type": "string"
        },
        {
          "name": "amount",
          "type": "int256"
        },
        {
          "name": "contract_id",
          "type": "uint256"
        },
        {
          "name": "status",
          "type": "string"
        }
      ],
      "payable": false,
      "stateMutability": "view",
      "type": "function",
      "signature": "0x9ace38c2"
    },
    {
      "constant": true,
      "inputs": [],
      "name": "transactionCount",
      "outputs": [
        {
          "name": "",
          "type": "uint256"
        }
      ],
      "payable": false,
      "stateMutability": "view",
      "type": "function",
      "signature": "0xb77bf600"
    },
    {
      "inputs": [],
      "payable": false,
      "stateMutability": "nonpayable",
      "type": "constructor",
      "signature": "constructor"
    },
    {
      "anonymous": false,
      "inputs": [
        {
          "indexed": false,
          "name": "transaction_id",
          "type": "uint256"
        },
        {
          "indexed": false,
          "name": "withdrawal_date",
          "type": "string"
        },
        {
          "indexed": false,
          "name": "estimated_arrival",
          "type": "string"
        },
        {
          "indexed": false,
          "name": "method",
          "type": "string"
        },
        {
          "indexed": false,
          "name": "amount",
          "type": "int256"
        },
        {
          "indexed": false,
          "name": "contract_id",
          "type": "uint256"
        },
        {
          "indexed": false,
          "name": "status",
          "type": "string"
        }
      ],
      "name": "TransactionCreated",
      "type": "event",
      "signature": "0xb4faaf5a8f770dd90616161a9159b6749b0fd3b8ecd20c226426c727b0b1afd0"
    },
    {
      "constant": false,
      "inputs": [
        {
          "name": "withdrawal_date",
          "type": "string"
        },
        {
          "name": "estimated_arrival",
          "type": "string"
        },
        {
          "name": "method",
          "type": "string"
        },
        {
          "name": "amount",
          "type": "int256"
        },
        {
          "name": "contract_id",
          "type": "uint256"
        },
        {
          "name": "status",
          "type": "string"
        }
      ],
      "name": "createTransaction",
      "outputs": [],
      "payable": false,
      "stateMutability": "nonpayable",
      "type": "function",
      "signature": "0x6f4436a6"
    },
    {
      "constant": true,
      "inputs": [],
      "name": "showBalance",
      "outputs": [
        {
          "name": "",
          "type": "uint256"
        }
      ],
      "payable": false,
      "stateMutability": "view",
      "type": "function",
      "signature": "0x81b2d07b"
    },
    {
      "constant": true,
      "inputs": [],
      "name": "getAddress",
      "outputs": [
        {
          "name": "",
          "type": "address"
        }
      ],
      "payable": false,
      "stateMutability": "view",
      "type": "function",
      "signature": "0x38cc4831"
    }
  ],
  "bytecode": "0x6080604052600080553480156200001557600080fd5b506200010c6040805190810160405280600a81526020017f31352f30352f32303232000000000000000000000000000000000000000000008152506040805190810160405280600a81526020017f31352f30352f32303232000000000000000000000000000000000000000000008152506040805190810160405280600a81526020017f4c6f63616c2042616e6b0000000000000000000000000000000000000000000081525061012c60016040805190810160405280600781526020017f537563636573730000000000000000000000000000000000000000000000000081525062000112640100000000026401000000009004565b620004d2565b60008054600101905562000125620003ef565b6000805480835260208084018a815260408086018b9052606086018a90526080860189905260a0860188905260c08601879052928452600180835292909320845181559251805185949362000180939085019201906200042d565b50604082015180516200019e9160028401916020909101906200042d565b5060608201518051620001bc9160038401916020909101906200042d565b506080820151600482015560a0820151600582015560c08201518051620001ee9160068401916020909101906200042d565b509050507fb4faaf5a8f770dd90616161a9159b6749b0fd3b8ecd20c226426c727b0b1afd0600054888888888888604051808881526020018060200180602001806020018781526020018681526020018060200185810385528b818151815260200191508051906020019080838360005b83811015620002795781810151838201526020016200025f565b50505050905090810190601f168015620002a75780820380516001836020036101000a031916815260200191505b5085810384528a5181528a516020918201918c019080838360005b83811015620002dc578181015183820152602001620002c2565b50505050905090810190601f1680156200030a5780820380516001836020036101000a031916815260200191505b5085810383528951815289516020918201918b019080838360005b838110156200033f57818101518382015260200162000325565b50505050905090810190601f1680156200036d5780820380516001836020036101000a031916815260200191505b50858103825286518152865160209182019188019080838360005b83811015620003a257818101518382015260200162000388565b50505050905090810190601f168015620003d05780820380516001836020036101000a031916815260200191505b509b50505050505050505050505060405180910390a150505050505050565b60e060405190810160405280600081526020016060815260200160608152602001606081526020016000815260200160008152602001606081525090565b828054600181600116156101000203166002900490600052602060002090601f016020900481019282601f106200047057805160ff1916838001178555620004a0565b82800160010185558215620004a0579182015b82811115620004a057825182559160200191906001019062000483565b50620004ae929150620004b2565b5090565b620004cf91905b80821115620004ae5760008155600101620004b9565b90565b610b7580620004e26000396000f3fe60806040526004361061006c5763ffffffff7c010000000000000000000000000000000000000000000000000000000060003504166338cc483181146100715780636f4436a6146100af57806381b2d07b146103055780639ace38c21461032c578063b77bf60014610515575b600080fd5b34801561007d57600080fd5b5061008661052a565b6040805173ffffffffffffffffffffffffffffffffffffffff9092168252519081900360200190f35b3480156100bb57600080fd5b50610303600480360360c08110156100d257600080fd5b8101906020810181356401000000008111156100ed57600080fd5b8201836020820111156100ff57600080fd5b8035906020019184600183028401116401000000008311171561012157600080fd5b91908080601f016020809104026020016040519081016040528093929190818152602001838380828437600092019190915250929594936020810193503591505064010000000081111561017457600080fd5b82018360208201111561018657600080fd5b803590602001918460018302840111640100000000831117156101a857600080fd5b91908080601f01602080910402602001604051908101604052809392919081815260200183838082843760009201919091525092959493602081019350359150506401000000008111156101fb57600080fd5b82018360208201111561020d57600080fd5b8035906020019184600183028401116401000000008311171561022f57600080fd5b91908080601f016020809104026020016040519081016040528093929190818152602001838380828437600092019190915250929584359560208601359591945092506060810191506040013564010000000081111561028e57600080fd5b8201836020820111156102a057600080fd5b803590602001918460018302840111640100000000831117156102c257600080fd5b91908080601f01602080910402602001604051908101604052809392919081815260200183838082843760009201919091525092955061052f945050505050565b005b34801561031157600080fd5b5061031a6107f6565b60408051918252519081900360200190f35b34801561033857600080fd5b506103566004803603602081101561034f57600080fd5b50356107fb565b604051808881526020018060200180602001806020018781526020018681526020018060200185810385528b818151815260200191508051906020019080838360005b838110156103b1578181015183820152602001610399565b50505050905090810190601f1680156103de5780820380516001836020036101000a031916815260200191505b5085810384528a5181528a516020918201918c019080838360005b838110156104115781810151838201526020016103f9565b50505050905090810190601f16801561043e5780820380516001836020036101000a031916815260200191505b5085810383528951815289516020918201918b019080838360005b83811015610471578181015183820152602001610459565b50505050905090810190601f16801561049e5780820380516001836020036101000a031916815260200191505b50858103825286518152865160209182019188019080838360005b838110156104d15781810151838201526020016104b9565b50505050905090810190601f1680156104fe5780820380516001836020036101000a031916815260200191505b509b50505050505050505050505060405180910390f35b34801561052157600080fd5b5061031a610a6d565b305b90565b600080546001019055610540610a73565b6000805480835260208084018a815260408086018b9052606086018a90526080860189905260a0860188905260c08601879052928452600180835292909320845181559251805185949361059993908501920190610ab1565b50604082015180516105b5916002840191602090910190610ab1565b50606082015180516105d1916003840191602090910190610ab1565b506080820151600482015560a0820151600582015560c08201518051610601916006840191602090910190610ab1565b509050507fb4faaf5a8f770dd90616161a9159b6749b0fd3b8ecd20c226426c727b0b1afd0600054888888888888604051808881526020018060200180602001806020018781526020018681526020018060200185810385528b818151815260200191508051906020019080838360005b8381101561068a578181015183820152602001610672565b50505050905090810190601f1680156106b75780820380516001836020036101000a031916815260200191505b5085810384528a5181528a516020918201918c019080838360005b838110156106ea5781810151838201526020016106d2565b50505050905090810190601f1680156107175780820380516001836020036101000a031916815260200191505b5085810383528951815289516020918201918b019080838360005b8381101561074a578181015183820152602001610732565b50505050905090810190601f1680156107775780820380516001836020036101000a031916815260200191505b50858103825286518152865160209182019188019080838360005b838110156107aa578181015183820152602001610792565b50505050905090810190601f1680156107d75780820380516001836020036101000a031916815260200191505b509b50505050505050505050505060405180910390a150505050505050565b303190565b600160208181526000928352604092839020805481840180548651600296821615610100026000190190911695909504601f810185900485028601850190965285855290949193929091908301828280156108975780601f1061086c57610100808354040283529160200191610897565b820191906000526020600020905b81548152906001019060200180831161087a57829003601f168201915b50505060028085018054604080516020601f60001961010060018716150201909416959095049283018590048502810185019091528181529596959450909250908301828280156109295780601f106108fe57610100808354040283529160200191610929565b820191906000526020600020905b81548152906001019060200180831161090c57829003601f168201915b5050505060038301805460408051602060026001851615610100026000190190941693909304601f81018490048402820184019092528181529495949350908301828280156109b95780601f1061098e576101008083540402835291602001916109b9565b820191906000526020600020905b81548152906001019060200180831161099c57829003601f168201915b505050505090806004015490806005015490806006018054600181600116156101000203166002900480601f016020809104026020016040519081016040528092919081815260200182805460018160011615610100020316600290048015610a635780601f10610a3857610100808354040283529160200191610a63565b820191906000526020600020905b815481529060010190602001808311610a4657829003601f168201915b5050505050905087565b60005481565b60e060405190810160405280600081526020016060815260200160608152602001606081526020016000815260200160008152602001606081525090565b828054600181600116156101000203166002900490600052602060002090601f016020900481019282601f10610af257805160ff1916838001178555610b1f565b82800160010185558215610b1f579182015b82811115610b1f578251825591602001919060010190610b04565b50610b2b929150610b2f565b5090565b61052c91905b80821115610b2b5760008155600101610b3556fea165627a7a7230582031211daf3aa9606abd2bef3f597bcf57c22cbe9d4a2365c631ad82a6525784460029",
  "source": "// SPDX-License-Identifier: MIT\r\npragma solidity >=0.4.22 <0.9.0;\r\n\r\ncontract TransactionSC {\r\n    uint256 public transactionCount = 0;\r\n\r\n    struct Transaction {\r\n        uint256 transaction_id;\r\n        string withdrawal_date;\r\n        string estimated_arrival;\r\n        string method;\r\n        int256 amount;\r\n        uint256 contract_id;\r\n        string status;\r\n    }\r\n\r\n    mapping(uint256 => Transaction) public transactions;\r\n\r\n    event TransactionCreated(\r\n        uint256 transaction_id,\r\n        string withdrawal_date,\r\n        string estimated_arrival,\r\n        string method,\r\n        int256 amount,\r\n        uint256 contract_id,\r\n        string status\r\n    );\r\n\r\n    constructor() public {\r\n        createTransaction(\r\n            \"15/05/2022\",\r\n            \"15/05/2022\",\r\n            \"Local Bank\",\r\n            300,\r\n            1,\r\n            \"Success\"\r\n        );\r\n    }\r\n\r\n    function createTransaction(\r\n        string memory withdrawal_date,\r\n        string memory estimated_arrival,\r\n        string memory method,\r\n        int256 amount,\r\n        uint256 contract_id,\r\n        string memory status\r\n    ) public {\r\n        transactionCount++;\r\n        Transaction memory transactionInfo;\r\n\r\n        transactionInfo.transaction_id = transactionCount;\r\n        transactionInfo.withdrawal_date = withdrawal_date;\r\n        transactionInfo.estimated_arrival = estimated_arrival;\r\n        transactionInfo.method = method;\r\n        transactionInfo.amount = amount;\r\n        transactionInfo.contract_id = contract_id;\r\n        transactionInfo.status = status;\r\n\r\n        transactions[transactionCount] = transactionInfo;\r\n        emit TransactionCreated(\r\n            transactionCount,\r\n            withdrawal_date,\r\n            estimated_arrival,\r\n            method,\r\n            amount,\r\n            contract_id,\r\n            status\r\n        );\r\n    }\r\n\r\n    function showBalance() external view returns (uint256) {\r\n        return address(this).balance;\r\n    }\r\n\r\n    function getAddress() external view returns (address) {\r\n        return address(this);\r\n    }\r\n}\r\n",
  "sourcePath": "C:/Users/sesan/Desktop/Proyecto Final/SmartDeal Solidity/contracts/Transaction.sol",
  "compiler": {
    "name": "solc",
    "version": "0.5.0+commit.1d4f565a.Emscripten.clang"
  },
  "schemaVersion": "3.0.1",
  "updatedAt": "2022-05-27T13:09:03.598Z",
  "devdoc": {
    "methods": {}
  },
  "userdoc": {
    "methods": {}
  }
}